{
  "contractName": "Presale",
  "abi": [
    {
      "inputs": [
        {
          "internalType": "uint256",
          "name": "rate",
          "type": "uint256"
        },
        {
          "internalType": "address payable",
          "name": "wallet",
          "type": "address"
        },
        {
          "internalType": "contract IERC20",
          "name": "token",
          "type": "address"
        },
        {
          "internalType": "address",
          "name": "theTokenWallet",
          "type": "address"
        },
        {
          "internalType": "uint256",
          "name": "theCap",
          "type": "uint256"
        },
        {
          "internalType": "uint256",
          "name": "theOpeningTime",
          "type": "uint256"
        },
        {
          "internalType": "uint256",
          "name": "theClosingTime",
          "type": "uint256"
        },
        {
          "internalType": "uint256",
          "name": "theMinimumContribution",
          "type": "uint256"
        },
        {
          "internalType": "uint256",
          "name": "theMaximumContribution",
          "type": "uint256"
        },
        {
          "internalType": "uint256",
          "name": "theTokenVestingStartTime",
          "type": "uint256"
        },
        {
          "internalType": "uint256",
          "name": "theTokenVestingCliffDuration",
          "type": "uint256"
        },
        {
          "internalType": "uint256",
          "name": "theTokenVestingDuration",
          "type": "uint256"
        }
      ],
      "stateMutability": "nonpayable",
      "type": "constructor"
    },
    {
      "anonymous": false,
      "inputs": [
        {
          "indexed": true,
          "internalType": "address",
          "name": "previousOwner",
          "type": "address"
        },
        {
          "indexed": true,
          "internalType": "address",
          "name": "newOwner",
          "type": "address"
        }
      ],
      "name": "OwnershipTransferred",
      "type": "event"
    },
    {
      "anonymous": false,
      "inputs": [
        {
          "indexed": false,
          "internalType": "uint256",
          "name": "prevClosingTime",
          "type": "uint256"
        },
        {
          "indexed": false,
          "internalType": "uint256",
          "name": "newClosingTime",
          "type": "uint256"
        }
      ],
      "name": "TimedCrowdsaleExtended",
      "type": "event"
    },
    {
      "anonymous": false,
      "inputs": [
        {
          "indexed": true,
          "internalType": "address",
          "name": "purchaser",
          "type": "address"
        },
        {
          "indexed": true,
          "internalType": "address",
          "name": "beneficiary",
          "type": "address"
        },
        {
          "indexed": false,
          "internalType": "uint256",
          "name": "value",
          "type": "uint256"
        },
        {
          "indexed": false,
          "internalType": "uint256",
          "name": "amount",
          "type": "uint256"
        }
      ],
      "name": "TokensPurchased",
      "type": "event"
    },
    {
      "stateMutability": "payable",
      "type": "fallback"
    },
    {
      "inputs": [
        {
          "internalType": "address",
          "name": "beneficiary",
          "type": "address"
        }
      ],
      "name": "buyTokens",
      "outputs": [],
      "stateMutability": "payable",
      "type": "function"
    },
    {
      "inputs": [],
      "name": "owner",
      "outputs": [
        {
          "internalType": "address",
          "name": "",
          "type": "address"
        }
      ],
      "stateMutability": "view",
      "type": "function"
    },
    {
      "inputs": [],
      "name": "rate",
      "outputs": [
        {
          "internalType": "uint256",
          "name": "",
          "type": "uint256"
        }
      ],
      "stateMutability": "view",
      "type": "function"
    },
    {
      "inputs": [],
      "name": "renounceOwnership",
      "outputs": [],
      "stateMutability": "nonpayable",
      "type": "function"
    },
    {
      "inputs": [],
      "name": "token",
      "outputs": [
        {
          "internalType": "contract IERC20",
          "name": "",
          "type": "address"
        }
      ],
      "stateMutability": "view",
      "type": "function"
    },
    {
      "inputs": [
        {
          "internalType": "address",
          "name": "newOwner",
          "type": "address"
        }
      ],
      "name": "transferOwnership",
      "outputs": [],
      "stateMutability": "nonpayable",
      "type": "function"
    },
    {
      "inputs": [],
      "name": "wallet",
      "outputs": [
        {
          "internalType": "address payable",
          "name": "",
          "type": "address"
        }
      ],
      "stateMutability": "view",
      "type": "function"
    },
    {
      "inputs": [],
      "name": "weiRaised",
      "outputs": [
        {
          "internalType": "uint256",
          "name": "",
          "type": "uint256"
        }
      ],
      "stateMutability": "view",
      "type": "function"
    },
    {
      "stateMutability": "payable",
      "type": "receive"
    },
    {
      "inputs": [],
      "name": "openingTime",
      "outputs": [
        {
          "internalType": "uint256",
          "name": "",
          "type": "uint256"
        }
      ],
      "stateMutability": "view",
      "type": "function"
    },
    {
      "inputs": [],
      "name": "closingTime",
      "outputs": [
        {
          "internalType": "uint256",
          "name": "",
          "type": "uint256"
        }
      ],
      "stateMutability": "view",
      "type": "function"
    },
    {
      "inputs": [],
      "name": "isOpen",
      "outputs": [
        {
          "internalType": "bool",
          "name": "",
          "type": "bool"
        }
      ],
      "stateMutability": "view",
      "type": "function"
    },
    {
      "inputs": [],
      "name": "hasClosed",
      "outputs": [
        {
          "internalType": "bool",
          "name": "",
          "type": "bool"
        }
      ],
      "stateMutability": "view",
      "type": "function"
    },
    {
      "inputs": [
        {
          "internalType": "uint256",
          "name": "newClosingTime",
          "type": "uint256"
        }
      ],
      "name": "extendTime",
      "outputs": [],
      "stateMutability": "nonpayable",
      "type": "function"
    },
    {
      "inputs": [],
      "name": "cap",
      "outputs": [
        {
          "internalType": "uint256",
          "name": "",
          "type": "uint256"
        }
      ],
      "stateMutability": "view",
      "type": "function"
    },
    {
      "inputs": [],
      "name": "capReached",
      "outputs": [
        {
          "internalType": "bool",
          "name": "",
          "type": "bool"
        }
      ],
      "stateMutability": "view",
      "type": "function"
    },
    {
      "inputs": [],
      "name": "tokenWallet",
      "outputs": [
        {
          "internalType": "address",
          "name": "",
          "type": "address"
        }
      ],
      "stateMutability": "view",
      "type": "function"
    },
    {
      "inputs": [],
      "name": "remainingTokens",
      "outputs": [
        {
          "internalType": "uint256",
          "name": "",
          "type": "uint256"
        }
      ],
      "stateMutability": "view",
      "type": "function"
    },
    {
      "inputs": [],
      "name": "minimumContribution",
      "outputs": [
        {
          "internalType": "uint256",
          "name": "",
          "type": "uint256"
        }
      ],
      "stateMutability": "view",
      "type": "function"
    },
    {
      "inputs": [],
      "name": "maximumContribution",
      "outputs": [
        {
          "internalType": "uint256",
          "name": "",
          "type": "uint256"
        }
      ],
      "stateMutability": "view",
      "type": "function"
    },
    {
      "inputs": [
        {
          "internalType": "uint256",
          "name": "theMinimumContribution",
          "type": "uint256"
        }
      ],
      "name": "setMinimumContribution",
      "outputs": [],
      "stateMutability": "nonpayable",
      "type": "function"
    },
    {
      "inputs": [
        {
          "internalType": "uint256",
          "name": "theMaximumContribution",
          "type": "uint256"
        }
      ],
      "name": "setMaximumContribution",
      "outputs": [],
      "stateMutability": "nonpayable",
      "type": "function"
    },
    {
      "inputs": [],
      "name": "contributedAmount",
      "outputs": [
        {
          "internalType": "uint256",
          "name": "",
          "type": "uint256"
        }
      ],
      "stateMutability": "view",
      "type": "function"
    },
    {
      "inputs": [],
      "name": "tokenVestingStartTime",
      "outputs": [
        {
          "internalType": "uint256",
          "name": "",
          "type": "uint256"
        }
      ],
      "stateMutability": "view",
      "type": "function"
    },
    {
      "inputs": [],
      "name": "tokenVestingDuration",
      "outputs": [
        {
          "internalType": "uint256",
          "name": "",
          "type": "uint256"
        }
      ],
      "stateMutability": "view",
      "type": "function"
    },
    {
      "inputs": [],
      "name": "tokenVestingCliffDuration",
      "outputs": [
        {
          "internalType": "uint256",
          "name": "",
          "type": "uint256"
        }
      ],
      "stateMutability": "view",
      "type": "function"
    },
    {
      "inputs": [],
      "name": "tokenVestingCliff",
      "outputs": [
        {
          "internalType": "uint256",
          "name": "",
          "type": "uint256"
        }
      ],
      "stateMutability": "view",
      "type": "function"
    },
    {
      "inputs": [],
      "name": "tokensVestedReleased",
      "outputs": [
        {
          "internalType": "uint256",
          "name": "",
          "type": "uint256"
        }
      ],
      "stateMutability": "view",
      "type": "function"
    },
    {
      "inputs": [],
      "name": "tokensReleasableAmount",
      "outputs": [
        {
          "internalType": "uint256",
          "name": "",
          "type": "uint256"
        }
      ],
      "stateMutability": "view",
      "type": "function"
    },
    {
      "inputs": [],
      "name": "tokensVestedAmount",
      "outputs": [
        {
          "internalType": "uint256",
          "name": "",
          "type": "uint256"
        }
      ],
      "stateMutability": "view",
      "type": "function"
    },
    {
      "inputs": [],
      "name": "getTokenVesting",
      "outputs": [
        {
          "internalType": "contract TokenVesting",
          "name": "",
          "type": "address"
        }
      ],
      "stateMutability": "view",
      "type": "function"
    },
    {
      "inputs": [],
      "name": "setTokenVesting",
      "outputs": [],
      "stateMutability": "nonpayable",
      "type": "function"
    },
    {
      "inputs": [],
      "name": "releaseTokenVested",
      "outputs": [],
      "stateMutability": "nonpayable",
      "type": "function"
    }
  ],
  "bytecode": "0x60806040523480156200001157600080fd5b5060405162002cd138038062002cd18339810160408190526200003491620005ce565b60016000558b8b8b826200008f5760405162461bcd60e51b815260206004820152601460248201527f43726f776473616c653a2072617465206973203000000000000000000000000060448201526064015b60405180910390fd5b6001600160a01b038216620000f55760405162461bcd60e51b815260206004820152602560248201527f43726f776473616c653a2077616c6c657420697320746865207a65726f206164604482015264647265737360d81b606482015260840162000086565b6001600160a01b038116620001595760405162461bcd60e51b8152602060048201526024808201527f43726f776473616c653a20746f6b656e20697320746865207a65726f206164646044820152637265737360e01b606482015260840162000086565b600392909255600280546001600160a01b039283166001600160a01b0319918216179091556001805492909316911617905562000196336200054e565b60008811620001dd5760405162461bcd60e51b8152602060048201526012602482015271043726f776473616c652063617020697320360741b604482015260640162000086565b428710156200023b5760405162461bcd60e51b815260206004820152602360248201527f4f70656e696e672074696d65206973206265666f72652063757272656e742074604482015262696d6560e81b606482015260840162000086565b8686116200029c5760405162461bcd60e51b815260206004820152602760248201527f4f70656e696e672074696d65206973206e6f74206265666f726520636c6f73696044820152666e672074696d6560c81b606482015260840162000086565b83851115620003245760405162461bcd60e51b815260206004820152604760248201527f4d696e696d756d20636f6e747269627574696f6e206d757374206265206c657360448201527f73207468616e206f7220657175616c20746f206d6178696d756d20636f6e747260648201526634b13aba34b7b760c91b608482015260a40162000086565b808211156200038a5760405162461bcd60e51b815260206004820152602b60248201527f546f6b656e2076657374696e6720636c696666206973206c6f6e67657220746860448201526a30b710323ab930ba34b7b760a91b606482015260840162000086565b60008111620003dc5760405162461bcd60e51b815260206004820152601b60248201527f546f6b656e2076657374696e67206475726174696f6e20697320300000000000604482015260640162000086565b42620003f78285620005a060201b62000c3e1790919060201c565b11620004585760405162461bcd60e51b815260206004820152602960248201527f46696e616c2076657374696e672074696d65206973206265666f72652063757260448201526872656e742074696d6560b81b606482015260840162000086565b6001600160a01b038916620004b05760405162461bcd60e51b815260206004820181905260248201527f546f6b656e2077616c6c657420697320746865207a65726f2061646472657373604482015260640162000086565b600a859055600b849055600788905560088790556009869055600680546001600160a01b0319166001600160a01b038b161790556040805160808101825284815260208082018590529181018390529060608201906200051d9086908690620005a0811b62000c3e17901c565b90528051600e556020810151600f5560408101516010556060015160115550620006a39a5050505050505050505050565b600580546001600160a01b038381166001600160a01b0319831681179093556040519116919082907f8be0079c531659141344cd1fd0a4f28419497f9722a3daafe3b4186f6b6457e090600090a35050565b6000620005ae82846200067c565b9392505050565b6001600160a01b0381168114620005cb57600080fd5b50565b6000806000806000806000806000806000806101808d8f031215620005f257600080fd5b8c519b5060208d01516200060681620005b5565b60408e0151909b506200061981620005b5565b60608e0151909a506200062c81620005b5565b8099505060808d0151975060a08d0151965060c08d0151955060e08d015194506101008d015193506101208d015192506101408d015191506101608d015190509295989b509295989b509295989b565b600082198211156200069e57634e487b7160e01b600052601160045260246000fd5b500190565b61261e80620006b36000396000f3fe608060405260043610620002175760003560e01c8063928fd651116200011b578063bf58390311620000a3578063dba3e704116200006d578063dba3e7041462000557578063ec8ac4d8146200057c578063f2fde38b146200058d578063fc0c546a14620005b25762000230565b8063bf58390314620004e4578063bff99c6c14620004fc578063d6bead84146200051c578063db1a6eaa14620005335762000230565b8063a27aebbc11620000e5578063a27aebbc1462000479578063a495a73a146200049e578063b3c0e75114620004b5578063b7a8807c14620004cd5762000230565b8063928fd651146200041c578063937e09b1146200043357806398b4d8ae146200044a5780639c2fcd4514620004625762000230565b80634b6753bc116200019f578063715018a61162000169578063715018a614620003a05780637217236414620003b85780638391c87c14620003e55780638da5cb5b14620003fc5762000230565b80634b6753bc14620003185780634f935945146200032f578063521eb27314620003475780635cc0c9a7146200037b5762000230565b8063355274ea11620001e1578063355274ea14620002ba57806337afd3d614620002d15780634042b66f14620002e957806347535d7b14620003005762000230565b80631515bc2b146200023b5780631efe445c1462000264578063293d670d146200028b5780632c4e722e14620002a35762000230565b3662000230576200022e33620005d2565b620005d2565b005b6200022e33620005d2565b3480156200024857600080fd5b5060095442115b60405190151581526020015b60405180910390f35b3480156200027157600080fd5b506200027c620006d1565b6040519081526020016200025b565b3480156200029857600080fd5b506200022e620007bc565b348015620002b057600080fd5b506003546200027c565b348015620002c757600080fd5b506007546200027c565b348015620002de57600080fd5b506200022e62000884565b348015620002f657600080fd5b506004546200027c565b3480156200030d57600080fd5b506200024f62000890565b3480156200032557600080fd5b506009546200027c565b3480156200033c57600080fd5b506200024f620008ac565b3480156200035457600080fd5b506002546001600160a01b03165b6040516001600160a01b0390911681526020016200025b565b3480156200038857600080fd5b506200022e6200039a366004620014d1565b620008c2565b348015620003ad57600080fd5b506200022e620008f4565b348015620003c557600080fd5b50336000908152600d60205260409020546001600160a01b031662000362565b348015620003f257600080fd5b506010546200027c565b3480156200040957600080fd5b506005546001600160a01b031662000362565b3480156200042957600080fd5b50600e546200027c565b3480156200044057600080fd5b50600a546200027c565b3480156200045757600080fd5b506200027c6200092d565b3480156200046f57600080fd5b50600b546200027c565b3480156200048657600080fd5b506200022e62000498366004620014d1565b62000997565b348015620004ab57600080fd5b506011546200027c565b348015620004c257600080fd5b506200027c620009d2565b348015620004da57600080fd5b506008546200027c565b348015620004f157600080fd5b506200027c62000a3c565b3480156200050957600080fd5b506006546001600160a01b031662000362565b3480156200052957600080fd5b50600f546200027c565b3480156200054057600080fd5b50336000908152600c60205260409020546200027c565b3480156200056457600080fd5b506200022e62000576366004620014d1565b62000b6d565b6200022e62000228366004620014eb565b3480156200059a57600080fd5b506200022e620005ac366004620014eb565b62000b9f565b348015620005bf57600080fd5b506001546001600160a01b031662000362565b600260005414156200062b5760405162461bcd60e51b815260206004820152601f60248201527f5265656e7472616e637947756172643a207265656e7472616e742063616c6c0060448201526064015b60405180910390fd5b6002600055346200063d828262000c53565b60006200064a8262000d95565b6004549091506200065c908362000c3e565b6004556200066b838262000db4565b60408051838152602081018390526001600160a01b0385169133917f6faf93231a456e552dbc9961f58d9713ee4f2e69d15f1975b050ef0911053a7b910160405180910390a3620006bd838362000dc4565b620006c762000df0565b5050600160005550565b336000908152600d60205260408120546001600160a01b0316620007095760405162461bcd60e51b8152600401620006229062001516565b336000908152600d60205260409020546001600160a01b03168063384711cc6200073b6001546001600160a01b031690565b6040516001600160e01b031960e084901b1681526001600160a01b03909116600482015260240160206040518083038186803b1580156200077b57600080fd5b505afa15801562000790573d6000803e3d6000fd5b505050506040513d601f19601f82011682018060405250810190620007b691906200154d565b91505090565b336000908152600d60205260409020546001600160a01b0316620007f45760405162461bcd60e51b8152600401620006229062001516565b336000908152600d60205260409020546001600160a01b0316806319165587620008266001546001600160a01b031690565b6040516001600160e01b031960e084901b1681526001600160a01b039091166004820152602401600060405180830381600087803b1580156200086857600080fd5b505af11580156200087d573d6000803e3d6000fd5b5050505050565b6200088e62000e2a565b565b60006008544210158015620008a757506009544211155b905090565b6000600754620008bb60045490565b1015905090565b6005546001600160a01b03163314620008ef5760405162461bcd60e51b8152600401620006229062001567565b600b55565b6005546001600160a01b03163314620009215760405162461bcd60e51b8152600401620006229062001567565b6200088e600062000f31565b336000908152600d60205260408120546001600160a01b0316620009655760405162461bcd60e51b8152600401620006229062001516565b336000908152600d60205260409020546001600160a01b031680631726cbc86200073b6001546001600160a01b031690565b6005546001600160a01b03163314620009c45760405162461bcd60e51b8152600401620006229062001567565b620009cf8162000f83565b50565b336000908152600d60205260408120546001600160a01b031662000a0a5760405162461bcd60e51b8152600401620006229062001516565b336000908152600d60205260409020546001600160a01b031680639852595c6200073b6001546001600160a01b031690565b6000620008a762000a556001546001600160a01b031690565b6006546040516370a0823160e01b81526001600160a01b0391821660048201529116906370a082319060240160206040518083038186803b15801562000a9a57600080fd5b505afa15801562000aaf573d6000803e3d6000fd5b505050506040513d601f19601f8201168201806040525081019062000ad591906200154d565b6001546001600160a01b0316600654604051636eb1769f60e11b81526001600160a01b03918216600482015230602482015291169063dd62ed3e9060440160206040518083038186803b15801562000b2c57600080fd5b505afa15801562000b41573d6000803e3d6000fd5b505050506040513d601f19601f8201168201806040525081019062000b6791906200154d565b62001083565b6005546001600160a01b0316331462000b9a5760405162461bcd60e51b8152600401620006229062001567565b600a55565b6005546001600160a01b0316331462000bcc5760405162461bcd60e51b8152600401620006229062001567565b6001600160a01b03811662000c335760405162461bcd60e51b815260206004820152602660248201527f4f776e61626c653a206e6577206f776e657220697320746865207a65726f206160448201526564647265737360d01b606482015260840162000622565b620009cf8162000f31565b600062000c4c8284620015b2565b9392505050565b62000c5d62000890565b62000ca05760405162461bcd60e51b815260206004820152601260248201527121b937bbb239b0b632903737ba1037b832b760711b604482015260640162000622565b62000cac82826200109b565b60075462000cc58262000cbe60045490565b9062000c3e565b111562000d045760405162461bcd60e51b815260206004820152600c60248201526b10d85c08195e18d95959195960a21b604482015260640162000622565b600062000d12838362001155565b9050600a54811015801562000d295750600b548111155b62000d905760405162461bcd60e51b815260206004820152603060248201527f436f6e747269627574696f6e206d757374206265206265747765656e206d696e60448201526f696d756d20616e64206d6178696d756d60801b606482015260840162000622565b505050565b600062000dae600354836200118490919063ffffffff16565b92915050565b62000dc0828262001192565b5050565b62000dd0828262001155565b6001600160a01b039092166000908152600c602052604090209190915550565b6002546040516001600160a01b03909116903480156108fc02916000818181858888f19350505050158015620009cf573d6000803e3d6000fd5b336000908152600d60205260409020546001600160a01b03161562000e925760405162461bcd60e51b815260206004820152601960248201527f546f6b656e2076657374696e6720616c72656164792073657400000000000000604482015260640162000622565b600033600e60000154600e60010154600e60020154600060405162000eb790620014c3565b6001600160a01b0390951685526020850193909352604084019190915260608301521515608082015260a001604051809103906000f08015801562000f00573d6000803e3d6000fd5b50336000908152600d6020526040902080546001600160a01b0319166001600160a01b039290921691909117905550565b600580546001600160a01b038381166001600160a01b0319831681179093556040519116919082907f8be0079c531659141344cd1fd0a4f28419497f9722a3daafe3b4186f6b6457e090600090a35050565b60095442111562000fd75760405162461bcd60e51b815260206004820152601860248201527f43726f776473616c6520616c726561647920636c6f7365640000000000000000604482015260640162000622565b6009548111620010425760405162461bcd60e51b815260206004820152602f60248201527f4e657720636c6f73696e672074696d65206973206265666f726520637572726560448201526e6e7420636c6f73696e672074696d6560881b606482015260840162000622565b60095460408051918252602082018390527f46711e222f558a07afd26e5e71b48ecb0a8b2cdcd40faeb1323e05e2c76a2f32910160405180910390a1600955565b600081831062001094578162000c4c565b5090919050565b6001600160a01b038216620011065760405162461bcd60e51b815260206004820152602a60248201527f43726f776473616c653a2062656e656669636961727920697320746865207a65604482015269726f206164647265737360b01b606482015260840162000622565b8062000dc05760405162461bcd60e51b815260206004820152601960248201527f43726f776473616c653a20776569416d6f756e74206973203000000000000000604482015260640162000622565b6001600160a01b0382166000908152600c6020526040812054816200117b828562000c3e565b95945050505050565b600062000c4c8284620015cd565b6001600160a01b038281166000908152600d602052604090205416620011bc57620011bc62000e2a565b6001600160a01b038083166000908152600d60205260409020546006549082169162000d9091168284620011f86001546001600160a01b031690565b604080516001600160a01b038681166024830152858116604483015260648083018690528351808403909101815260849092019092526020810180516001600160e01b03166323b872dd60e01b1790529116939291906200125b90859062001261565b50505050565b6000620012b8826040518060400160405280602081526020017f5361666545524332303a206c6f772d6c6576656c2063616c6c206661696c6564815250856001600160a01b03166200133a9092919063ffffffff16565b80519091501562000d905780806020019051810190620012d99190620015ef565b62000d905760405162461bcd60e51b815260206004820152602a60248201527f5361666545524332303a204552433230206f7065726174696f6e20646964206e6044820152691bdd081cdd58d8d9595960b21b606482015260840162000622565b60606200134b848460008562001353565b949350505050565b606082471015620013b65760405162461bcd60e51b815260206004820152602660248201527f416464726573733a20696e73756666696369656e742062616c616e636520666f6044820152651c8818d85b1b60d21b606482015260840162000622565b843b620014065760405162461bcd60e51b815260206004820152601d60248201527f416464726573733a2063616c6c20746f206e6f6e2d636f6e7472616374000000604482015260640162000622565b600080866001600160a01b0316858760405162001424919062001642565b60006040518083038185875af1925050503d806000811462001463576040519150601f19603f3d011682016040523d82523d6000602084013e62001468565b606091505b50915091506200147a82828662001485565b979650505050505050565b606083156200149657508162000c4c565b825115620014a75782518084602001fd5b8160405162461bcd60e51b815260040162000622919062001660565b610f53806200169683390190565b600060208284031215620014e457600080fd5b5035919050565b600060208284031215620014fe57600080fd5b81356001600160a01b038116811462000c4c57600080fd5b60208082526019908201527f546f6b656e2076657374696e67206e6f74207365742079657400000000000000604082015260600190565b6000602082840312156200156057600080fd5b5051919050565b6020808252818101527f4f776e61626c653a2063616c6c6572206973206e6f7420746865206f776e6572604082015260600190565b634e487b7160e01b600052601160045260246000fd5b60008219821115620015c857620015c86200159c565b500190565b6000816000190483118215151615620015ea57620015ea6200159c565b500290565b6000602082840312156200160257600080fd5b8151801515811462000c4c57600080fd5b60005b838110156200163057818101518382015260200162001616565b838111156200125b5750506000910152565b600082516200165681846020870162001613565b9190910192915050565b60208152600082518060208401526200168181604085016020870162001613565b601f01601f1916919091016040019291505056fe60806040523480156200001157600080fd5b5060405162000f5338038062000f538339810160408190526200003491620002a6565b6200003f3362000241565b6001600160a01b038516620000b15760405162461bcd60e51b815260206004820152602d60248201527f546f6b656e56657374696e673a2062656e65666963696172792069732074686560448201526c207a65726f206164647265737360981b60648201526084015b60405180910390fd5b81831115620001175760405162461bcd60e51b815260206004820152602b60248201527f546f6b656e56657374696e673a20636c696666206973206c6f6e67657220746860448201526a30b710323ab930ba34b7b760a91b6064820152608401620000a8565b60008211620001695760405162461bcd60e51b815260206004820152601b60248201527f546f6b656e56657374696e673a206475726174696f6e206973203000000000006044820152606401620000a8565b426200018483866200029160201b620006181790919060201c565b11620001eb5760405162461bcd60e51b815260206004820152602f60248201527f546f6b656e56657374696e673a2066696e616c2074696d65206973206265666f60448201526e72652063757272656e742074696d6560881b6064820152608401620000a8565b600180546001600160a01b0319166001600160a01b0387161790556005805460ff1916821515179055600482905562000231848462000291602090811b6200061817901c565b6002555050506003555062000339565b600080546001600160a01b038381166001600160a01b0319831681178455604051919092169283917f8be0079c531659141344cd1fd0a4f28419497f9722a3daafe3b4186f6b6457e09190a35050565b60006200029f828462000312565b9392505050565b600080600080600060a08688031215620002bf57600080fd5b85516001600160a01b0381168114620002d757600080fd5b80955050602086015193506040860151925060608601519150608086015180151581146200030457600080fd5b809150509295509295909350565b600082198211156200033457634e487b7160e01b600052601160045260246000fd5b500190565b610c0a80620003496000396000f3fe608060405234801561001057600080fd5b50600436106100ea5760003560e01c806374a8f1031161008c5780639852595c116100665780639852595c146101b1578063be9a6555146101da578063f2fde38b146101e2578063fa01dc06146101f557600080fd5b806374a8f10314610176578063872a7810146101895780638da5cb5b146101a057600080fd5b806319165587116100c85780631916558714610121578063384711cc1461013657806338af3eed14610149578063715018a61461016e57600080fd5b80630fb5a6b4146100ef57806313d033c0146101065780631726cbc81461010e575b600080fd5b6004545b6040519081526020015b60405180910390f35b6002546100f3565b6100f361011c366004610a42565b610221565b61013461012f366004610a42565b610232565b005b6100f3610144366004610a42565b610329565b6001546001600160a01b03165b6040516001600160a01b0390911681526020016100fd565b610134610334565b610134610184366004610a42565b61036a565b60055460ff165b60405190151581526020016100fd565b6000546001600160a01b0316610156565b6100f36101bf366004610a42565b6001600160a01b031660009081526006602052604090205490565b6003546100f3565b6101346101f0366004610a42565b61057d565b610190610203366004610a42565b6001600160a01b031660009081526007602052604090205460ff1690565b600061022c8261062b565b92915050565b600061023d8261062b565b9050600081116102945760405162461bcd60e51b815260206004820152601f60248201527f546f6b656e56657374696e673a206e6f20746f6b656e7320617265206475650060448201526064015b60405180910390fd5b6001600160a01b0382166000908152600660205260409020546102b79082610618565b6001600160a01b038084166000818152600660205260409020929092556001546102e392911683610657565b604080516001600160a01b0384168152602081018390527fc7798891864187665ac6dd119286e44ec13f014527aeeb2b8eb3fd413df93179910160405180910390a15050565b600061022c826106ae565b6000546001600160a01b0316331461035e5760405162461bcd60e51b815260040161028b90610a5f565b61036860006107dc565b565b6000546001600160a01b031633146103945760405162461bcd60e51b815260040161028b90610a5f565b60055460ff166103e65760405162461bcd60e51b815260206004820152601b60248201527f546f6b656e56657374696e673a2063616e6e6f74207265766f6b650000000000604482015260640161028b565b6001600160a01b03811660009081526007602052604090205460ff161561045b5760405162461bcd60e51b815260206004820152602360248201527f546f6b656e56657374696e673a20746f6b656e20616c7265616479207265766f6044820152621ad95960ea1b606482015260840161028b565b6040516370a0823160e01b81523060048201526000906001600160a01b038316906370a082319060240160206040518083038186803b15801561049d57600080fd5b505afa1580156104b1573d6000803e3d6000fd5b505050506040513d601f19601f820116820180604052508101906104d59190610a94565b905060006104e28361062b565b905060006104f0838361082c565b6001600160a01b0385166000908152600760205260409020805460ff19166001179055905061053b61052a6000546001600160a01b031690565b6001600160a01b0386169083610657565b6040516001600160a01b03851681527f39983c6d4d174a7aee564f449d4a5c3c7ac9649d72b7793c56901183996f8af69060200160405180910390a150505050565b6000546001600160a01b031633146105a75760405162461bcd60e51b815260040161028b90610a5f565b6001600160a01b03811661060c5760405162461bcd60e51b815260206004820152602660248201527f4f776e61626c653a206e6577206f776e657220697320746865207a65726f206160448201526564647265737360d01b606482015260840161028b565b610615816107dc565b50565b60006106248284610ac3565b9392505050565b6001600160a01b03811660009081526006602052604081205461022c90610651846106ae565b9061082c565b604080516001600160a01b038416602482015260448082018490528251808303909101815260649091019091526020810180516001600160e01b031663a9059cbb60e01b1790526106a9908490610838565b505050565b6040516370a0823160e01b815230600482015260009081906001600160a01b038416906370a082319060240160206040518083038186803b1580156106f257600080fd5b505afa158015610706573d6000803e3d6000fd5b505050506040513d601f19601f8201168201806040525081019061072a9190610a94565b6001600160a01b03841660009081526006602052604081205491925090610752908390610618565b9050600254421015610768575060009392505050565b60045460035461077791610618565b4210158061079d57506001600160a01b03841660009081526007602052604090205460ff165b156107a9579392505050565b6107d46004546107ce6107c76003544261082c90919063ffffffff16565b849061090a565b90610916565b949350505050565b600080546001600160a01b038381166001600160a01b0319831681178455604051919092169283917f8be0079c531659141344cd1fd0a4f28419497f9722a3daafe3b4186f6b6457e09190a35050565b60006106248284610adb565b600061088d826040518060400160405280602081526020017f5361666545524332303a206c6f772d6c6576656c2063616c6c206661696c6564815250856001600160a01b03166109229092919063ffffffff16565b8051909150156106a957808060200190518101906108ab9190610af2565b6106a95760405162461bcd60e51b815260206004820152602a60248201527f5361666545524332303a204552433230206f7065726174696f6e20646964206e6044820152691bdd081cdd58d8d9595960b21b606482015260840161028b565b60006106248284610b14565b60006106248284610b33565b60606107d4848460008585843b61097b5760405162461bcd60e51b815260206004820152601d60248201527f416464726573733a2063616c6c20746f206e6f6e2d636f6e7472616374000000604482015260640161028b565b600080866001600160a01b031685876040516109979190610b85565b60006040518083038185875af1925050503d80600081146109d4576040519150601f19603f3d011682016040523d82523d6000602084013e6109d9565b606091505b50915091506109e98282866109f4565b979650505050505050565b60608315610a03575081610624565b825115610a135782518084602001fd5b8160405162461bcd60e51b815260040161028b9190610ba1565b6001600160a01b038116811461061557600080fd5b600060208284031215610a5457600080fd5b813561062481610a2d565b6020808252818101527f4f776e61626c653a2063616c6c6572206973206e6f7420746865206f776e6572604082015260600190565b600060208284031215610aa657600080fd5b5051919050565b634e487b7160e01b600052601160045260246000fd5b60008219821115610ad657610ad6610aad565b500190565b600082821015610aed57610aed610aad565b500390565b600060208284031215610b0457600080fd5b8151801515811461062457600080fd5b6000816000190483118215151615610b2e57610b2e610aad565b500290565b600082610b5057634e487b7160e01b600052601260045260246000fd5b500490565b60005b83811015610b70578181015183820152602001610b58565b83811115610b7f576000848401525b50505050565b60008251610b97818460208701610b55565b9190910192915050565b6020815260008251806020840152610bc0816040850160208701610b55565b601f01601f1916919091016040019291505056fea2646970667358221220d5b41951608377c5c176efe2110f546c3e7cb46be084ac4922fd0713a2543b2964736f6c63430008090033a2646970667358221220bd285399f54ecada883f3303d20c03c26693dab9267ef2f296b640741eb82c0f64736f6c63430008090033",
  "immutableReferences": {},
  "source": "// SPDX-License-Identifier: MIT\npragma solidity  ^0.8.0;\n\nimport \"@openzeppelin/contracts/utils/math/SafeMath.sol\";\nimport \"@openzeppelin/contracts/utils/math/Math.sol\";\nimport \"@openzeppelin/contracts/access/Ownable.sol\";\nimport \"@openzeppelin/contracts/token/ERC20/IERC20.sol\";\nimport \"@openzeppelin/contracts/token/ERC20/utils/SafeERC20.sol\";\nimport \"./crowdsale/Crowdsale.sol\";\nimport \"./utils/TokenVesting.sol\";\n\ncontract Presale is Crowdsale, Ownable {\n    using SafeMath for uint256;\n    using SafeERC20 for IERC20;\n\n    // The Token wallet\n    address private _tokenWallet;\n\n    // Cap\n    uint256 private _cap; // the cap for the crowdsale in wei\n\n    // Timed\n    uint256 private _openingTime; // the opening time of the crowdsale\n    uint256 private _closingTime; // the closing time of the crowdsale\n\n    // Investment Boundary\n    uint256 private _minimumContribution; // minimum contribution in wei\n    uint256 private _maximumContribution; // maximum contribution in wei\n    mapping(address => uint256) private contributions; // mapping of address to contribution in wei\n\n    //Token vesting account\n    mapping(address => TokenVesting) private vestings; // mapping of address to token vesting\n    struct TokenVestingConfig { \n        uint256  startTime;\n        uint256  cliffDuration;\n        uint256  duration;\n        uint256 cliff;\n    }\n    TokenVestingConfig private _tokenVestingConfig;\n\n    /**\n     * Event for crowdsale extending\n     * @param newClosingTime new closing time\n     * @param prevClosingTime old closing time\n     */\n    event TimedCrowdsaleExtended(uint256 prevClosingTime, uint256 newClosingTime);\n\n    /**\n     * @dev Reverts if not in crowdsale time range.\n     */\n    modifier onlyWhileOpen {\n        require(isOpen(), \"Crowdsale not open\");\n        _;\n    }\n\n    constructor(\n        uint256 rate,            // rate, in TKNbits\n        address payable wallet,  // wallet to send Ether\n        IERC20 token,            // the token\n        address theTokenWallet, // The wallet to send the tokens from\n        uint256 theCap,             // total cap, in wei\n        uint256 theOpeningTime,     // opening time in unix epoch seconds\n        uint256 theClosingTime,      // closing time in unix epoch seconds\n        uint256 theMinimumContribution, // minimum contribution in wei\n        uint256 theMaximumContribution, // maximum contribution in wei\n        uint256 theTokenVestingStartTime, // token vesting start time in unix epoch seconds\n        uint256 theTokenVestingCliffDuration, // token vesting cliff duration in seconds\n        uint256 theTokenVestingDuration // token vesting duration in seconds\n    )\n        Crowdsale(rate, wallet, token)\n    {\n        require(theCap > 0, \"Crowdsale cap is 0\");\n        // solhint-disable-next-line not-rely-on-time\n        require(theOpeningTime >= block.timestamp, \"Opening time is before current time\");\n        // solhint-disable-next-line max-line-length\n        require(theClosingTime > theOpeningTime, \"Opening time is not before closing time\");\n        // solhint-disable-next-line max-line-length\n        require(theMinimumContribution <= theMaximumContribution, \"Minimum contribution must be less than or equal to maximum contribution\");\n        require(theTokenVestingCliffDuration <= theTokenVestingDuration, \"Token vesting cliff is longer than duration\");\n        require(theTokenVestingDuration > 0, \"Token vesting duration is 0\");\n        require(theTokenVestingStartTime.add(theTokenVestingDuration) > block.timestamp, \"Final vesting time is before current time\");\n        require(theTokenWallet != address(0), \"Token wallet is the zero address\");\n        _minimumContribution = theMinimumContribution;\n        _maximumContribution = theMaximumContribution;\n        _cap = theCap;\n        _openingTime = theOpeningTime;\n        _closingTime = theClosingTime;\n        _tokenWallet = theTokenWallet;\n        _tokenVestingConfig = TokenVestingConfig(\n            theTokenVestingStartTime,\n            theTokenVestingCliffDuration, \n            theTokenVestingDuration,\n            theTokenVestingStartTime.add(theTokenVestingCliffDuration)\n        );\n    }\n\n    //Timed\n\n    /**\n     * @dev Returns the opening time of the crowdsale.\n     * @return the crowdsale opening time.\n     */\n    function openingTime() public view returns (uint256) {\n        return _openingTime;\n    }\n\n    /**\n     * @dev Returns the crowdsale closing time.\n     * @return the crowdsale closing time.\n     */\n    function closingTime() public view returns (uint256) {\n        return _closingTime;\n    }\n\n    /**\n     * @dev Returns true if the crowdsale is open.\n     * @return true if the crowdsale is open, false otherwise.\n     */\n    function isOpen() public view returns (bool) {\n        // solhint-disable-next-line not-rely-on-time\n        return block.timestamp >= _openingTime && block.timestamp <= _closingTime;\n    }\n\n     /**\n     * @dev Checks whether the period in which the crowdsale is open has already elapsed.\n     * @return Whether crowdsale period has elapsed\n     */\n    function hasClosed() public view returns (bool) {\n        // solhint-disable-next-line not-rely-on-time\n        return block.timestamp > _closingTime;\n    }\n\n    /**\n     * @dev Extends the time of the crowdsale.\n     * @param newClosingTime The new closing time.\n     */\n    function extendTime(uint256 newClosingTime) public onlyOwner {\n        _extendTime(newClosingTime);\n    }\n\n    //Cappped\n\n    /**\n     * @dev Returns the cap of the crowdsale.\n     * @return the cap of the crowdsale.\n     */\n    function cap() public view returns (uint256) {\n        return _cap;\n    }\n\n    /**\n     * @dev Checks whether the cap has been reached.\n     * @return Whether the cap was reached\n     */\n    function capReached() public view returns (bool) {\n        return weiRaised() >= _cap;\n    }\n\n    // TOKEN WALLET\n\n    /**\n     * @return the address of the wallet that will hold the tokens.\n     */\n    function tokenWallet() public view returns (address) {\n        return _tokenWallet;\n    }\n\n    /**\n     * @dev Checks the amount of tokens left in the allowance.\n     * @return Amount of tokens left in the allowance\n     */\n    function remainingTokens() public view returns (uint256) {\n        return Math.min(token().balanceOf(_tokenWallet), token().allowance(_tokenWallet, address(this)));\n    }\n\n    // INVESTMENT BOUNDARY\n\n    /**\n     * @dev Gets the minimum contribution in wei\n     * @return The minimum contribution in wei\n     */\n    function minimumContribution() public view returns (uint256) {\n        return _minimumContribution;\n    }\n\n    /**\n     * @dev Gets the maximum contribution in wei\n     * @return The maximum contribution in wei\n     */\n    function maximumContribution() public view returns (uint256) {\n        return _maximumContribution;\n    }\n\n    /**\n     * @dev Sets the minimum contribution.\n     * @param theMinimumContribution The minimum contribution in wei.\n     */\n    function setMinimumContribution(uint256 theMinimumContribution) public onlyOwner {\n        _minimumContribution = theMinimumContribution;\n    }\n\n    /**\n     * @dev Sets the maximum contribution.\n     * @param theMaximumContribution The maximum contribution in wei.\n     */\n    function setMaximumContribution(uint256 theMaximumContribution) public onlyOwner {\n        _maximumContribution = theMaximumContribution;\n    }\n\n    /**\n     * @dev Extend parent behavior requiring purchase to respect the funding cap.\n     * @param beneficiary Token purchaser\n     * @param weiAmount Amount of wei contributed\n     */\n    function _preValidatePurchase(address beneficiary, uint256 weiAmount) internal override onlyWhileOpen view {\n        super._preValidatePurchase(beneficiary, weiAmount);\n        require(weiRaised().add(weiAmount) <= _cap, \"Cap exceeded\");\n        uint256 _totalContibutorContribution = _getTotalContibutorContribution(beneficiary, weiAmount);\n        // solhint-disable-next-line max-line-length\n        require(_totalContibutorContribution >= _minimumContribution && _totalContibutorContribution <= _maximumContribution, \"Contribution must be between minimum and maximum\");\n    }\n\n    /**\n     * @dev Extend current user contributions\n     * @param beneficiary Address receiving the tokens\n     * @param weiAmount Value in wei involved in the purchase\n     */\n    function _updatePurchasingState(address beneficiary, uint256 weiAmount) override internal {\n        contributions[beneficiary] = _getTotalContibutorContribution(beneficiary, weiAmount);\n    }\n\n    /**\n     * @dev Extend parent behavior to reset user contributions\n     * @param beneficiary Address receiving the tokens\n     * @param weiAmount Value in wei involved in the purchase\n     */\n    function _getTotalContibutorContribution(address beneficiary, uint256 weiAmount) internal  view returns (uint256) {\n        uint256 _existingContribution = contributions[beneficiary];\n        uint256 _totalContibutorContribution = _existingContribution.add(weiAmount);\n        return _totalContibutorContribution;\n    }\n\n    /**\n     * @dev Get the amount contributed by a user\n     */\n\n    function contributedAmount () public view returns (uint256) {\n        return contributions[msg.sender];\n    }\n\n    // Token Vesting\n\n    modifier onlyWhenTokenVestingIsSet {\n        require(address(vestings[msg.sender]) != address(0), \"Token vesting not set yet\");\n        _;\n     }\n    \n    /**\n    * @dev Returns the token vesting start time.\n    * @return the token vesting start time.\n    */\n     function tokenVestingStartTime() public view returns (uint256) {\n        return _tokenVestingConfig.startTime;\n     }\n\n    /**\n    * @dev Returns the token vesting duration.\n    * @return the token vesting duration.\n    */\n     function tokenVestingDuration() public view returns (uint256) {\n        return _tokenVestingConfig.duration;\n     }\n\n    /**\n    * @dev Returns the token vesting cliff duration.\n    * @return the token vesting cliff duration.\n    */\n     function tokenVestingCliffDuration() public view returns (uint256) {\n        return _tokenVestingConfig.cliffDuration;\n     }\n\n      /**\n    * @dev Returns the token vesting cliff time.\n    * @return the token vesting cliff time.\n    */\n     function tokenVestingCliff() public view returns (uint256) {\n        return _tokenVestingConfig.cliff;\n     }\n\n    /**\n    * @dev Returns the amount tokens vested that has been released in wei.\n    * @return the amount tokens vested that has been released in wei.\n    */\n     function tokensVestedReleased() public view onlyWhenTokenVestingIsSet returns (uint256) {\n        TokenVesting vesting = TokenVesting(vestings[msg.sender]);\n        return vesting.released(address(token()));\n     }\n\n    /**\n    * @dev Returns the amount tokens vested that can be released in wei.\n    * @return the amount tokens vested that can be released in wei.\n    */\n     function tokensReleasableAmount () public view onlyWhenTokenVestingIsSet returns (uint256) {\n        TokenVesting vesting = TokenVesting(vestings[msg.sender]);\n        return vesting.releasableAmount(token());\n     }\n\n    /**\n    * @dev Returns the amount tokens vested in wei.\n    * @return the amount tokens vested in wei.\n    */\n     function tokensVestedAmount() public view onlyWhenTokenVestingIsSet returns (uint256) {\n        TokenVesting vesting = TokenVesting(vestings[msg.sender]);\n        return vesting.vestedAmount(token());\n     }\n\n    /**\n     * @dev Get the Token vesting contract of the user\n     */\n    function getTokenVesting() public view returns (TokenVesting) {\n        return vestings[msg.sender];\n    }\n\n    /**\n     * @dev Set the Token vesting contract of the user\n     */\n    function setTokenVesting() public  {\n        _setTokenVesting();\n    }\n\n    /**\n     * @dev Released the token vested by the user\n     */\n    function releaseTokenVested() public onlyWhenTokenVestingIsSet {\n        TokenVesting vesting = TokenVesting(vestings[msg.sender]);\n        vesting.release(token());\n    }\n\n    /**\n     * @dev Set the Token vesting contract of the user\n     */\n    function _setTokenVesting() internal  {\n        require(address(vestings[msg.sender]) == address(0), \"Token vesting already set\");\n        TokenVesting vesting = new TokenVesting(\n            msg.sender,\n             _tokenVestingConfig.startTime,\n            _tokenVestingConfig.cliffDuration,\n            _tokenVestingConfig.duration,\n            false\n            );\n        vestings[msg.sender] = vesting;\n    }\n\n    /**\n     * @dev Source of tokens. Override this method to modify the way in which the crowdsale ultimately gets and sends\n     * its tokens.\n     * Transfer tokens to the user Token vesting contract\n     * @param beneficiary Address performing the token purchase\n     * @param tokenAmount Number of tokens to be emitted\n     */\n    function _deliverTokens(address beneficiary, uint256 tokenAmount) internal override(Crowdsale) {\n        if (address(vestings[beneficiary]) == address(0)) {\n            _setTokenVesting();\n        }\n        TokenVesting vesting = TokenVesting(vestings[beneficiary]);\n        token().safeTransferFrom(_tokenWallet, address(vesting), tokenAmount);\n    }\n\n    /**\n     * @dev Extend crowdsale.\n     * @param newClosingTime Crowdsale closing time\n     */\n    function _extendTime(uint256 newClosingTime) internal {\n        require(!hasClosed(), \"Crowdsale already closed\");\n        // solhint-disable-next-line max-line-length\n        require(newClosingTime > _closingTime, \"New closing time is before current closing time\");\n        emit TimedCrowdsaleExtended(_closingTime, newClosingTime);\n        _closingTime = newClosingTime;\n    }\n}",
  "sourcePath": "/home/light/relsify-token/contracts/Presale.sol",
  "compiler": {
    "name": "solc",
    "version": "0.8.9+commit.e5eed63a.Emscripten.clang"
  },
  "schemaVersion": "3.4.3",
  "updatedAt": "2021-11-20T13:51:52.399Z",
  "devdoc": {
    "events": {
      "TimedCrowdsaleExtended(uint256,uint256)": {
        "params": {
          "newClosingTime": "new closing time",
          "prevClosingTime": "old closing time"
        }
      }
    },
    "kind": "dev",
    "methods": {
      "buyTokens(address)": {
        "details": "low level token purchase ***DO NOT OVERRIDE*** This function has a non-reentrancy guard, so it shouldn't be called by another `nonReentrant` function.",
        "params": {
          "beneficiary": "Recipient of the token purchase"
        }
      },
      "cap()": {
        "details": "Returns the cap of the crowdsale.",
        "returns": {
          "_0": "the cap of the crowdsale."
        }
      },
      "capReached()": {
        "details": "Checks whether the cap has been reached.",
        "returns": {
          "_0": "Whether the cap was reached"
        }
      },
      "closingTime()": {
        "details": "Returns the crowdsale closing time.",
        "returns": {
          "_0": "the crowdsale closing time."
        }
      },
      "contributedAmount()": {
        "details": "Get the amount contributed by a user"
      },
      "extendTime(uint256)": {
        "details": "Extends the time of the crowdsale.",
        "params": {
          "newClosingTime": "The new closing time."
        }
      },
      "getTokenVesting()": {
        "details": "Get the Token vesting contract of the user"
      },
      "hasClosed()": {
        "details": "Checks whether the period in which the crowdsale is open has already elapsed.",
        "returns": {
          "_0": "Whether crowdsale period has elapsed"
        }
      },
      "isOpen()": {
        "details": "Returns true if the crowdsale is open.",
        "returns": {
          "_0": "true if the crowdsale is open, false otherwise."
        }
      },
      "maximumContribution()": {
        "details": "Gets the maximum contribution in wei",
        "returns": {
          "_0": "The maximum contribution in wei"
        }
      },
      "minimumContribution()": {
        "details": "Gets the minimum contribution in wei",
        "returns": {
          "_0": "The minimum contribution in wei"
        }
      },
      "openingTime()": {
        "details": "Returns the opening time of the crowdsale.",
        "returns": {
          "_0": "the crowdsale opening time."
        }
      },
      "owner()": {
        "details": "Returns the address of the current owner."
      },
      "rate()": {
        "returns": {
          "_0": "the number of token units a buyer gets per wei."
        }
      },
      "releaseTokenVested()": {
        "details": "Released the token vested by the user"
      },
      "remainingTokens()": {
        "details": "Checks the amount of tokens left in the allowance.",
        "returns": {
          "_0": "Amount of tokens left in the allowance"
        }
      },
      "renounceOwnership()": {
        "details": "Leaves the contract without owner. It will not be possible to call `onlyOwner` functions anymore. Can only be called by the current owner. NOTE: Renouncing ownership will leave the contract without an owner, thereby removing any functionality that is only available to the owner."
      },
      "setMaximumContribution(uint256)": {
        "details": "Sets the maximum contribution.",
        "params": {
          "theMaximumContribution": "The maximum contribution in wei."
        }
      },
      "setMinimumContribution(uint256)": {
        "details": "Sets the minimum contribution.",
        "params": {
          "theMinimumContribution": "The minimum contribution in wei."
        }
      },
      "setTokenVesting()": {
        "details": "Set the Token vesting contract of the user"
      },
      "token()": {
        "returns": {
          "_0": "the token being sold."
        }
      },
      "tokenVestingCliff()": {
        "details": "Returns the token vesting cliff time.",
        "returns": {
          "_0": "the token vesting cliff time."
        }
      },
      "tokenVestingCliffDuration()": {
        "details": "Returns the token vesting cliff duration.",
        "returns": {
          "_0": "the token vesting cliff duration."
        }
      },
      "tokenVestingDuration()": {
        "details": "Returns the token vesting duration.",
        "returns": {
          "_0": "the token vesting duration."
        }
      },
      "tokenVestingStartTime()": {
        "details": "Returns the token vesting start time.",
        "returns": {
          "_0": "the token vesting start time."
        }
      },
      "tokenWallet()": {
        "returns": {
          "_0": "the address of the wallet that will hold the tokens."
        }
      },
      "tokensReleasableAmount()": {
        "details": "Returns the amount tokens vested that can be released in wei.",
        "returns": {
          "_0": "the amount tokens vested that can be released in wei."
        }
      },
      "tokensVestedAmount()": {
        "details": "Returns the amount tokens vested in wei.",
        "returns": {
          "_0": "the amount tokens vested in wei."
        }
      },
      "tokensVestedReleased()": {
        "details": "Returns the amount tokens vested that has been released in wei.",
        "returns": {
          "_0": "the amount tokens vested that has been released in wei."
        }
      },
      "transferOwnership(address)": {
        "details": "Transfers ownership of the contract to a new account (`newOwner`). Can only be called by the current owner."
      },
      "wallet()": {
        "returns": {
          "_0": "the address where funds are collected."
        }
      },
      "weiRaised()": {
        "returns": {
          "_0": "the amount of wei raised."
        }
      }
    },
    "version": 1
  },
  "userdoc": {
    "events": {
      "TimedCrowdsaleExtended(uint256,uint256)": {
        "notice": "Event for crowdsale extending"
      },
      "TokensPurchased(address,address,uint256,uint256)": {
        "notice": "Event for token purchase logging"
      }
    },
    "kind": "user",
    "methods": {},
    "version": 1
  }
}