{
  "contractName": "Presale",
  "abi": [
    {
      "inputs": [
        {
          "internalType": "uint256",
          "name": "rate",
          "type": "uint256"
        },
        {
          "internalType": "address payable",
          "name": "wallet",
          "type": "address"
        },
        {
          "internalType": "contract IERC20",
          "name": "token",
          "type": "address"
        },
        {
          "internalType": "uint256",
          "name": "theCap",
          "type": "uint256"
        },
        {
          "internalType": "uint256",
          "name": "theOpeningTime",
          "type": "uint256"
        },
        {
          "internalType": "uint256",
          "name": "theClosingTime",
          "type": "uint256"
        },
        {
          "internalType": "uint256",
          "name": "theMinimumContribution",
          "type": "uint256"
        },
        {
          "internalType": "uint256",
          "name": "theMaximumContribution",
          "type": "uint256"
        },
        {
          "internalType": "uint256",
          "name": "theTokenVestingStartTime",
          "type": "uint256"
        },
        {
          "internalType": "uint256",
          "name": "theTokenVestingCliffDuration",
          "type": "uint256"
        },
        {
          "internalType": "uint256",
          "name": "theTokenVestingDuration",
          "type": "uint256"
        },
        {
          "internalType": "bool",
          "name": "theTokenVestingIsRevocable",
          "type": "bool"
        }
      ],
      "stateMutability": "nonpayable",
      "type": "constructor"
    },
    {
      "anonymous": false,
      "inputs": [
        {
          "indexed": true,
          "internalType": "address",
          "name": "previousOwner",
          "type": "address"
        },
        {
          "indexed": true,
          "internalType": "address",
          "name": "newOwner",
          "type": "address"
        }
      ],
      "name": "OwnershipTransferred",
      "type": "event"
    },
    {
      "anonymous": false,
      "inputs": [
        {
          "indexed": false,
          "internalType": "uint256",
          "name": "prevClosingTime",
          "type": "uint256"
        },
        {
          "indexed": false,
          "internalType": "uint256",
          "name": "newClosingTime",
          "type": "uint256"
        }
      ],
      "name": "TimedCrowdsaleExtended",
      "type": "event"
    },
    {
      "anonymous": false,
      "inputs": [
        {
          "indexed": true,
          "internalType": "address",
          "name": "purchaser",
          "type": "address"
        },
        {
          "indexed": true,
          "internalType": "address",
          "name": "beneficiary",
          "type": "address"
        },
        {
          "indexed": false,
          "internalType": "uint256",
          "name": "value",
          "type": "uint256"
        },
        {
          "indexed": false,
          "internalType": "uint256",
          "name": "amount",
          "type": "uint256"
        }
      ],
      "name": "TokensPurchased",
      "type": "event"
    },
    {
      "stateMutability": "payable",
      "type": "fallback",
      "payable": true
    },
    {
      "inputs": [
        {
          "internalType": "address",
          "name": "beneficiary",
          "type": "address"
        }
      ],
      "name": "buyTokens",
      "outputs": [],
      "stateMutability": "payable",
      "type": "function",
      "payable": true
    },
    {
      "inputs": [],
      "name": "owner",
      "outputs": [
        {
          "internalType": "address",
          "name": "",
          "type": "address"
        }
      ],
      "stateMutability": "view",
      "type": "function",
      "constant": true
    },
    {
      "inputs": [],
      "name": "rate",
      "outputs": [
        {
          "internalType": "uint256",
          "name": "",
          "type": "uint256"
        }
      ],
      "stateMutability": "view",
      "type": "function",
      "constant": true
    },
    {
      "inputs": [],
      "name": "renounceOwnership",
      "outputs": [],
      "stateMutability": "nonpayable",
      "type": "function"
    },
    {
      "inputs": [],
      "name": "token",
      "outputs": [
        {
          "internalType": "contract IERC20",
          "name": "",
          "type": "address"
        }
      ],
      "stateMutability": "view",
      "type": "function",
      "constant": true
    },
    {
      "inputs": [
        {
          "internalType": "address",
          "name": "newOwner",
          "type": "address"
        }
      ],
      "name": "transferOwnership",
      "outputs": [],
      "stateMutability": "nonpayable",
      "type": "function"
    },
    {
      "inputs": [],
      "name": "wallet",
      "outputs": [
        {
          "internalType": "address payable",
          "name": "",
          "type": "address"
        }
      ],
      "stateMutability": "view",
      "type": "function",
      "constant": true
    },
    {
      "inputs": [],
      "name": "weiRaised",
      "outputs": [
        {
          "internalType": "uint256",
          "name": "",
          "type": "uint256"
        }
      ],
      "stateMutability": "view",
      "type": "function",
      "constant": true
    },
    {
      "stateMutability": "payable",
      "type": "receive",
      "payable": true
    },
    {
      "inputs": [],
      "name": "openingTime",
      "outputs": [
        {
          "internalType": "uint256",
          "name": "",
          "type": "uint256"
        }
      ],
      "stateMutability": "view",
      "type": "function",
      "constant": true
    },
    {
      "inputs": [],
      "name": "closingTime",
      "outputs": [
        {
          "internalType": "uint256",
          "name": "",
          "type": "uint256"
        }
      ],
      "stateMutability": "view",
      "type": "function",
      "constant": true
    },
    {
      "inputs": [],
      "name": "isOpen",
      "outputs": [
        {
          "internalType": "bool",
          "name": "",
          "type": "bool"
        }
      ],
      "stateMutability": "view",
      "type": "function",
      "constant": true
    },
    {
      "inputs": [],
      "name": "hasClosed",
      "outputs": [
        {
          "internalType": "bool",
          "name": "",
          "type": "bool"
        }
      ],
      "stateMutability": "view",
      "type": "function",
      "constant": true
    },
    {
      "inputs": [
        {
          "internalType": "uint256",
          "name": "newClosingTime",
          "type": "uint256"
        }
      ],
      "name": "extendTime",
      "outputs": [],
      "stateMutability": "nonpayable",
      "type": "function"
    },
    {
      "inputs": [],
      "name": "cap",
      "outputs": [
        {
          "internalType": "uint256",
          "name": "",
          "type": "uint256"
        }
      ],
      "stateMutability": "view",
      "type": "function",
      "constant": true
    },
    {
      "inputs": [],
      "name": "capReached",
      "outputs": [
        {
          "internalType": "bool",
          "name": "",
          "type": "bool"
        }
      ],
      "stateMutability": "view",
      "type": "function",
      "constant": true
    },
    {
      "inputs": [
        {
          "internalType": "uint256",
          "name": "minimumContribution",
          "type": "uint256"
        }
      ],
      "name": "setMinimumContribution",
      "outputs": [],
      "stateMutability": "nonpayable",
      "type": "function"
    },
    {
      "inputs": [
        {
          "internalType": "uint256",
          "name": "maximumContribution",
          "type": "uint256"
        }
      ],
      "name": "setMaximumContribution",
      "outputs": [],
      "stateMutability": "nonpayable",
      "type": "function"
    },
    {
      "inputs": [],
      "name": "contributedAmount",
      "outputs": [
        {
          "internalType": "uint256",
          "name": "",
          "type": "uint256"
        }
      ],
      "stateMutability": "view",
      "type": "function",
      "constant": true
    },
    {
      "inputs": [],
      "name": "tokenVestingStartTime",
      "outputs": [
        {
          "internalType": "uint256",
          "name": "",
          "type": "uint256"
        }
      ],
      "stateMutability": "view",
      "type": "function",
      "constant": true
    },
    {
      "inputs": [],
      "name": "tokenVestingDuration",
      "outputs": [
        {
          "internalType": "uint256",
          "name": "",
          "type": "uint256"
        }
      ],
      "stateMutability": "view",
      "type": "function",
      "constant": true
    },
    {
      "inputs": [],
      "name": "tokenVestingCliffDuration",
      "outputs": [
        {
          "internalType": "uint256",
          "name": "",
          "type": "uint256"
        }
      ],
      "stateMutability": "view",
      "type": "function",
      "constant": true
    },
    {
      "inputs": [],
      "name": "tokenVestingIsRevocable",
      "outputs": [
        {
          "internalType": "bool",
          "name": "",
          "type": "bool"
        }
      ],
      "stateMutability": "view",
      "type": "function",
      "constant": true
    },
    {
      "inputs": [],
      "name": "tokensVestedReleased",
      "outputs": [
        {
          "internalType": "uint256",
          "name": "",
          "type": "uint256"
        }
      ],
      "stateMutability": "view",
      "type": "function",
      "constant": true
    },
    {
      "inputs": [],
      "name": "tokensReleasableAmount",
      "outputs": [
        {
          "internalType": "uint256",
          "name": "",
          "type": "uint256"
        }
      ],
      "stateMutability": "view",
      "type": "function",
      "constant": true
    },
    {
      "inputs": [],
      "name": "tokensVestedAmount",
      "outputs": [
        {
          "internalType": "uint256",
          "name": "",
          "type": "uint256"
        }
      ],
      "stateMutability": "view",
      "type": "function",
      "constant": true
    },
    {
      "inputs": [],
      "name": "getTokenVesting",
      "outputs": [
        {
          "internalType": "contract TokenVesting",
          "name": "",
          "type": "address"
        }
      ],
      "stateMutability": "view",
      "type": "function",
      "constant": true
    },
    {
      "inputs": [],
      "name": "setTokenVesting",
      "outputs": [],
      "stateMutability": "nonpayable",
      "type": "function"
    },
    {
      "inputs": [],
      "name": "releaseTokenVested",
      "outputs": [],
      "stateMutability": "nonpayable",
      "type": "function"
    }
  ],
  "bytecode": "0x60806040523480156200001157600080fd5b5060405162002a8438038062002a8483398101604081905262000034916200055c565b60016000558b8b8b826200008f5760405162461bcd60e51b815260206004820152601460248201527f43726f776473616c653a2072617465206973203000000000000000000000000060448201526064015b60405180910390fd5b6001600160a01b038216620000f55760405162461bcd60e51b815260206004820152602560248201527f43726f776473616c653a2077616c6c657420697320746865207a65726f206164604482015264647265737360d81b606482015260840162000086565b6001600160a01b038116620001595760405162461bcd60e51b8152602060048201526024808201527f43726f776473616c653a20746f6b656e20697320746865207a65726f206164646044820152637265737360e01b606482015260840162000086565b600392909255600280546001600160a01b039283166001600160a01b031991821617909155600180549290931691161790556200019633620004dc565b60008911620001e85760405162461bcd60e51b815260206004820152601960248201527f43617070656443726f776473616c653a20636170206973203000000000000000604482015260640162000086565b428810156200024f5760405162461bcd60e51b8152602060048201526033602482015260008051602062002a6483398151915260448201527f6265666f72652063757272656e742074696d6500000000000000000000000000606482015260840162000086565b878711620002b55760405162461bcd60e51b8152602060048201526037602482015260008051602062002a6483398151915260448201527f6e6f74206265666f726520636c6f73696e672074696d65000000000000000000606482015260840162000086565b848611156200033d5760405162461bcd60e51b815260206004820152604760248201527f4d696e696d756d20636f6e747269627574696f6e206d757374206265206c657360448201527f73207468616e206f7220657175616c20746f206d6178696d756d20636f6e747260648201526634b13aba34b7b760c91b608482015260a40162000086565b81831115620003a35760405162461bcd60e51b815260206004820152602b60248201527f546f6b656e56657374696e673a20636c696666206973206c6f6e67657220746860448201526a30b710323ab930ba34b7b760a91b606482015260840162000086565b60008211620003f55760405162461bcd60e51b815260206004820152601b60248201527f546f6b656e56657374696e673a206475726174696f6e20697320300000000000604482015260640162000086565b426200041083866200052e60201b62000a6d1790919060201c565b11620004775760405162461bcd60e51b815260206004820152602f60248201527f546f6b656e56657374696e673a2066696e616c2074696d65206973206265666f60448201526e72652063757272656e742074696d6560881b606482015260840162000086565b600a95909555600b93909355600796909655600894909455600992909255600680546001600160a01b0319166001600160a01b039690961695909517909455600d91909155600f55600e556010805460ff191691151591909117905550620006369050565b600580546001600160a01b038381166001600160a01b0319831681179093556040519116919082907f8be0079c531659141344cd1fd0a4f28419497f9722a3daafe3b4186f6b6457e090600090a35050565b60006200053c82846200060f565b9392505050565b6001600160a01b03811681146200055957600080fd5b50565b6000806000806000806000806000806000806101808d8f0312156200058057600080fd5b8c519b5060208d0151620005948162000543565b60408e0151909b50620005a78162000543565b809a505060608d0151985060808d0151975060a08d0151965060c08d0151955060e08d015194506101008d015193506101208d015192506101408d015191506101608d01518015158114620005fb57600080fd5b809150509295989b509295989b509295989b565b600082198211156200063157634e487b7160e01b600052601160045260246000fd5b500190565b61241e80620006466000396000f3fe608060405260043610620001e75760003560e01c80638391c87c1162000103578063b7a8807c1162000097578063dba3e704116200006d578063dba3e70414620004c4578063ec8ac4d814620004e9578063f2fde38b14620004fa578063fc0c546a146200051f5762000200565b8063b7a8807c1462000472578063d6bead841462000489578063db1a6eaa14620004a05762000200565b806398b4d8ae11620000d957806398b4d8ae14620004035780639dc4e23b146200041b578063a27aebbc1462000435578063b3c0e751146200045a5762000200565b80638391c87c14620003b55780638da5cb5b14620003cc578063928fd65114620003ec5762000200565b806347535d7b116200017b578063521eb2731162000151578063521eb27314620003175780635cc0c9a7146200034b578063715018a614620003705780637217236414620003885762000200565b806347535d7b14620002d05780634b6753bc14620002e85780634f93594514620002ff5762000200565b80632c4e722e11620001bd5780632c4e722e1462000273578063355274ea146200028a57806337afd3d614620002a15780634042b66f14620002b95762000200565b80631515bc2b146200020b5780631efe445c1462000234578063293d670d146200025b5762000200565b366200020057620001fe336200053f565b6200053f565b005b620001fe336200053f565b3480156200021857600080fd5b5060095442115b60405190151581526020015b60405180910390f35b3480156200024157600080fd5b506200024c6200063e565b6040519081526020016200022b565b3480156200026857600080fd5b50620001fe62000710565b3480156200028057600080fd5b506003546200024c565b3480156200029757600080fd5b506007546200024c565b348015620002ae57600080fd5b50620001fe620007be565b348015620002c657600080fd5b506004546200024c565b348015620002dd57600080fd5b506200021f620007ca565b348015620002f557600080fd5b506009546200024c565b3480156200030c57600080fd5b506200021f620007e6565b3480156200032457600080fd5b506002546001600160a01b03165b6040516001600160a01b0390911681526020016200022b565b3480156200035857600080fd5b50620001fe6200036a366004620012cd565b620007fc565b3480156200037d57600080fd5b50620001fe6200082e565b3480156200039557600080fd5b50336000908152601160205260409020546001600160a01b031662000332565b348015620003c257600080fd5b50600f546200024c565b348015620003d957600080fd5b506005546001600160a01b031662000332565b348015620003f957600080fd5b50600d546200024c565b3480156200041057600080fd5b506200024c62000867565b3480156200042857600080fd5b5060105460ff166200021f565b3480156200044257600080fd5b50620001fe62000454366004620012cd565b620008e4565b3480156200046757600080fd5b506200024c6200091f565b3480156200047f57600080fd5b506008546200024c565b3480156200049657600080fd5b50600e546200024c565b348015620004ad57600080fd5b50336000908152600c60205260409020546200024c565b348015620004d157600080fd5b50620001fe620004e3366004620012cd565b6200099c565b620001fe620001f8366004620012e7565b3480156200050757600080fd5b50620001fe62000519366004620012e7565b620009ce565b3480156200052c57600080fd5b506001546001600160a01b031662000332565b60026000541415620005985760405162461bcd60e51b815260206004820152601f60248201527f5265656e7472616e637947756172643a207265656e7472616e742063616c6c0060448201526064015b60405180910390fd5b600260005534620005aa828262000a82565b6000620005b78262000be0565b600454909150620005c9908362000a6d565b600455620005d8838262000bff565b60408051838152602081018390526001600160a01b0385169133917f6faf93231a456e552dbc9961f58d9713ee4f2e69d15f1975b050ef0911053a7b910160405180910390a36200062a838362000c0f565b6200063462000c3b565b5050600160005550565b336000908152601160205260408120546001600160a01b0316620006765760405162461bcd60e51b81526004016200058f9062001312565b3360009081526011602052604090819020546006549151630e11c47360e21b81526001600160a01b039283166004820152911690819063384711cc906024015b60206040518083038186803b158015620006cf57600080fd5b505afa158015620006e4573d6000803e3d6000fd5b505050506040513d601f19601f820116820180604052508101906200070a919062001349565b91505090565b336000908152601160205260409020546001600160a01b0316620007485760405162461bcd60e51b81526004016200058f9062001312565b3360009081526011602052604090819020546006549151631916558760e01b81526001600160a01b0392831660048201529116908190631916558790602401600060405180830381600087803b158015620007a257600080fd5b505af1158015620007b7573d6000803e3d6000fd5b5050505050565b620007c862000c75565b565b60006008544210158015620007e157506009544211155b905090565b6000600754620007f560045490565b1015905090565b6005546001600160a01b03163314620008295760405162461bcd60e51b81526004016200058f9062001363565b600b55565b6005546001600160a01b031633146200085b5760405162461bcd60e51b81526004016200058f9062001363565b620007c8600062000d81565b336000908152601160205260408120546001600160a01b03166200089f5760405162461bcd60e51b81526004016200058f9062001312565b33600090815260116020526040908190205460065491516302e4d97960e31b81526001600160a01b0392831660048201529116908190631726cbc890602401620006b6565b6005546001600160a01b03163314620009115760405162461bcd60e51b81526004016200058f9062001363565b6200091c8162000dd3565b50565b336000908152601160205260408120546001600160a01b0316620009575760405162461bcd60e51b81526004016200058f9062001312565b3360009081526011602052604090819020546006549151632614965760e21b81526001600160a01b0392831660048201529116908190639852595c90602401620006b6565b6005546001600160a01b03163314620009c95760405162461bcd60e51b81526004016200058f9062001363565b600a55565b6005546001600160a01b03163314620009fb5760405162461bcd60e51b81526004016200058f9062001363565b6001600160a01b03811662000a625760405162461bcd60e51b815260206004820152602660248201527f4f776e61626c653a206e6577206f776e657220697320746865207a65726f206160448201526564647265737360d01b60648201526084016200058f565b6200091c8162000d81565b600062000a7b8284620013ae565b9392505050565b62000a8c620007ca565b62000ada5760405162461bcd60e51b815260206004820152601860248201527f54696d656443726f776473616c653a206e6f74206f70656e000000000000000060448201526064016200058f565b62000ae6828262000ee1565b60075462000aff8262000af860045490565b9062000a6d565b111562000b4f5760405162461bcd60e51b815260206004820152601d60248201527f43617070656443726f776473616c653a2063617020657863656564656400000060448201526064016200058f565b600062000b5d838362000f9b565b9050600a54811015801562000b745750600b548111155b62000bdb5760405162461bcd60e51b815260206004820152603060248201527f436f6e747269627574696f6e206d757374206265206265747765656e206d696e60448201526f696d756d20616e64206d6178696d756d60801b60648201526084016200058f565b505050565b600062000bf96003548362000fca90919063ffffffff16565b92915050565b62000c0b828262000fd8565b5050565b62000c1b828262000f9b565b6001600160a01b039092166000908152600c602052604090209190915550565b6002546040516001600160a01b03909116903480156108fc02916000818181858888f193505050501580156200091c573d6000803e3d6000fd5b336000908152601160205260409020546001600160a01b03161562000cdd5760405162461bcd60e51b815260206004820152601960248201527f546f6b656e2076657374696e6720616c7265616479207365740000000000000060448201526064016200058f565b600033600d54600e54600f54601060009054906101000a900460ff1660405162000d0790620012bf565b6001600160a01b0390951685526020850193909352604084019190915260608301521515608082015260a001604051809103906000f08015801562000d50573d6000803e3d6000fd5b5033600090815260116020526040902080546001600160a01b0319166001600160a01b039290921691909117905550565b600580546001600160a01b038381166001600160a01b0319831681179093556040519116919082907f8be0079c531659141344cd1fd0a4f28419497f9722a3daafe3b4186f6b6457e090600090a35050565b60095442111562000e275760405162461bcd60e51b815260206004820152601e60248201527f54696d656443726f776473616c653a20616c726561647920636c6f736564000060448201526064016200058f565b600954811162000ea05760405162461bcd60e51b815260206004820152603f60248201527f54696d656443726f776473616c653a206e657720636c6f73696e672074696d6560448201527f206973206265666f72652063757272656e7420636c6f73696e672074696d650060648201526084016200058f565b60095460408051918252602082018390527f46711e222f558a07afd26e5e71b48ecb0a8b2cdcd40faeb1323e05e2c76a2f32910160405180910390a1600955565b6001600160a01b03821662000f4c5760405162461bcd60e51b815260206004820152602a60248201527f43726f776473616c653a2062656e656669636961727920697320746865207a65604482015269726f206164647265737360b01b60648201526084016200058f565b8062000c0b5760405162461bcd60e51b815260206004820152601960248201527f43726f776473616c653a20776569416d6f756e7420697320300000000000000060448201526064016200058f565b6001600160a01b0382166000908152600c60205260408120548162000fc1828562000a6d565b95945050505050565b600062000a7b8284620013c9565b6001600160a01b038281166000908152601160205260409020541662001002576200100262000c75565b6001600160a01b038281166000908152601160209081526040808320546006548251918616602483018190526044808401899052845180850390910181526064909301845282850180516001600160e01b031663a9059cbb60e01b17905283518085019094528484527f5361666545524332303a206c6f772d6c6576656c2063616c6c206661696c656494840194909452929462000bdb949316928592879286928692620010b4908490849062001136565b80519091501562000bdb5780806020019051810190620010d59190620013eb565b62000bdb5760405162461bcd60e51b815260206004820152602a60248201527f5361666545524332303a204552433230206f7065726174696f6e20646964206e6044820152691bdd081cdd58d8d9595960b21b60648201526084016200058f565b60606200114784846000856200114f565b949350505050565b606082471015620011b25760405162461bcd60e51b815260206004820152602660248201527f416464726573733a20696e73756666696369656e742062616c616e636520666f6044820152651c8818d85b1b60d21b60648201526084016200058f565b843b620012025760405162461bcd60e51b815260206004820152601d60248201527f416464726573733a2063616c6c20746f206e6f6e2d636f6e747261637400000060448201526064016200058f565b600080866001600160a01b0316858760405162001220919062001442565b60006040518083038185875af1925050503d80600081146200125f576040519150601f19603f3d011682016040523d82523d6000602084013e62001264565b606091505b50915091506200127682828662001281565b979650505050505050565b606083156200129257508162000a7b565b825115620012a35782518084602001fd5b8160405162461bcd60e51b81526004016200058f919062001460565b610f53806200149683390190565b600060208284031215620012e057600080fd5b5035919050565b600060208284031215620012fa57600080fd5b81356001600160a01b038116811462000a7b57600080fd5b60208082526019908201527f546f6b656e2076657374696e67206e6f74207365742079657400000000000000604082015260600190565b6000602082840312156200135c57600080fd5b5051919050565b6020808252818101527f4f776e61626c653a2063616c6c6572206973206e6f7420746865206f776e6572604082015260600190565b634e487b7160e01b600052601160045260246000fd5b60008219821115620013c457620013c462001398565b500190565b6000816000190483118215151615620013e657620013e662001398565b500290565b600060208284031215620013fe57600080fd5b8151801515811462000a7b57600080fd5b60005b838110156200142c57818101518382015260200162001412565b838111156200143c576000848401525b50505050565b60008251620014568184602087016200140f565b9190910192915050565b6020815260008251806020840152620014818160408501602087016200140f565b601f01601f1916919091016040019291505056fe60806040523480156200001157600080fd5b5060405162000f5338038062000f538339810160408190526200003491620002a6565b6200003f3362000241565b6001600160a01b038516620000b15760405162461bcd60e51b815260206004820152602d60248201527f546f6b656e56657374696e673a2062656e65666963696172792069732074686560448201526c207a65726f206164647265737360981b60648201526084015b60405180910390fd5b81831115620001175760405162461bcd60e51b815260206004820152602b60248201527f546f6b656e56657374696e673a20636c696666206973206c6f6e67657220746860448201526a30b710323ab930ba34b7b760a91b6064820152608401620000a8565b60008211620001695760405162461bcd60e51b815260206004820152601b60248201527f546f6b656e56657374696e673a206475726174696f6e206973203000000000006044820152606401620000a8565b426200018483866200029160201b620006181790919060201c565b11620001eb5760405162461bcd60e51b815260206004820152602f60248201527f546f6b656e56657374696e673a2066696e616c2074696d65206973206265666f60448201526e72652063757272656e742074696d6560881b6064820152608401620000a8565b600180546001600160a01b0319166001600160a01b0387161790556005805460ff1916821515179055600482905562000231848462000291602090811b6200061817901c565b6002555050506003555062000339565b600080546001600160a01b038381166001600160a01b0319831681178455604051919092169283917f8be0079c531659141344cd1fd0a4f28419497f9722a3daafe3b4186f6b6457e09190a35050565b60006200029f828462000312565b9392505050565b600080600080600060a08688031215620002bf57600080fd5b85516001600160a01b0381168114620002d757600080fd5b80955050602086015193506040860151925060608601519150608086015180151581146200030457600080fd5b809150509295509295909350565b600082198211156200033457634e487b7160e01b600052601160045260246000fd5b500190565b610c0a80620003496000396000f3fe608060405234801561001057600080fd5b50600436106100ea5760003560e01c806374a8f1031161008c5780639852595c116100665780639852595c146101b1578063be9a6555146101da578063f2fde38b146101e2578063fa01dc06146101f557600080fd5b806374a8f10314610176578063872a7810146101895780638da5cb5b146101a057600080fd5b806319165587116100c85780631916558714610121578063384711cc1461013657806338af3eed14610149578063715018a61461016e57600080fd5b80630fb5a6b4146100ef57806313d033c0146101065780631726cbc81461010e575b600080fd5b6004545b6040519081526020015b60405180910390f35b6002546100f3565b6100f361011c366004610a42565b610221565b61013461012f366004610a42565b610232565b005b6100f3610144366004610a42565b610329565b6001546001600160a01b03165b6040516001600160a01b0390911681526020016100fd565b610134610334565b610134610184366004610a42565b61036a565b60055460ff165b60405190151581526020016100fd565b6000546001600160a01b0316610156565b6100f36101bf366004610a42565b6001600160a01b031660009081526006602052604090205490565b6003546100f3565b6101346101f0366004610a42565b61057d565b610190610203366004610a42565b6001600160a01b031660009081526007602052604090205460ff1690565b600061022c8261062b565b92915050565b600061023d8261062b565b9050600081116102945760405162461bcd60e51b815260206004820152601f60248201527f546f6b656e56657374696e673a206e6f20746f6b656e7320617265206475650060448201526064015b60405180910390fd5b6001600160a01b0382166000908152600660205260409020546102b79082610618565b6001600160a01b038084166000818152600660205260409020929092556001546102e392911683610657565b604080516001600160a01b0384168152602081018390527fc7798891864187665ac6dd119286e44ec13f014527aeeb2b8eb3fd413df93179910160405180910390a15050565b600061022c826106ae565b6000546001600160a01b0316331461035e5760405162461bcd60e51b815260040161028b90610a5f565b61036860006107dc565b565b6000546001600160a01b031633146103945760405162461bcd60e51b815260040161028b90610a5f565b60055460ff166103e65760405162461bcd60e51b815260206004820152601b60248201527f546f6b656e56657374696e673a2063616e6e6f74207265766f6b650000000000604482015260640161028b565b6001600160a01b03811660009081526007602052604090205460ff161561045b5760405162461bcd60e51b815260206004820152602360248201527f546f6b656e56657374696e673a20746f6b656e20616c7265616479207265766f6044820152621ad95960ea1b606482015260840161028b565b6040516370a0823160e01b81523060048201526000906001600160a01b038316906370a082319060240160206040518083038186803b15801561049d57600080fd5b505afa1580156104b1573d6000803e3d6000fd5b505050506040513d601f19601f820116820180604052508101906104d59190610a94565b905060006104e28361062b565b905060006104f0838361082c565b6001600160a01b0385166000908152600760205260409020805460ff19166001179055905061053b61052a6000546001600160a01b031690565b6001600160a01b0386169083610657565b6040516001600160a01b03851681527f39983c6d4d174a7aee564f449d4a5c3c7ac9649d72b7793c56901183996f8af69060200160405180910390a150505050565b6000546001600160a01b031633146105a75760405162461bcd60e51b815260040161028b90610a5f565b6001600160a01b03811661060c5760405162461bcd60e51b815260206004820152602660248201527f4f776e61626c653a206e6577206f776e657220697320746865207a65726f206160448201526564647265737360d01b606482015260840161028b565b610615816107dc565b50565b60006106248284610ac3565b9392505050565b6001600160a01b03811660009081526006602052604081205461022c90610651846106ae565b9061082c565b604080516001600160a01b038416602482015260448082018490528251808303909101815260649091019091526020810180516001600160e01b031663a9059cbb60e01b1790526106a9908490610838565b505050565b6040516370a0823160e01b815230600482015260009081906001600160a01b038416906370a082319060240160206040518083038186803b1580156106f257600080fd5b505afa158015610706573d6000803e3d6000fd5b505050506040513d601f19601f8201168201806040525081019061072a9190610a94565b6001600160a01b03841660009081526006602052604081205491925090610752908390610618565b9050600254421015610768575060009392505050565b60045460035461077791610618565b4210158061079d57506001600160a01b03841660009081526007602052604090205460ff165b156107a9579392505050565b6107d46004546107ce6107c76003544261082c90919063ffffffff16565b849061090a565b90610916565b949350505050565b600080546001600160a01b038381166001600160a01b0319831681178455604051919092169283917f8be0079c531659141344cd1fd0a4f28419497f9722a3daafe3b4186f6b6457e09190a35050565b60006106248284610adb565b600061088d826040518060400160405280602081526020017f5361666545524332303a206c6f772d6c6576656c2063616c6c206661696c6564815250856001600160a01b03166109229092919063ffffffff16565b8051909150156106a957808060200190518101906108ab9190610af2565b6106a95760405162461bcd60e51b815260206004820152602a60248201527f5361666545524332303a204552433230206f7065726174696f6e20646964206e6044820152691bdd081cdd58d8d9595960b21b606482015260840161028b565b60006106248284610b14565b60006106248284610b33565b60606107d4848460008585843b61097b5760405162461bcd60e51b815260206004820152601d60248201527f416464726573733a2063616c6c20746f206e6f6e2d636f6e7472616374000000604482015260640161028b565b600080866001600160a01b031685876040516109979190610b85565b60006040518083038185875af1925050503d80600081146109d4576040519150601f19603f3d011682016040523d82523d6000602084013e6109d9565b606091505b50915091506109e98282866109f4565b979650505050505050565b60608315610a03575081610624565b825115610a135782518084602001fd5b8160405162461bcd60e51b815260040161028b9190610ba1565b6001600160a01b038116811461061557600080fd5b600060208284031215610a5457600080fd5b813561062481610a2d565b6020808252818101527f4f776e61626c653a2063616c6c6572206973206e6f7420746865206f776e6572604082015260600190565b600060208284031215610aa657600080fd5b5051919050565b634e487b7160e01b600052601160045260246000fd5b60008219821115610ad657610ad6610aad565b500190565b600082821015610aed57610aed610aad565b500390565b600060208284031215610b0457600080fd5b8151801515811461062457600080fd5b6000816000190483118215151615610b2e57610b2e610aad565b500290565b600082610b5057634e487b7160e01b600052601260045260246000fd5b500490565b60005b83811015610b70578181015183820152602001610b58565b83811115610b7f576000848401525b50505050565b60008251610b97818460208701610b55565b9190910192915050565b6020815260008251806020840152610bc0816040850160208701610b55565b601f01601f1916919091016040019291505056fea2646970667358221220d5b41951608377c5c176efe2110f546c3e7cb46be084ac4922fd0713a2543b2964736f6c63430008090033a26469706673582212209bd45ca36a863ad095a9393c1e5d3b871dbfb7bc82c766da8a883192343d485464736f6c6343000809003354696d656443726f776473616c653a206f70656e696e672074696d6520697320",
  "immutableReferences": {},
  "source": "// SPDX-License-Identifier: MIT\npragma solidity  ^0.8.0;\n\nimport \"@openzeppelin/contracts/utils/math/SafeMath.sol\";\nimport \"@openzeppelin/contracts/access/Ownable.sol\";\nimport \"@openzeppelin/contracts/token/ERC20/IERC20.sol\";\nimport \"@openzeppelin/contracts/token/ERC20/utils/SafeERC20.sol\";\nimport \"./crowdsale/Crowdsale.sol\";\nimport \"./utils/TokenVesting.sol\";\n\ncontract Presale is Crowdsale, Ownable {\n    using SafeMath for uint256;\n    using SafeERC20 for IERC20;\n\n     // The token being sold\n    IERC20 private _token;\n\n    // Cap\n    uint256 private _cap; // the cap for the crowdsale in wei\n\n    // Timed\n    uint256 private _openingTime; // the opening time of the crowdsale\n    uint256 private _closingTime; // the closing time of the crowdsale\n\n    // Investment Boundary\n    uint256 private _minimumContribution; // minimum contribution in wei\n    uint256 private _maximumContribution; // maximum contribution in wei\n    mapping(address => uint256) private contributions; // mapping of address to contribution in wei\n\n    //Token vesting account\n    uint256 private _tokenVestingStartTime;\n    uint256 private _tokenVestingCliffDuration;\n    uint256 private _tokenVestingDuration;\n    bool private _tokenVestingIsRevocable;\n    mapping(address => TokenVesting) private vestings; // mapping of address to token vesting\n\n    /**\n     * Event for crowdsale extending\n     * @param newClosingTime new closing time\n     * @param prevClosingTime old closing time\n     */\n    event TimedCrowdsaleExtended(uint256 prevClosingTime, uint256 newClosingTime);\n\n    /**\n     * @dev Reverts if not in crowdsale time range.\n     */\n    modifier onlyWhileOpen {\n        require(isOpen(), \"TimedCrowdsale: not open\");\n        _;\n    }\n\n    constructor(\n        uint256 rate,            // rate, in TKNbits\n        address payable wallet,  // wallet to send Ether\n        IERC20 token,            // the token\n        uint256 theCap,             // total cap, in wei\n        uint256 theOpeningTime,     // opening time in unix epoch seconds\n        uint256 theClosingTime,      // closing time in unix epoch seconds\n        uint256 theMinimumContribution, // minimum contribution in wei\n        uint256 theMaximumContribution, // maximum contribution in wei\n        uint256 theTokenVestingStartTime, // token vesting start time in unix epoch seconds\n        uint256 theTokenVestingCliffDuration, // token vesting cliff duration in seconds\n        uint256 theTokenVestingDuration, // token vesting duration in seconds\n        bool theTokenVestingIsRevocable // token vesting is revocable\n    )\n        Crowdsale(rate, wallet, token)\n    {\n        require(theCap > 0, \"CappedCrowdsale: cap is 0\");\n        // solhint-disable-next-line not-rely-on-time\n        require(theOpeningTime >= block.timestamp, \"TimedCrowdsale: opening time is before current time\");\n        // solhint-disable-next-line max-line-length\n        require(theClosingTime > theOpeningTime, \"TimedCrowdsale: opening time is not before closing time\");\n        // solhint-disable-next-line max-line-length\n        require(theMinimumContribution <= theMaximumContribution, \"Minimum contribution must be less than or equal to maximum contribution\");\n        require(theTokenVestingCliffDuration <= theTokenVestingDuration, \"TokenVesting: cliff is longer than duration\");\n        require(theTokenVestingDuration > 0, \"TokenVesting: duration is 0\");\n        require(theTokenVestingStartTime.add(theTokenVestingDuration) > block.timestamp, \"TokenVesting: final time is before current time\");\n        _minimumContribution = theMinimumContribution;\n        _maximumContribution = theMaximumContribution;\n        _cap = theCap;\n        _openingTime = theOpeningTime;\n        _closingTime = theClosingTime;\n        _token = token;\n        _tokenVestingStartTime = theTokenVestingStartTime;\n        _tokenVestingDuration = theTokenVestingDuration;\n        _tokenVestingCliffDuration = theTokenVestingCliffDuration;\n        _tokenVestingIsRevocable = theTokenVestingIsRevocable;\n\n    }\n\n    //Timed\n\n    /**\n     * @dev Returns the opening time of the crowdsale.\n     * @return the crowdsale opening time.\n     */\n    function openingTime() public view returns (uint256) {\n        return _openingTime;\n    }\n\n    /**\n     * @dev Returns the crowdsale closing time.\n     * @return the crowdsale closing time.\n     */\n    function closingTime() public view returns (uint256) {\n        return _closingTime;\n    }\n\n    /**\n     * @dev Returns true if the crowdsale is open.\n     * @return true if the crowdsale is open, false otherwise.\n     */\n    function isOpen() public view returns (bool) {\n        // solhint-disable-next-line not-rely-on-time\n        return block.timestamp >= _openingTime && block.timestamp <= _closingTime;\n    }\n\n     /**\n     * @dev Checks whether the period in which the crowdsale is open has already elapsed.\n     * @return Whether crowdsale period has elapsed\n     */\n    function hasClosed() public view returns (bool) {\n        // solhint-disable-next-line not-rely-on-time\n        return block.timestamp > _closingTime;\n    }\n\n    /**\n     * @dev Extends the time of the crowdsale.\n     * @param newClosingTime The new closing time.\n     */\n    function extendTime(uint256 newClosingTime) public onlyOwner {\n        _extendTime(newClosingTime);\n    }\n\n    //Cappped\n\n    /**\n     * @dev Returns the cap of the crowdsale.\n     * @return the cap of the crowdsale.\n     */\n    function cap() public view returns (uint256) {\n        return _cap;\n    }\n\n    /**\n     * @dev Checks whether the cap has been reached.\n     * @return Whether the cap was reached\n     */\n    function capReached() public view returns (bool) {\n        return weiRaised() >= _cap;\n    }\n\n    // Investment Boundary\n\n    /**\n     * @dev Sets the minimum contribution.\n     * @param minimumContribution The minimum contribution in wei.\n     */\n    function setMinimumContribution(uint256 minimumContribution) public onlyOwner {\n        _minimumContribution = minimumContribution;\n    }\n\n    /**\n     * @dev Sets the maximum contribution.\n     * @param maximumContribution The maximum contribution in wei.\n     */\n    function setMaximumContribution(uint256 maximumContribution) public onlyOwner {\n        _maximumContribution = maximumContribution;\n    }\n\n    /**\n     * @dev Extend parent behavior requiring purchase to respect the funding cap.\n     * @param beneficiary Token purchaser\n     * @param weiAmount Amount of wei contributed\n     */\n    function _preValidatePurchase(address beneficiary, uint256 weiAmount) internal override onlyWhileOpen view {\n        super._preValidatePurchase(beneficiary, weiAmount);\n        require(weiRaised().add(weiAmount) <= _cap, \"CappedCrowdsale: cap exceeded\");\n        uint256 _totalContibutorContribution = _getTotalContibutorContribution(beneficiary, weiAmount);\n        // solhint-disable-next-line max-line-length\n        require(_totalContibutorContribution >= _minimumContribution && _totalContibutorContribution <= _maximumContribution, \"Contribution must be between minimum and maximum\");\n    }\n\n    /**\n     * @dev Extend current user contributions\n     * @param beneficiary Address receiving the tokens\n     * @param weiAmount Value in wei involved in the purchase\n     */\n    function _updatePurchasingState(address beneficiary, uint256 weiAmount) override internal {\n        contributions[beneficiary] = _getTotalContibutorContribution(beneficiary, weiAmount);\n    }\n\n    /**\n     * @dev Extend parent behavior to reset user contributions\n     * @param beneficiary Address receiving the tokens\n     * @param weiAmount Value in wei involved in the purchase\n     */\n    function _getTotalContibutorContribution(address beneficiary, uint256 weiAmount) internal  view returns (uint256) {\n        uint256 _existingContribution = contributions[beneficiary];\n        uint256 _totalContibutorContribution = _existingContribution.add(weiAmount);\n        return _totalContibutorContribution;\n    }\n\n    /**\n     * @dev Get the amount contributed by a user\n     */\n\n    function contributedAmount () public view returns (uint256) {\n        return contributions[msg.sender];\n    }\n\n    // Token Vesting\n\n    modifier onlyWhenTokenVestingIsSet {\n        require(address(vestings[msg.sender]) != address(0), \"Token vesting not set yet\");\n        _;\n     }\n    \n    /**\n    * @dev Returns the token vesting start time.\n    * @return the token vesting start time.\n    */\n     function tokenVestingStartTime() public view returns (uint256) {\n        return _tokenVestingStartTime;\n     }\n\n    /**\n    * @dev Returns the token vesting duration.\n    * @return the token vesting duration.\n    */\n     function tokenVestingDuration() public view returns (uint256) {\n        return _tokenVestingDuration;\n     }\n\n    /**\n    * @dev Returns the token vesting cliff duration.\n    * @return the token vesting cliff duration.\n    */\n     function tokenVestingCliffDuration() public view returns (uint256) {\n        return _tokenVestingCliffDuration;\n     }\n\n    /**\n    * @dev Returns the token vesting is revocable.\n    * @return the token vesting is revocable.\n    */\n     function tokenVestingIsRevocable() public view returns (bool) {\n        return _tokenVestingIsRevocable;\n     }\n\n    /**\n    * @dev Returns the amount tokens vested that has been released in wei.\n    * @return the amount tokens vested that has been released in wei.\n    */\n     function tokensVestedReleased() public view onlyWhenTokenVestingIsSet returns (uint256) {\n        TokenVesting vesting = TokenVesting(vestings[msg.sender]);\n        return vesting.released(address(_token));\n     }\n\n    /**\n    * @dev Returns the amount tokens vested that can be released in wei.\n    * @return the amount tokens vested that can be released in wei.\n    */\n     function tokensReleasableAmount () public view onlyWhenTokenVestingIsSet returns (uint256) {\n        TokenVesting vesting = TokenVesting(vestings[msg.sender]);\n        return vesting.releasableAmount(_token);\n     }\n\n    /**\n    * @dev Returns the amount tokens vested in wei.\n    * @return the amount tokens vested in wei.\n    */\n     function tokensVestedAmount() public view onlyWhenTokenVestingIsSet returns (uint256) {\n        TokenVesting vesting = TokenVesting(vestings[msg.sender]);\n        return vesting.vestedAmount(_token);\n     }\n\n    /**\n     * @dev Get the Token vesting contract of the user\n     */\n    function getTokenVesting() public view returns (TokenVesting) {\n        return vestings[msg.sender];\n    }\n\n    /**\n     * @dev Set the Token vesting contract of the user\n     */\n    function setTokenVesting() public  {\n        _setTokenVesting();\n    }\n\n    /**\n     * @dev Released the token vested by the user\n     */\n    function releaseTokenVested() public onlyWhenTokenVestingIsSet {\n        TokenVesting vesting = TokenVesting(vestings[msg.sender]);\n        vesting.release(_token);\n    }\n\n    /**\n     * @dev Set the Token vesting contract of the user\n     */\n    function _setTokenVesting() internal  {\n        require(address(vestings[msg.sender]) == address(0), \"Token vesting already set\");\n        TokenVesting vesting = new TokenVesting(msg.sender, _tokenVestingStartTime, _tokenVestingCliffDuration, _tokenVestingDuration, _tokenVestingIsRevocable);\n        vestings[msg.sender] = vesting;\n    }\n\n    /**\n     * @dev Source of tokens. Override this method to modify the way in which the crowdsale ultimately gets and sends\n     * its tokens.\n     * Transfer tokens to the user Token vesting contract\n     * @param beneficiary Address performing the token purchase\n     * @param tokenAmount Number of tokens to be emitted\n     */\n    function _deliverTokens(address beneficiary, uint256 tokenAmount) internal override(Crowdsale) {\n        if (address(vestings[beneficiary]) == address(0)) {\n            _setTokenVesting();\n        }\n        TokenVesting vesting = TokenVesting(vestings[beneficiary]);\n        _token.safeTransfer(address(vesting), tokenAmount);\n    }\n\n    /**\n     * @dev Extend crowdsale.\n     * @param newClosingTime Crowdsale closing time\n     */\n    function _extendTime(uint256 newClosingTime) internal {\n        require(!hasClosed(), \"TimedCrowdsale: already closed\");\n        // solhint-disable-next-line max-line-length\n        require(newClosingTime > _closingTime, \"TimedCrowdsale: new closing time is before current closing time\");\n        emit TimedCrowdsaleExtended(_closingTime, newClosingTime);\n        _closingTime = newClosingTime;\n    }\n}",
  "sourcePath": "/home/light/relsify-token/contracts/Presale.sol",
  "compiler": {
    "name": "solc",
    "version": "0.8.9+commit.e5eed63a.Emscripten.clang"
  },
  "schemaVersion": "3.4.3",
  "updatedAt": "2021-11-18T15:35:17.934Z",
  "networkType": "ethereum",
  "devdoc": {
    "events": {
      "TimedCrowdsaleExtended(uint256,uint256)": {
        "params": {
          "newClosingTime": "new closing time",
          "prevClosingTime": "old closing time"
        }
      }
    },
    "kind": "dev",
    "methods": {
      "buyTokens(address)": {
        "details": "low level token purchase ***DO NOT OVERRIDE*** This function has a non-reentrancy guard, so it shouldn't be called by another `nonReentrant` function.",
        "params": {
          "beneficiary": "Recipient of the token purchase"
        }
      },
      "cap()": {
        "details": "Returns the cap of the crowdsale.",
        "returns": {
          "_0": "the cap of the crowdsale."
        }
      },
      "capReached()": {
        "details": "Checks whether the cap has been reached.",
        "returns": {
          "_0": "Whether the cap was reached"
        }
      },
      "closingTime()": {
        "details": "Returns the crowdsale closing time.",
        "returns": {
          "_0": "the crowdsale closing time."
        }
      },
      "contributedAmount()": {
        "details": "Get the amount contributed by a user"
      },
      "extendTime(uint256)": {
        "details": "Extends the time of the crowdsale.",
        "params": {
          "newClosingTime": "The new closing time."
        }
      },
      "getTokenVesting()": {
        "details": "Get the Token vesting contract of the user"
      },
      "hasClosed()": {
        "details": "Checks whether the period in which the crowdsale is open has already elapsed.",
        "returns": {
          "_0": "Whether crowdsale period has elapsed"
        }
      },
      "isOpen()": {
        "details": "Returns true if the crowdsale is open.",
        "returns": {
          "_0": "true if the crowdsale is open, false otherwise."
        }
      },
      "openingTime()": {
        "details": "Returns the opening time of the crowdsale.",
        "returns": {
          "_0": "the crowdsale opening time."
        }
      },
      "owner()": {
        "details": "Returns the address of the current owner."
      },
      "rate()": {
        "returns": {
          "_0": "the number of token units a buyer gets per wei."
        }
      },
      "releaseTokenVested()": {
        "details": "Released the token vested by the user"
      },
      "renounceOwnership()": {
        "details": "Leaves the contract without owner. It will not be possible to call `onlyOwner` functions anymore. Can only be called by the current owner. NOTE: Renouncing ownership will leave the contract without an owner, thereby removing any functionality that is only available to the owner."
      },
      "setMaximumContribution(uint256)": {
        "details": "Sets the maximum contribution.",
        "params": {
          "maximumContribution": "The maximum contribution in wei."
        }
      },
      "setMinimumContribution(uint256)": {
        "details": "Sets the minimum contribution.",
        "params": {
          "minimumContribution": "The minimum contribution in wei."
        }
      },
      "setTokenVesting()": {
        "details": "Set the Token vesting contract of the user"
      },
      "token()": {
        "returns": {
          "_0": "the token being sold."
        }
      },
      "tokenVestingCliffDuration()": {
        "details": "Returns the token vesting cliff duration.",
        "returns": {
          "_0": "the token vesting cliff duration."
        }
      },
      "tokenVestingDuration()": {
        "details": "Returns the token vesting duration.",
        "returns": {
          "_0": "the token vesting duration."
        }
      },
      "tokenVestingIsRevocable()": {
        "details": "Returns the token vesting is revocable.",
        "returns": {
          "_0": "the token vesting is revocable."
        }
      },
      "tokenVestingStartTime()": {
        "details": "Returns the token vesting start time.",
        "returns": {
          "_0": "the token vesting start time."
        }
      },
      "tokensReleasableAmount()": {
        "details": "Returns the amount tokens vested that can be released in wei.",
        "returns": {
          "_0": "the amount tokens vested that can be released in wei."
        }
      },
      "tokensVestedAmount()": {
        "details": "Returns the amount tokens vested in wei.",
        "returns": {
          "_0": "the amount tokens vested in wei."
        }
      },
      "tokensVestedReleased()": {
        "details": "Returns the amount tokens vested that has been released in wei.",
        "returns": {
          "_0": "the amount tokens vested that has been released in wei."
        }
      },
      "transferOwnership(address)": {
        "details": "Transfers ownership of the contract to a new account (`newOwner`). Can only be called by the current owner."
      },
      "wallet()": {
        "returns": {
          "_0": "the address where funds are collected."
        }
      },
      "weiRaised()": {
        "returns": {
          "_0": "the amount of wei raised."
        }
      }
    },
    "version": 1
  },
  "userdoc": {
    "events": {
      "TimedCrowdsaleExtended(uint256,uint256)": {
        "notice": "Event for crowdsale extending"
      },
      "TokensPurchased(address,address,uint256,uint256)": {
        "notice": "Event for token purchase logging"
      }
    },
    "kind": "user",
    "methods": {},
    "version": 1
  }
}