{
  "contractName": "Presale",
  "abi": [
    {
      "inputs": [
        {
          "internalType": "uint256",
          "name": "rate",
          "type": "uint256"
        },
        {
          "internalType": "address payable",
          "name": "wallet",
          "type": "address"
        },
        {
          "internalType": "contract IERC20",
          "name": "token",
          "type": "address"
        },
        {
          "internalType": "address",
          "name": "theTokenWallet",
          "type": "address"
        },
        {
          "internalType": "uint256",
          "name": "theCap",
          "type": "uint256"
        },
        {
          "internalType": "uint256",
          "name": "theOpeningTime",
          "type": "uint256"
        },
        {
          "internalType": "uint256",
          "name": "theClosingTime",
          "type": "uint256"
        },
        {
          "internalType": "uint256",
          "name": "theMinimumContribution",
          "type": "uint256"
        },
        {
          "internalType": "uint256",
          "name": "theMaximumContribution",
          "type": "uint256"
        },
        {
          "internalType": "uint256",
          "name": "theTokenVestingStartTime",
          "type": "uint256"
        },
        {
          "internalType": "uint256",
          "name": "theTokenVestingCliffDuration",
          "type": "uint256"
        },
        {
          "internalType": "uint256",
          "name": "theTokenVestingDuration",
          "type": "uint256"
        }
      ],
      "stateMutability": "nonpayable",
      "type": "constructor"
    },
    {
      "anonymous": false,
      "inputs": [
        {
          "indexed": true,
          "internalType": "address",
          "name": "previousOwner",
          "type": "address"
        },
        {
          "indexed": true,
          "internalType": "address",
          "name": "newOwner",
          "type": "address"
        }
      ],
      "name": "OwnershipTransferred",
      "type": "event"
    },
    {
      "anonymous": false,
      "inputs": [
        {
          "indexed": false,
          "internalType": "uint256",
          "name": "prevClosingTime",
          "type": "uint256"
        },
        {
          "indexed": false,
          "internalType": "uint256",
          "name": "newClosingTime",
          "type": "uint256"
        }
      ],
      "name": "TimedCrowdsaleExtended",
      "type": "event"
    },
    {
      "anonymous": false,
      "inputs": [
        {
          "indexed": true,
          "internalType": "address",
          "name": "purchaser",
          "type": "address"
        },
        {
          "indexed": true,
          "internalType": "address",
          "name": "beneficiary",
          "type": "address"
        },
        {
          "indexed": false,
          "internalType": "uint256",
          "name": "value",
          "type": "uint256"
        },
        {
          "indexed": false,
          "internalType": "uint256",
          "name": "amount",
          "type": "uint256"
        }
      ],
      "name": "TokensPurchased",
      "type": "event"
    },
    {
      "stateMutability": "payable",
      "type": "fallback"
    },
    {
      "inputs": [
        {
          "internalType": "address",
          "name": "beneficiary",
          "type": "address"
        }
      ],
      "name": "buyTokens",
      "outputs": [],
      "stateMutability": "payable",
      "type": "function"
    },
    {
      "inputs": [],
      "name": "owner",
      "outputs": [
        {
          "internalType": "address",
          "name": "",
          "type": "address"
        }
      ],
      "stateMutability": "view",
      "type": "function"
    },
    {
      "inputs": [],
      "name": "rate",
      "outputs": [
        {
          "internalType": "uint256",
          "name": "",
          "type": "uint256"
        }
      ],
      "stateMutability": "view",
      "type": "function"
    },
    {
      "inputs": [],
      "name": "renounceOwnership",
      "outputs": [],
      "stateMutability": "nonpayable",
      "type": "function"
    },
    {
      "inputs": [],
      "name": "token",
      "outputs": [
        {
          "internalType": "contract IERC20",
          "name": "",
          "type": "address"
        }
      ],
      "stateMutability": "view",
      "type": "function"
    },
    {
      "inputs": [
        {
          "internalType": "address",
          "name": "newOwner",
          "type": "address"
        }
      ],
      "name": "transferOwnership",
      "outputs": [],
      "stateMutability": "nonpayable",
      "type": "function"
    },
    {
      "inputs": [],
      "name": "wallet",
      "outputs": [
        {
          "internalType": "address payable",
          "name": "",
          "type": "address"
        }
      ],
      "stateMutability": "view",
      "type": "function"
    },
    {
      "inputs": [],
      "name": "weiRaised",
      "outputs": [
        {
          "internalType": "uint256",
          "name": "",
          "type": "uint256"
        }
      ],
      "stateMutability": "view",
      "type": "function"
    },
    {
      "stateMutability": "payable",
      "type": "receive"
    },
    {
      "inputs": [],
      "name": "openingTime",
      "outputs": [
        {
          "internalType": "uint256",
          "name": "",
          "type": "uint256"
        }
      ],
      "stateMutability": "view",
      "type": "function"
    },
    {
      "inputs": [],
      "name": "closingTime",
      "outputs": [
        {
          "internalType": "uint256",
          "name": "",
          "type": "uint256"
        }
      ],
      "stateMutability": "view",
      "type": "function"
    },
    {
      "inputs": [],
      "name": "isOpen",
      "outputs": [
        {
          "internalType": "bool",
          "name": "",
          "type": "bool"
        }
      ],
      "stateMutability": "view",
      "type": "function"
    },
    {
      "inputs": [],
      "name": "hasClosed",
      "outputs": [
        {
          "internalType": "bool",
          "name": "",
          "type": "bool"
        }
      ],
      "stateMutability": "view",
      "type": "function"
    },
    {
      "inputs": [
        {
          "internalType": "uint256",
          "name": "newClosingTime",
          "type": "uint256"
        }
      ],
      "name": "extendTime",
      "outputs": [],
      "stateMutability": "nonpayable",
      "type": "function"
    },
    {
      "inputs": [],
      "name": "cap",
      "outputs": [
        {
          "internalType": "uint256",
          "name": "",
          "type": "uint256"
        }
      ],
      "stateMutability": "view",
      "type": "function"
    },
    {
      "inputs": [],
      "name": "capReached",
      "outputs": [
        {
          "internalType": "bool",
          "name": "",
          "type": "bool"
        }
      ],
      "stateMutability": "view",
      "type": "function"
    },
    {
      "inputs": [],
      "name": "tokenWallet",
      "outputs": [
        {
          "internalType": "address",
          "name": "",
          "type": "address"
        }
      ],
      "stateMutability": "view",
      "type": "function"
    },
    {
      "inputs": [],
      "name": "remainingTokens",
      "outputs": [
        {
          "internalType": "uint256",
          "name": "",
          "type": "uint256"
        }
      ],
      "stateMutability": "view",
      "type": "function"
    },
    {
      "inputs": [
        {
          "internalType": "uint256",
          "name": "minimumContribution",
          "type": "uint256"
        }
      ],
      "name": "setMinimumContribution",
      "outputs": [],
      "stateMutability": "nonpayable",
      "type": "function"
    },
    {
      "inputs": [
        {
          "internalType": "uint256",
          "name": "maximumContribution",
          "type": "uint256"
        }
      ],
      "name": "setMaximumContribution",
      "outputs": [],
      "stateMutability": "nonpayable",
      "type": "function"
    },
    {
      "inputs": [],
      "name": "contributedAmount",
      "outputs": [
        {
          "internalType": "uint256",
          "name": "",
          "type": "uint256"
        }
      ],
      "stateMutability": "view",
      "type": "function"
    },
    {
      "inputs": [],
      "name": "tokenVestingStartTime",
      "outputs": [
        {
          "internalType": "uint256",
          "name": "",
          "type": "uint256"
        }
      ],
      "stateMutability": "view",
      "type": "function"
    },
    {
      "inputs": [],
      "name": "tokenVestingDuration",
      "outputs": [
        {
          "internalType": "uint256",
          "name": "",
          "type": "uint256"
        }
      ],
      "stateMutability": "view",
      "type": "function"
    },
    {
      "inputs": [],
      "name": "tokenVestingCliffDuration",
      "outputs": [
        {
          "internalType": "uint256",
          "name": "",
          "type": "uint256"
        }
      ],
      "stateMutability": "view",
      "type": "function"
    },
    {
      "inputs": [],
      "name": "tokensVestedReleased",
      "outputs": [
        {
          "internalType": "uint256",
          "name": "",
          "type": "uint256"
        }
      ],
      "stateMutability": "view",
      "type": "function"
    },
    {
      "inputs": [],
      "name": "tokensReleasableAmount",
      "outputs": [
        {
          "internalType": "uint256",
          "name": "",
          "type": "uint256"
        }
      ],
      "stateMutability": "view",
      "type": "function"
    },
    {
      "inputs": [],
      "name": "tokensVestedAmount",
      "outputs": [
        {
          "internalType": "uint256",
          "name": "",
          "type": "uint256"
        }
      ],
      "stateMutability": "view",
      "type": "function"
    },
    {
      "inputs": [],
      "name": "getTokenVesting",
      "outputs": [
        {
          "internalType": "contract TokenVesting",
          "name": "",
          "type": "address"
        }
      ],
      "stateMutability": "view",
      "type": "function"
    },
    {
      "inputs": [],
      "name": "setTokenVesting",
      "outputs": [],
      "stateMutability": "nonpayable",
      "type": "function"
    },
    {
      "inputs": [],
      "name": "releaseTokenVested",
      "outputs": [],
      "stateMutability": "nonpayable",
      "type": "function"
    }
  ],
  "bytecode": "0x60806040523480156200001157600080fd5b5060405162002cc638038062002cc68339810160408190526200003491620005e2565b60016000558b8b8b826200008f5760405162461bcd60e51b815260206004820152601460248201527f43726f776473616c653a2072617465206973203000000000000000000000000060448201526064015b60405180910390fd5b6001600160a01b038216620000f55760405162461bcd60e51b815260206004820152602560248201527f43726f776473616c653a2077616c6c657420697320746865207a65726f206164604482015264647265737360d81b606482015260840162000086565b6001600160a01b038116620001595760405162461bcd60e51b8152602060048201526024808201527f43726f776473616c653a20746f6b656e20697320746865207a65726f206164646044820152637265737360e01b606482015260840162000086565b600392909255600280546001600160a01b039283166001600160a01b03199182161790915560018054929093169116179055620001963362000562565b60008811620001e85760405162461bcd60e51b815260206004820152601960248201527f43617070656443726f776473616c653a20636170206973203000000000000000604482015260640162000086565b428710156200024f5760405162461bcd60e51b8152602060048201526033602482015260008051602062002ca683398151915260448201527f6265666f72652063757272656e742074696d6500000000000000000000000000606482015260840162000086565b868611620002b55760405162461bcd60e51b8152602060048201526037602482015260008051602062002ca683398151915260448201527f6e6f74206265666f726520636c6f73696e672074696d65000000000000000000606482015260840162000086565b838511156200033d5760405162461bcd60e51b815260206004820152604760248201527f4d696e696d756d20636f6e747269627574696f6e206d757374206265206c657360448201527f73207468616e206f7220657175616c20746f206d6178696d756d20636f6e747260648201526634b13aba34b7b760c91b608482015260a40162000086565b80821115620003a35760405162461bcd60e51b815260206004820152602b60248201527f546f6b656e56657374696e673a20636c696666206973206c6f6e67657220746860448201526a30b710323ab930ba34b7b760a91b606482015260840162000086565b60008111620003f55760405162461bcd60e51b815260206004820152601b60248201527f546f6b656e56657374696e673a206475726174696f6e20697320300000000000604482015260640162000086565b42620004108285620005b460201b62000bd51790919060201c565b11620004775760405162461bcd60e51b815260206004820152602f60248201527f546f6b656e56657374696e673a2066696e616c2074696d65206973206265666f60448201526e72652063757272656e742074696d6560881b606482015260840162000086565b6001600160a01b038916620004f55760405162461bcd60e51b815260206004820152603460248201527f416c6c6f77616e636543726f776473616c653a20746f6b656e2077616c6c657460448201527f20697320746865207a65726f2061646472657373000000000000000000000000606482015260840162000086565b600a94909455600b92909255600795909555600893909355600991909155600680546001600160a01b0319166001600160a01b039590951694909417909355604080516060810182528381526020810183905201839052600e91909155600f5560105550620006b7915050565b600580546001600160a01b038381166001600160a01b0319831681179093556040519116919082907f8be0079c531659141344cd1fd0a4f28419497f9722a3daafe3b4186f6b6457e090600090a35050565b6000620005c2828462000690565b9392505050565b6001600160a01b0381168114620005df57600080fd5b50565b6000806000806000806000806000806000806101808d8f0312156200060657600080fd5b8c519b5060208d01516200061a81620005c9565b60408e0151909b506200062d81620005c9565b60608e0151909a506200064081620005c9565b8099505060808d0151975060a08d0151965060c08d0151955060e08d015194506101008d015193506101208d015192506101408d015191506101608d015190509295989b509295989b509295989b565b60008219821115620006b257634e487b7160e01b600052601160045260246000fd5b500190565b6125df80620006c76000396000f3fe608060405260043610620001f35760003560e01c80638391c87c116200010f578063bf58390311620000a3578063dba3e704116200006d578063dba3e70414620004ee578063ec8ac4d81462000513578063f2fde38b1462000524578063fc0c546a1462000549576200020c565b8063bf583903146200047b578063bff99c6c1462000493578063d6bead8414620004b3578063db1a6eaa14620004ca576200020c565b806398b4d8ae11620000e557806398b4d8ae146200040f578063a27aebbc1462000427578063b3c0e751146200044c578063b7a8807c1462000464576200020c565b80638391c87c14620003c15780638da5cb5b14620003d8578063928fd65114620003f8576200020c565b806347535d7b1162000187578063521eb273116200015d578063521eb27314620003235780635cc0c9a71462000357578063715018a6146200037c578063721723641462000394576200020c565b806347535d7b14620002dc5780634b6753bc14620002f45780634f935945146200030b576200020c565b80632c4e722e11620001c95780632c4e722e146200027f578063355274ea146200029657806337afd3d614620002ad5780634042b66f14620002c5576200020c565b80631515bc2b14620002175780631efe445c1462000240578063293d670d1462000267576200020c565b366200020c576200020a3362000569565b62000569565b005b6200020a3362000569565b3480156200022457600080fd5b5060095442115b60405190151581526020015b60405180910390f35b3480156200024d57600080fd5b506200025862000668565b60405190815260200162000237565b3480156200027457600080fd5b506200020a62000753565b3480156200028c57600080fd5b5060035462000258565b348015620002a357600080fd5b5060075462000258565b348015620002ba57600080fd5b506200020a6200081b565b348015620002d257600080fd5b5060045462000258565b348015620002e957600080fd5b506200022b62000827565b3480156200030157600080fd5b5060095462000258565b3480156200031857600080fd5b506200022b62000843565b3480156200033057600080fd5b506002546001600160a01b03165b6040516001600160a01b03909116815260200162000237565b3480156200036457600080fd5b506200020a6200037636600462001492565b62000859565b3480156200038957600080fd5b506200020a6200088b565b348015620003a157600080fd5b50336000908152600d60205260409020546001600160a01b03166200033e565b348015620003ce57600080fd5b5060105462000258565b348015620003e557600080fd5b506005546001600160a01b03166200033e565b3480156200040557600080fd5b50600e5462000258565b3480156200041c57600080fd5b5062000258620008c4565b3480156200043457600080fd5b506200020a6200044636600462001492565b6200092e565b3480156200045957600080fd5b506200025862000969565b3480156200047157600080fd5b5060085462000258565b3480156200048857600080fd5b5062000258620009d3565b348015620004a057600080fd5b506006546001600160a01b03166200033e565b348015620004c057600080fd5b50600f5462000258565b348015620004d757600080fd5b50336000908152600c602052604090205462000258565b348015620004fb57600080fd5b506200020a6200050d36600462001492565b62000b04565b6200020a62000204366004620014ac565b3480156200053157600080fd5b506200020a62000543366004620014ac565b62000b36565b3480156200055657600080fd5b506001546001600160a01b03166200033e565b60026000541415620005c25760405162461bcd60e51b815260206004820152601f60248201527f5265656e7472616e637947756172643a207265656e7472616e742063616c6c0060448201526064015b60405180910390fd5b600260005534620005d4828262000bea565b6000620005e18262000d48565b600454909150620005f3908362000bd5565b60045562000602838262000d67565b60408051838152602081018390526001600160a01b0385169133917f6faf93231a456e552dbc9961f58d9713ee4f2e69d15f1975b050ef0911053a7b910160405180910390a362000654838362000d77565b6200065e62000da3565b5050600160005550565b336000908152600d60205260408120546001600160a01b0316620006a05760405162461bcd60e51b8152600401620005b990620014d7565b336000908152600d60205260409020546001600160a01b03168063384711cc620006d26001546001600160a01b031690565b6040516001600160e01b031960e084901b1681526001600160a01b03909116600482015260240160206040518083038186803b1580156200071257600080fd5b505afa15801562000727573d6000803e3d6000fd5b505050506040513d601f19601f820116820180604052508101906200074d91906200150e565b91505090565b336000908152600d60205260409020546001600160a01b03166200078b5760405162461bcd60e51b8152600401620005b990620014d7565b336000908152600d60205260409020546001600160a01b0316806319165587620007bd6001546001600160a01b031690565b6040516001600160e01b031960e084901b1681526001600160a01b039091166004820152602401600060405180830381600087803b158015620007ff57600080fd5b505af115801562000814573d6000803e3d6000fd5b5050505050565b6200082562000ddd565b565b600060085442101580156200083e57506009544211155b905090565b60006007546200085260045490565b1015905090565b6005546001600160a01b03163314620008865760405162461bcd60e51b8152600401620005b99062001528565b600b55565b6005546001600160a01b03163314620008b85760405162461bcd60e51b8152600401620005b99062001528565b62000825600062000ee4565b336000908152600d60205260408120546001600160a01b0316620008fc5760405162461bcd60e51b8152600401620005b990620014d7565b336000908152600d60205260409020546001600160a01b031680631726cbc8620006d26001546001600160a01b031690565b6005546001600160a01b031633146200095b5760405162461bcd60e51b8152600401620005b99062001528565b620009668162000f36565b50565b336000908152600d60205260408120546001600160a01b0316620009a15760405162461bcd60e51b8152600401620005b990620014d7565b336000908152600d60205260409020546001600160a01b031680639852595c620006d26001546001600160a01b031690565b60006200083e620009ec6001546001600160a01b031690565b6006546040516370a0823160e01b81526001600160a01b0391821660048201529116906370a082319060240160206040518083038186803b15801562000a3157600080fd5b505afa15801562000a46573d6000803e3d6000fd5b505050506040513d601f19601f8201168201806040525081019062000a6c91906200150e565b6001546001600160a01b0316600654604051636eb1769f60e11b81526001600160a01b03918216600482015230602482015291169063dd62ed3e9060440160206040518083038186803b15801562000ac357600080fd5b505afa15801562000ad8573d6000803e3d6000fd5b505050506040513d601f19601f8201168201806040525081019062000afe91906200150e565b62001044565b6005546001600160a01b0316331462000b315760405162461bcd60e51b8152600401620005b99062001528565b600a55565b6005546001600160a01b0316331462000b635760405162461bcd60e51b8152600401620005b99062001528565b6001600160a01b03811662000bca5760405162461bcd60e51b815260206004820152602660248201527f4f776e61626c653a206e6577206f776e657220697320746865207a65726f206160448201526564647265737360d01b6064820152608401620005b9565b620009668162000ee4565b600062000be3828462001573565b9392505050565b62000bf462000827565b62000c425760405162461bcd60e51b815260206004820152601860248201527f54696d656443726f776473616c653a206e6f74206f70656e00000000000000006044820152606401620005b9565b62000c4e82826200105c565b60075462000c678262000c6060045490565b9062000bd5565b111562000cb75760405162461bcd60e51b815260206004820152601d60248201527f43617070656443726f776473616c653a206361702065786365656465640000006044820152606401620005b9565b600062000cc5838362001116565b9050600a54811015801562000cdc5750600b548111155b62000d435760405162461bcd60e51b815260206004820152603060248201527f436f6e747269627574696f6e206d757374206265206265747765656e206d696e60448201526f696d756d20616e64206d6178696d756d60801b6064820152608401620005b9565b505050565b600062000d61600354836200114590919063ffffffff16565b92915050565b62000d73828262001153565b5050565b62000d83828262001116565b6001600160a01b039092166000908152600c602052604090209190915550565b6002546040516001600160a01b03909116903480156108fc02916000818181858888f1935050505015801562000966573d6000803e3d6000fd5b336000908152600d60205260409020546001600160a01b03161562000e455760405162461bcd60e51b815260206004820152601960248201527f546f6b656e2076657374696e6720616c726561647920736574000000000000006044820152606401620005b9565b600033600e60000154600e60010154600e60020154600060405162000e6a9062001484565b6001600160a01b0390951685526020850193909352604084019190915260608301521515608082015260a001604051809103906000f08015801562000eb3573d6000803e3d6000fd5b50336000908152600d6020526040902080546001600160a01b0319166001600160a01b039290921691909117905550565b600580546001600160a01b038381166001600160a01b0319831681179093556040519116919082907f8be0079c531659141344cd1fd0a4f28419497f9722a3daafe3b4186f6b6457e090600090a35050565b60095442111562000f8a5760405162461bcd60e51b815260206004820152601e60248201527f54696d656443726f776473616c653a20616c726561647920636c6f73656400006044820152606401620005b9565b6009548111620010035760405162461bcd60e51b815260206004820152603f60248201527f54696d656443726f776473616c653a206e657720636c6f73696e672074696d6560448201527f206973206265666f72652063757272656e7420636c6f73696e672074696d65006064820152608401620005b9565b60095460408051918252602082018390527f46711e222f558a07afd26e5e71b48ecb0a8b2cdcd40faeb1323e05e2c76a2f32910160405180910390a1600955565b600081831062001055578162000be3565b5090919050565b6001600160a01b038216620010c75760405162461bcd60e51b815260206004820152602a60248201527f43726f776473616c653a2062656e656669636961727920697320746865207a65604482015269726f206164647265737360b01b6064820152608401620005b9565b8062000d735760405162461bcd60e51b815260206004820152601960248201527f43726f776473616c653a20776569416d6f756e742069732030000000000000006044820152606401620005b9565b6001600160a01b0382166000908152600c6020526040812054816200113c828562000bd5565b95945050505050565b600062000be382846200158e565b6001600160a01b038281166000908152600d6020526040902054166200117d576200117d62000ddd565b6001600160a01b038083166000908152600d60205260409020546006549082169162000d4391168284620011b96001546001600160a01b031690565b604080516001600160a01b038681166024830152858116604483015260648083018690528351808403909101815260849092019092526020810180516001600160e01b03166323b872dd60e01b1790529116939291906200121c90859062001222565b50505050565b600062001279826040518060400160405280602081526020017f5361666545524332303a206c6f772d6c6576656c2063616c6c206661696c6564815250856001600160a01b0316620012fb9092919063ffffffff16565b80519091501562000d4357808060200190518101906200129a9190620015b0565b62000d435760405162461bcd60e51b815260206004820152602a60248201527f5361666545524332303a204552433230206f7065726174696f6e20646964206e6044820152691bdd081cdd58d8d9595960b21b6064820152608401620005b9565b60606200130c848460008562001314565b949350505050565b606082471015620013775760405162461bcd60e51b815260206004820152602660248201527f416464726573733a20696e73756666696369656e742062616c616e636520666f6044820152651c8818d85b1b60d21b6064820152608401620005b9565b843b620013c75760405162461bcd60e51b815260206004820152601d60248201527f416464726573733a2063616c6c20746f206e6f6e2d636f6e74726163740000006044820152606401620005b9565b600080866001600160a01b03168587604051620013e5919062001603565b60006040518083038185875af1925050503d806000811462001424576040519150601f19603f3d011682016040523d82523d6000602084013e62001429565b606091505b50915091506200143b82828662001446565b979650505050505050565b606083156200145757508162000be3565b825115620014685782518084602001fd5b8160405162461bcd60e51b8152600401620005b9919062001621565b610f53806200165783390190565b600060208284031215620014a557600080fd5b5035919050565b600060208284031215620014bf57600080fd5b81356001600160a01b038116811462000be357600080fd5b60208082526019908201527f546f6b656e2076657374696e67206e6f74207365742079657400000000000000604082015260600190565b6000602082840312156200152157600080fd5b5051919050565b6020808252818101527f4f776e61626c653a2063616c6c6572206973206e6f7420746865206f776e6572604082015260600190565b634e487b7160e01b600052601160045260246000fd5b600082198211156200158957620015896200155d565b500190565b6000816000190483118215151615620015ab57620015ab6200155d565b500290565b600060208284031215620015c357600080fd5b8151801515811462000be357600080fd5b60005b83811015620015f1578181015183820152602001620015d7565b838111156200121c5750506000910152565b6000825162001617818460208701620015d4565b9190910192915050565b602081526000825180602084015262001642816040850160208701620015d4565b601f01601f1916919091016040019291505056fe60806040523480156200001157600080fd5b5060405162000f5338038062000f538339810160408190526200003491620002a6565b6200003f3362000241565b6001600160a01b038516620000b15760405162461bcd60e51b815260206004820152602d60248201527f546f6b656e56657374696e673a2062656e65666963696172792069732074686560448201526c207a65726f206164647265737360981b60648201526084015b60405180910390fd5b81831115620001175760405162461bcd60e51b815260206004820152602b60248201527f546f6b656e56657374696e673a20636c696666206973206c6f6e67657220746860448201526a30b710323ab930ba34b7b760a91b6064820152608401620000a8565b60008211620001695760405162461bcd60e51b815260206004820152601b60248201527f546f6b656e56657374696e673a206475726174696f6e206973203000000000006044820152606401620000a8565b426200018483866200029160201b620006181790919060201c565b11620001eb5760405162461bcd60e51b815260206004820152602f60248201527f546f6b656e56657374696e673a2066696e616c2074696d65206973206265666f60448201526e72652063757272656e742074696d6560881b6064820152608401620000a8565b600180546001600160a01b0319166001600160a01b0387161790556005805460ff1916821515179055600482905562000231848462000291602090811b6200061817901c565b6002555050506003555062000339565b600080546001600160a01b038381166001600160a01b0319831681178455604051919092169283917f8be0079c531659141344cd1fd0a4f28419497f9722a3daafe3b4186f6b6457e09190a35050565b60006200029f828462000312565b9392505050565b600080600080600060a08688031215620002bf57600080fd5b85516001600160a01b0381168114620002d757600080fd5b80955050602086015193506040860151925060608601519150608086015180151581146200030457600080fd5b809150509295509295909350565b600082198211156200033457634e487b7160e01b600052601160045260246000fd5b500190565b610c0a80620003496000396000f3fe608060405234801561001057600080fd5b50600436106100ea5760003560e01c806374a8f1031161008c5780639852595c116100665780639852595c146101b1578063be9a6555146101da578063f2fde38b146101e2578063fa01dc06146101f557600080fd5b806374a8f10314610176578063872a7810146101895780638da5cb5b146101a057600080fd5b806319165587116100c85780631916558714610121578063384711cc1461013657806338af3eed14610149578063715018a61461016e57600080fd5b80630fb5a6b4146100ef57806313d033c0146101065780631726cbc81461010e575b600080fd5b6004545b6040519081526020015b60405180910390f35b6002546100f3565b6100f361011c366004610a42565b610221565b61013461012f366004610a42565b610232565b005b6100f3610144366004610a42565b610329565b6001546001600160a01b03165b6040516001600160a01b0390911681526020016100fd565b610134610334565b610134610184366004610a42565b61036a565b60055460ff165b60405190151581526020016100fd565b6000546001600160a01b0316610156565b6100f36101bf366004610a42565b6001600160a01b031660009081526006602052604090205490565b6003546100f3565b6101346101f0366004610a42565b61057d565b610190610203366004610a42565b6001600160a01b031660009081526007602052604090205460ff1690565b600061022c8261062b565b92915050565b600061023d8261062b565b9050600081116102945760405162461bcd60e51b815260206004820152601f60248201527f546f6b656e56657374696e673a206e6f20746f6b656e7320617265206475650060448201526064015b60405180910390fd5b6001600160a01b0382166000908152600660205260409020546102b79082610618565b6001600160a01b038084166000818152600660205260409020929092556001546102e392911683610657565b604080516001600160a01b0384168152602081018390527fc7798891864187665ac6dd119286e44ec13f014527aeeb2b8eb3fd413df93179910160405180910390a15050565b600061022c826106ae565b6000546001600160a01b0316331461035e5760405162461bcd60e51b815260040161028b90610a5f565b61036860006107dc565b565b6000546001600160a01b031633146103945760405162461bcd60e51b815260040161028b90610a5f565b60055460ff166103e65760405162461bcd60e51b815260206004820152601b60248201527f546f6b656e56657374696e673a2063616e6e6f74207265766f6b650000000000604482015260640161028b565b6001600160a01b03811660009081526007602052604090205460ff161561045b5760405162461bcd60e51b815260206004820152602360248201527f546f6b656e56657374696e673a20746f6b656e20616c7265616479207265766f6044820152621ad95960ea1b606482015260840161028b565b6040516370a0823160e01b81523060048201526000906001600160a01b038316906370a082319060240160206040518083038186803b15801561049d57600080fd5b505afa1580156104b1573d6000803e3d6000fd5b505050506040513d601f19601f820116820180604052508101906104d59190610a94565b905060006104e28361062b565b905060006104f0838361082c565b6001600160a01b0385166000908152600760205260409020805460ff19166001179055905061053b61052a6000546001600160a01b031690565b6001600160a01b0386169083610657565b6040516001600160a01b03851681527f39983c6d4d174a7aee564f449d4a5c3c7ac9649d72b7793c56901183996f8af69060200160405180910390a150505050565b6000546001600160a01b031633146105a75760405162461bcd60e51b815260040161028b90610a5f565b6001600160a01b03811661060c5760405162461bcd60e51b815260206004820152602660248201527f4f776e61626c653a206e6577206f776e657220697320746865207a65726f206160448201526564647265737360d01b606482015260840161028b565b610615816107dc565b50565b60006106248284610ac3565b9392505050565b6001600160a01b03811660009081526006602052604081205461022c90610651846106ae565b9061082c565b604080516001600160a01b038416602482015260448082018490528251808303909101815260649091019091526020810180516001600160e01b031663a9059cbb60e01b1790526106a9908490610838565b505050565b6040516370a0823160e01b815230600482015260009081906001600160a01b038416906370a082319060240160206040518083038186803b1580156106f257600080fd5b505afa158015610706573d6000803e3d6000fd5b505050506040513d601f19601f8201168201806040525081019061072a9190610a94565b6001600160a01b03841660009081526006602052604081205491925090610752908390610618565b9050600254421015610768575060009392505050565b60045460035461077791610618565b4210158061079d57506001600160a01b03841660009081526007602052604090205460ff165b156107a9579392505050565b6107d46004546107ce6107c76003544261082c90919063ffffffff16565b849061090a565b90610916565b949350505050565b600080546001600160a01b038381166001600160a01b0319831681178455604051919092169283917f8be0079c531659141344cd1fd0a4f28419497f9722a3daafe3b4186f6b6457e09190a35050565b60006106248284610adb565b600061088d826040518060400160405280602081526020017f5361666545524332303a206c6f772d6c6576656c2063616c6c206661696c6564815250856001600160a01b03166109229092919063ffffffff16565b8051909150156106a957808060200190518101906108ab9190610af2565b6106a95760405162461bcd60e51b815260206004820152602a60248201527f5361666545524332303a204552433230206f7065726174696f6e20646964206e6044820152691bdd081cdd58d8d9595960b21b606482015260840161028b565b60006106248284610b14565b60006106248284610b33565b60606107d4848460008585843b61097b5760405162461bcd60e51b815260206004820152601d60248201527f416464726573733a2063616c6c20746f206e6f6e2d636f6e7472616374000000604482015260640161028b565b600080866001600160a01b031685876040516109979190610b85565b60006040518083038185875af1925050503d80600081146109d4576040519150601f19603f3d011682016040523d82523d6000602084013e6109d9565b606091505b50915091506109e98282866109f4565b979650505050505050565b60608315610a03575081610624565b825115610a135782518084602001fd5b8160405162461bcd60e51b815260040161028b9190610ba1565b6001600160a01b038116811461061557600080fd5b600060208284031215610a5457600080fd5b813561062481610a2d565b6020808252818101527f4f776e61626c653a2063616c6c6572206973206e6f7420746865206f776e6572604082015260600190565b600060208284031215610aa657600080fd5b5051919050565b634e487b7160e01b600052601160045260246000fd5b60008219821115610ad657610ad6610aad565b500190565b600082821015610aed57610aed610aad565b500390565b600060208284031215610b0457600080fd5b8151801515811461062457600080fd5b6000816000190483118215151615610b2e57610b2e610aad565b500290565b600082610b5057634e487b7160e01b600052601260045260246000fd5b500490565b60005b83811015610b70578181015183820152602001610b58565b83811115610b7f576000848401525b50505050565b60008251610b97818460208701610b55565b9190910192915050565b6020815260008251806020840152610bc0816040850160208701610b55565b601f01601f1916919091016040019291505056fea2646970667358221220d5b41951608377c5c176efe2110f546c3e7cb46be084ac4922fd0713a2543b2964736f6c63430008090033a26469706673582212203592acbd8b8c5dfcab6c57be85065a600daacba621819420e9d2346c779fe1f464736f6c6343000809003354696d656443726f776473616c653a206f70656e696e672074696d6520697320",
  "immutableReferences": {},
  "source": "// SPDX-License-Identifier: MIT\npragma solidity  ^0.8.0;\n\nimport \"@openzeppelin/contracts/utils/math/SafeMath.sol\";\nimport \"@openzeppelin/contracts/utils/math/Math.sol\";\nimport \"@openzeppelin/contracts/access/Ownable.sol\";\nimport \"@openzeppelin/contracts/token/ERC20/IERC20.sol\";\nimport \"@openzeppelin/contracts/token/ERC20/utils/SafeERC20.sol\";\nimport \"./crowdsale/Crowdsale.sol\";\nimport \"./utils/TokenVesting.sol\";\n\ncontract Presale is Crowdsale, Ownable {\n    using SafeMath for uint256;\n    using SafeERC20 for IERC20;\n\n    // The Token wallet\n    address private _tokenWallet;\n\n    // Cap\n    uint256 private _cap; // the cap for the crowdsale in wei\n\n    // Timed\n    uint256 private _openingTime; // the opening time of the crowdsale\n    uint256 private _closingTime; // the closing time of the crowdsale\n\n    // Investment Boundary\n    uint256 private _minimumContribution; // minimum contribution in wei\n    uint256 private _maximumContribution; // maximum contribution in wei\n    mapping(address => uint256) private contributions; // mapping of address to contribution in wei\n\n    //Token vesting account\n    mapping(address => TokenVesting) private vestings; // mapping of address to token vesting\n    struct TokenVestingConfig { \n        uint256  startTime;\n        uint256  cliffDuration;\n        uint256  duration;\n    }\n    TokenVestingConfig private _tokenVestingConfig;\n\n    /**\n     * Event for crowdsale extending\n     * @param newClosingTime new closing time\n     * @param prevClosingTime old closing time\n     */\n    event TimedCrowdsaleExtended(uint256 prevClosingTime, uint256 newClosingTime);\n\n    /**\n     * @dev Reverts if not in crowdsale time range.\n     */\n    modifier onlyWhileOpen {\n        require(isOpen(), \"TimedCrowdsale: not open\");\n        _;\n    }\n\n    constructor(\n        uint256 rate,            // rate, in TKNbits\n        address payable wallet,  // wallet to send Ether\n        IERC20 token,            // the token\n        address theTokenWallet, // The wallet to send the tokens from\n        uint256 theCap,             // total cap, in wei\n        uint256 theOpeningTime,     // opening time in unix epoch seconds\n        uint256 theClosingTime,      // closing time in unix epoch seconds\n        uint256 theMinimumContribution, // minimum contribution in wei\n        uint256 theMaximumContribution, // maximum contribution in wei\n        uint256 theTokenVestingStartTime, // token vesting start time in unix epoch seconds\n        uint256 theTokenVestingCliffDuration, // token vesting cliff duration in seconds\n        uint256 theTokenVestingDuration // token vesting duration in seconds\n    )\n        Crowdsale(rate, wallet, token)\n    {\n        require(theCap > 0, \"CappedCrowdsale: cap is 0\");\n        // solhint-disable-next-line not-rely-on-time\n        require(theOpeningTime >= block.timestamp, \"TimedCrowdsale: opening time is before current time\");\n        // solhint-disable-next-line max-line-length\n        require(theClosingTime > theOpeningTime, \"TimedCrowdsale: opening time is not before closing time\");\n        // solhint-disable-next-line max-line-length\n        require(theMinimumContribution <= theMaximumContribution, \"Minimum contribution must be less than or equal to maximum contribution\");\n        require(theTokenVestingCliffDuration <= theTokenVestingDuration, \"TokenVesting: cliff is longer than duration\");\n        require(theTokenVestingDuration > 0, \"TokenVesting: duration is 0\");\n        require(theTokenVestingStartTime.add(theTokenVestingDuration) > block.timestamp, \"TokenVesting: final time is before current time\");\n        require(theTokenWallet != address(0), \"AllowanceCrowdsale: token wallet is the zero address\");\n        _minimumContribution = theMinimumContribution;\n        _maximumContribution = theMaximumContribution;\n        _cap = theCap;\n        _openingTime = theOpeningTime;\n        _closingTime = theClosingTime;\n        _tokenWallet = theTokenWallet;\n        _tokenVestingConfig = TokenVestingConfig(\n            theTokenVestingStartTime,\n            theTokenVestingCliffDuration, \n            theTokenVestingDuration\n        );\n    }\n\n    //Timed\n\n    /**\n     * @dev Returns the opening time of the crowdsale.\n     * @return the crowdsale opening time.\n     */\n    function openingTime() public view returns (uint256) {\n        return _openingTime;\n    }\n\n    /**\n     * @dev Returns the crowdsale closing time.\n     * @return the crowdsale closing time.\n     */\n    function closingTime() public view returns (uint256) {\n        return _closingTime;\n    }\n\n    /**\n     * @dev Returns true if the crowdsale is open.\n     * @return true if the crowdsale is open, false otherwise.\n     */\n    function isOpen() public view returns (bool) {\n        // solhint-disable-next-line not-rely-on-time\n        return block.timestamp >= _openingTime && block.timestamp <= _closingTime;\n    }\n\n     /**\n     * @dev Checks whether the period in which the crowdsale is open has already elapsed.\n     * @return Whether crowdsale period has elapsed\n     */\n    function hasClosed() public view returns (bool) {\n        // solhint-disable-next-line not-rely-on-time\n        return block.timestamp > _closingTime;\n    }\n\n    /**\n     * @dev Extends the time of the crowdsale.\n     * @param newClosingTime The new closing time.\n     */\n    function extendTime(uint256 newClosingTime) public onlyOwner {\n        _extendTime(newClosingTime);\n    }\n\n    //Cappped\n\n    /**\n     * @dev Returns the cap of the crowdsale.\n     * @return the cap of the crowdsale.\n     */\n    function cap() public view returns (uint256) {\n        return _cap;\n    }\n\n    /**\n     * @dev Checks whether the cap has been reached.\n     * @return Whether the cap was reached\n     */\n    function capReached() public view returns (bool) {\n        return weiRaised() >= _cap;\n    }\n\n    // TOKEN WALLET\n\n    /**\n     * @return the address of the wallet that will hold the tokens.\n     */\n    function tokenWallet() public view returns (address) {\n        return _tokenWallet;\n    }\n\n    /**\n     * @dev Checks the amount of tokens left in the allowance.\n     * @return Amount of tokens left in the allowance\n     */\n    function remainingTokens() public view returns (uint256) {\n        return Math.min(token().balanceOf(_tokenWallet), token().allowance(_tokenWallet, address(this)));\n    }\n\n    // Investment Boundary\n\n    /**\n     * @dev Sets the minimum contribution.\n     * @param minimumContribution The minimum contribution in wei.\n     */\n    function setMinimumContribution(uint256 minimumContribution) public onlyOwner {\n        _minimumContribution = minimumContribution;\n    }\n\n    /**\n     * @dev Sets the maximum contribution.\n     * @param maximumContribution The maximum contribution in wei.\n     */\n    function setMaximumContribution(uint256 maximumContribution) public onlyOwner {\n        _maximumContribution = maximumContribution;\n    }\n\n    /**\n     * @dev Extend parent behavior requiring purchase to respect the funding cap.\n     * @param beneficiary Token purchaser\n     * @param weiAmount Amount of wei contributed\n     */\n    function _preValidatePurchase(address beneficiary, uint256 weiAmount) internal override onlyWhileOpen view {\n        super._preValidatePurchase(beneficiary, weiAmount);\n        require(weiRaised().add(weiAmount) <= _cap, \"CappedCrowdsale: cap exceeded\");\n        uint256 _totalContibutorContribution = _getTotalContibutorContribution(beneficiary, weiAmount);\n        // solhint-disable-next-line max-line-length\n        require(_totalContibutorContribution >= _minimumContribution && _totalContibutorContribution <= _maximumContribution, \"Contribution must be between minimum and maximum\");\n    }\n\n    /**\n     * @dev Extend current user contributions\n     * @param beneficiary Address receiving the tokens\n     * @param weiAmount Value in wei involved in the purchase\n     */\n    function _updatePurchasingState(address beneficiary, uint256 weiAmount) override internal {\n        contributions[beneficiary] = _getTotalContibutorContribution(beneficiary, weiAmount);\n    }\n\n    /**\n     * @dev Extend parent behavior to reset user contributions\n     * @param beneficiary Address receiving the tokens\n     * @param weiAmount Value in wei involved in the purchase\n     */\n    function _getTotalContibutorContribution(address beneficiary, uint256 weiAmount) internal  view returns (uint256) {\n        uint256 _existingContribution = contributions[beneficiary];\n        uint256 _totalContibutorContribution = _existingContribution.add(weiAmount);\n        return _totalContibutorContribution;\n    }\n\n    /**\n     * @dev Get the amount contributed by a user\n     */\n\n    function contributedAmount () public view returns (uint256) {\n        return contributions[msg.sender];\n    }\n\n    // Token Vesting\n\n    modifier onlyWhenTokenVestingIsSet {\n        require(address(vestings[msg.sender]) != address(0), \"Token vesting not set yet\");\n        _;\n     }\n    \n    /**\n    * @dev Returns the token vesting start time.\n    * @return the token vesting start time.\n    */\n     function tokenVestingStartTime() public view returns (uint256) {\n        return _tokenVestingConfig.startTime;\n     }\n\n    /**\n    * @dev Returns the token vesting duration.\n    * @return the token vesting duration.\n    */\n     function tokenVestingDuration() public view returns (uint256) {\n        return _tokenVestingConfig.duration;\n     }\n\n    /**\n    * @dev Returns the token vesting cliff duration.\n    * @return the token vesting cliff duration.\n    */\n     function tokenVestingCliffDuration() public view returns (uint256) {\n        return _tokenVestingConfig.cliffDuration;\n     }\n\n    /**\n    * @dev Returns the amount tokens vested that has been released in wei.\n    * @return the amount tokens vested that has been released in wei.\n    */\n     function tokensVestedReleased() public view onlyWhenTokenVestingIsSet returns (uint256) {\n        TokenVesting vesting = TokenVesting(vestings[msg.sender]);\n        return vesting.released(address(token()));\n     }\n\n    /**\n    * @dev Returns the amount tokens vested that can be released in wei.\n    * @return the amount tokens vested that can be released in wei.\n    */\n     function tokensReleasableAmount () public view onlyWhenTokenVestingIsSet returns (uint256) {\n        TokenVesting vesting = TokenVesting(vestings[msg.sender]);\n        return vesting.releasableAmount(token());\n     }\n\n    /**\n    * @dev Returns the amount tokens vested in wei.\n    * @return the amount tokens vested in wei.\n    */\n     function tokensVestedAmount() public view onlyWhenTokenVestingIsSet returns (uint256) {\n        TokenVesting vesting = TokenVesting(vestings[msg.sender]);\n        return vesting.vestedAmount(token());\n     }\n\n    /**\n     * @dev Get the Token vesting contract of the user\n     */\n    function getTokenVesting() public view returns (TokenVesting) {\n        return vestings[msg.sender];\n    }\n\n    /**\n     * @dev Set the Token vesting contract of the user\n     */\n    function setTokenVesting() public  {\n        _setTokenVesting();\n    }\n\n    /**\n     * @dev Released the token vested by the user\n     */\n    function releaseTokenVested() public onlyWhenTokenVestingIsSet {\n        TokenVesting vesting = TokenVesting(vestings[msg.sender]);\n        vesting.release(token());\n    }\n\n    /**\n     * @dev Set the Token vesting contract of the user\n     */\n    function _setTokenVesting() internal  {\n        require(address(vestings[msg.sender]) == address(0), \"Token vesting already set\");\n        TokenVesting vesting = new TokenVesting(\n            msg.sender,\n             _tokenVestingConfig.startTime,\n            _tokenVestingConfig.cliffDuration,\n            _tokenVestingConfig.duration,\n            false\n            );\n        vestings[msg.sender] = vesting;\n    }\n\n    /**\n     * @dev Source of tokens. Override this method to modify the way in which the crowdsale ultimately gets and sends\n     * its tokens.\n     * Transfer tokens to the user Token vesting contract\n     * @param beneficiary Address performing the token purchase\n     * @param tokenAmount Number of tokens to be emitted\n     */\n    function _deliverTokens(address beneficiary, uint256 tokenAmount) internal override(Crowdsale) {\n        if (address(vestings[beneficiary]) == address(0)) {\n            _setTokenVesting();\n        }\n        TokenVesting vesting = TokenVesting(vestings[beneficiary]);\n        token().safeTransferFrom(_tokenWallet, address(vesting), tokenAmount);\n    }\n\n    /**\n     * @dev Extend crowdsale.\n     * @param newClosingTime Crowdsale closing time\n     */\n    function _extendTime(uint256 newClosingTime) internal {\n        require(!hasClosed(), \"TimedCrowdsale: already closed\");\n        // solhint-disable-next-line max-line-length\n        require(newClosingTime > _closingTime, \"TimedCrowdsale: new closing time is before current closing time\");\n        emit TimedCrowdsaleExtended(_closingTime, newClosingTime);\n        _closingTime = newClosingTime;\n    }\n}",
  "sourcePath": "/home/light/relsify-token/contracts/Presale.sol",
  "compiler": {
    "name": "solc",
    "version": "0.8.9+commit.e5eed63a.Emscripten.clang"
  },
  "schemaVersion": "3.4.3",
  "updatedAt": "2021-11-19T11:23:51.815Z",
  "devdoc": {
    "events": {
      "TimedCrowdsaleExtended(uint256,uint256)": {
        "params": {
          "newClosingTime": "new closing time",
          "prevClosingTime": "old closing time"
        }
      }
    },
    "kind": "dev",
    "methods": {
      "buyTokens(address)": {
        "details": "low level token purchase ***DO NOT OVERRIDE*** This function has a non-reentrancy guard, so it shouldn't be called by another `nonReentrant` function.",
        "params": {
          "beneficiary": "Recipient of the token purchase"
        }
      },
      "cap()": {
        "details": "Returns the cap of the crowdsale.",
        "returns": {
          "_0": "the cap of the crowdsale."
        }
      },
      "capReached()": {
        "details": "Checks whether the cap has been reached.",
        "returns": {
          "_0": "Whether the cap was reached"
        }
      },
      "closingTime()": {
        "details": "Returns the crowdsale closing time.",
        "returns": {
          "_0": "the crowdsale closing time."
        }
      },
      "contributedAmount()": {
        "details": "Get the amount contributed by a user"
      },
      "extendTime(uint256)": {
        "details": "Extends the time of the crowdsale.",
        "params": {
          "newClosingTime": "The new closing time."
        }
      },
      "getTokenVesting()": {
        "details": "Get the Token vesting contract of the user"
      },
      "hasClosed()": {
        "details": "Checks whether the period in which the crowdsale is open has already elapsed.",
        "returns": {
          "_0": "Whether crowdsale period has elapsed"
        }
      },
      "isOpen()": {
        "details": "Returns true if the crowdsale is open.",
        "returns": {
          "_0": "true if the crowdsale is open, false otherwise."
        }
      },
      "openingTime()": {
        "details": "Returns the opening time of the crowdsale.",
        "returns": {
          "_0": "the crowdsale opening time."
        }
      },
      "owner()": {
        "details": "Returns the address of the current owner."
      },
      "rate()": {
        "returns": {
          "_0": "the number of token units a buyer gets per wei."
        }
      },
      "releaseTokenVested()": {
        "details": "Released the token vested by the user"
      },
      "remainingTokens()": {
        "details": "Checks the amount of tokens left in the allowance.",
        "returns": {
          "_0": "Amount of tokens left in the allowance"
        }
      },
      "renounceOwnership()": {
        "details": "Leaves the contract without owner. It will not be possible to call `onlyOwner` functions anymore. Can only be called by the current owner. NOTE: Renouncing ownership will leave the contract without an owner, thereby removing any functionality that is only available to the owner."
      },
      "setMaximumContribution(uint256)": {
        "details": "Sets the maximum contribution.",
        "params": {
          "maximumContribution": "The maximum contribution in wei."
        }
      },
      "setMinimumContribution(uint256)": {
        "details": "Sets the minimum contribution.",
        "params": {
          "minimumContribution": "The minimum contribution in wei."
        }
      },
      "setTokenVesting()": {
        "details": "Set the Token vesting contract of the user"
      },
      "token()": {
        "returns": {
          "_0": "the token being sold."
        }
      },
      "tokenVestingCliffDuration()": {
        "details": "Returns the token vesting cliff duration.",
        "returns": {
          "_0": "the token vesting cliff duration."
        }
      },
      "tokenVestingDuration()": {
        "details": "Returns the token vesting duration.",
        "returns": {
          "_0": "the token vesting duration."
        }
      },
      "tokenVestingStartTime()": {
        "details": "Returns the token vesting start time.",
        "returns": {
          "_0": "the token vesting start time."
        }
      },
      "tokenWallet()": {
        "returns": {
          "_0": "the address of the wallet that will hold the tokens."
        }
      },
      "tokensReleasableAmount()": {
        "details": "Returns the amount tokens vested that can be released in wei.",
        "returns": {
          "_0": "the amount tokens vested that can be released in wei."
        }
      },
      "tokensVestedAmount()": {
        "details": "Returns the amount tokens vested in wei.",
        "returns": {
          "_0": "the amount tokens vested in wei."
        }
      },
      "tokensVestedReleased()": {
        "details": "Returns the amount tokens vested that has been released in wei.",
        "returns": {
          "_0": "the amount tokens vested that has been released in wei."
        }
      },
      "transferOwnership(address)": {
        "details": "Transfers ownership of the contract to a new account (`newOwner`). Can only be called by the current owner."
      },
      "wallet()": {
        "returns": {
          "_0": "the address where funds are collected."
        }
      },
      "weiRaised()": {
        "returns": {
          "_0": "the amount of wei raised."
        }
      }
    },
    "version": 1
  },
  "userdoc": {
    "events": {
      "TimedCrowdsaleExtended(uint256,uint256)": {
        "notice": "Event for crowdsale extending"
      },
      "TokensPurchased(address,address,uint256,uint256)": {
        "notice": "Event for token purchase logging"
      }
    },
    "kind": "user",
    "methods": {},
    "version": 1
  }
}