{
  "contractName": "PublicSale",
  "abi": [
    {
      "inputs": [
        {
          "internalType": "uint256",
          "name": "rate",
          "type": "uint256"
        },
        {
          "internalType": "address payable",
          "name": "wallet",
          "type": "address"
        },
        {
          "internalType": "contract IERC20",
          "name": "token",
          "type": "address"
        },
        {
          "internalType": "address",
          "name": "theTokenWallet",
          "type": "address"
        },
        {
          "internalType": "uint256",
          "name": "theCap",
          "type": "uint256"
        },
        {
          "internalType": "uint256",
          "name": "theOpeningTime",
          "type": "uint256"
        },
        {
          "internalType": "uint256",
          "name": "theClosingTime",
          "type": "uint256"
        },
        {
          "internalType": "uint256",
          "name": "theMinimumContribution",
          "type": "uint256"
        },
        {
          "internalType": "uint256",
          "name": "theMaximumContribution",
          "type": "uint256"
        }
      ],
      "stateMutability": "nonpayable",
      "type": "constructor"
    },
    {
      "anonymous": false,
      "inputs": [
        {
          "indexed": true,
          "internalType": "address",
          "name": "previousOwner",
          "type": "address"
        },
        {
          "indexed": true,
          "internalType": "address",
          "name": "newOwner",
          "type": "address"
        }
      ],
      "name": "OwnershipTransferred",
      "type": "event"
    },
    {
      "anonymous": false,
      "inputs": [
        {
          "indexed": false,
          "internalType": "uint256",
          "name": "prevClosingTime",
          "type": "uint256"
        },
        {
          "indexed": false,
          "internalType": "uint256",
          "name": "newClosingTime",
          "type": "uint256"
        }
      ],
      "name": "TimedCrowdsaleExtended",
      "type": "event"
    },
    {
      "anonymous": false,
      "inputs": [
        {
          "indexed": true,
          "internalType": "address",
          "name": "purchaser",
          "type": "address"
        },
        {
          "indexed": true,
          "internalType": "address",
          "name": "beneficiary",
          "type": "address"
        },
        {
          "indexed": false,
          "internalType": "uint256",
          "name": "value",
          "type": "uint256"
        },
        {
          "indexed": false,
          "internalType": "uint256",
          "name": "amount",
          "type": "uint256"
        }
      ],
      "name": "TokensPurchased",
      "type": "event"
    },
    {
      "stateMutability": "payable",
      "type": "fallback"
    },
    {
      "inputs": [
        {
          "internalType": "address",
          "name": "beneficiary",
          "type": "address"
        }
      ],
      "name": "buyTokens",
      "outputs": [],
      "stateMutability": "payable",
      "type": "function"
    },
    {
      "inputs": [],
      "name": "owner",
      "outputs": [
        {
          "internalType": "address",
          "name": "",
          "type": "address"
        }
      ],
      "stateMutability": "view",
      "type": "function"
    },
    {
      "inputs": [],
      "name": "rate",
      "outputs": [
        {
          "internalType": "uint256",
          "name": "",
          "type": "uint256"
        }
      ],
      "stateMutability": "view",
      "type": "function"
    },
    {
      "inputs": [],
      "name": "renounceOwnership",
      "outputs": [],
      "stateMutability": "nonpayable",
      "type": "function"
    },
    {
      "inputs": [],
      "name": "token",
      "outputs": [
        {
          "internalType": "contract IERC20",
          "name": "",
          "type": "address"
        }
      ],
      "stateMutability": "view",
      "type": "function"
    },
    {
      "inputs": [
        {
          "internalType": "address",
          "name": "newOwner",
          "type": "address"
        }
      ],
      "name": "transferOwnership",
      "outputs": [],
      "stateMutability": "nonpayable",
      "type": "function"
    },
    {
      "inputs": [],
      "name": "wallet",
      "outputs": [
        {
          "internalType": "address payable",
          "name": "",
          "type": "address"
        }
      ],
      "stateMutability": "view",
      "type": "function"
    },
    {
      "inputs": [],
      "name": "weiRaised",
      "outputs": [
        {
          "internalType": "uint256",
          "name": "",
          "type": "uint256"
        }
      ],
      "stateMutability": "view",
      "type": "function"
    },
    {
      "stateMutability": "payable",
      "type": "receive"
    },
    {
      "inputs": [],
      "name": "openingTime",
      "outputs": [
        {
          "internalType": "uint256",
          "name": "",
          "type": "uint256"
        }
      ],
      "stateMutability": "view",
      "type": "function"
    },
    {
      "inputs": [],
      "name": "closingTime",
      "outputs": [
        {
          "internalType": "uint256",
          "name": "",
          "type": "uint256"
        }
      ],
      "stateMutability": "view",
      "type": "function"
    },
    {
      "inputs": [],
      "name": "isOpen",
      "outputs": [
        {
          "internalType": "bool",
          "name": "",
          "type": "bool"
        }
      ],
      "stateMutability": "view",
      "type": "function"
    },
    {
      "inputs": [],
      "name": "hasClosed",
      "outputs": [
        {
          "internalType": "bool",
          "name": "",
          "type": "bool"
        }
      ],
      "stateMutability": "view",
      "type": "function"
    },
    {
      "inputs": [
        {
          "internalType": "uint256",
          "name": "newClosingTime",
          "type": "uint256"
        }
      ],
      "name": "extendTime",
      "outputs": [],
      "stateMutability": "nonpayable",
      "type": "function"
    },
    {
      "inputs": [],
      "name": "cap",
      "outputs": [
        {
          "internalType": "uint256",
          "name": "",
          "type": "uint256"
        }
      ],
      "stateMutability": "view",
      "type": "function"
    },
    {
      "inputs": [],
      "name": "capReached",
      "outputs": [
        {
          "internalType": "bool",
          "name": "",
          "type": "bool"
        }
      ],
      "stateMutability": "view",
      "type": "function"
    },
    {
      "inputs": [],
      "name": "tokenWallet",
      "outputs": [
        {
          "internalType": "address",
          "name": "",
          "type": "address"
        }
      ],
      "stateMutability": "view",
      "type": "function"
    },
    {
      "inputs": [],
      "name": "remainingTokens",
      "outputs": [
        {
          "internalType": "uint256",
          "name": "",
          "type": "uint256"
        }
      ],
      "stateMutability": "view",
      "type": "function"
    },
    {
      "inputs": [],
      "name": "minimumContribution",
      "outputs": [
        {
          "internalType": "uint256",
          "name": "",
          "type": "uint256"
        }
      ],
      "stateMutability": "view",
      "type": "function"
    },
    {
      "inputs": [],
      "name": "maximumContribution",
      "outputs": [
        {
          "internalType": "uint256",
          "name": "",
          "type": "uint256"
        }
      ],
      "stateMutability": "view",
      "type": "function"
    },
    {
      "inputs": [
        {
          "internalType": "uint256",
          "name": "theMinimumContribution",
          "type": "uint256"
        }
      ],
      "name": "setMinimumContribution",
      "outputs": [],
      "stateMutability": "nonpayable",
      "type": "function"
    },
    {
      "inputs": [
        {
          "internalType": "uint256",
          "name": "theMaximumContribution",
          "type": "uint256"
        }
      ],
      "name": "setMaximumContribution",
      "outputs": [],
      "stateMutability": "nonpayable",
      "type": "function"
    },
    {
      "inputs": [],
      "name": "contributedAmount",
      "outputs": [
        {
          "internalType": "uint256",
          "name": "",
          "type": "uint256"
        }
      ],
      "stateMutability": "view",
      "type": "function"
    }
  ],
  "bytecode": "0x60806040523480156200001157600080fd5b50604051620014bd380380620014bd83398101604081905262000034916200041d565b6001600055888888826200008f5760405162461bcd60e51b815260206004820152601460248201527f43726f776473616c653a2072617465206973203000000000000000000000000060448201526064015b60405180910390fd5b6001600160a01b038216620000f55760405162461bcd60e51b815260206004820152602560248201527f43726f776473616c653a2077616c6c657420697320746865207a65726f206164604482015264647265737360d81b606482015260840162000086565b6001600160a01b038116620001595760405162461bcd60e51b8152602060048201526024808201527f43726f776473616c653a20746f6b656e20697320746865207a65726f206164646044820152637265737360e01b606482015260840162000086565b600392909255600280546001600160a01b039283166001600160a01b031991821617909155600180549290931691161790556200019633620003b2565b60008511620001d35760405162461bcd60e51b8152602060048201526008602482015267043617020697320360c41b604482015260640162000086565b42841015620002315760405162461bcd60e51b815260206004820152602360248201527f4f70656e696e672074696d65206973206265666f72652063757272656e742074604482015262696d6560e81b606482015260840162000086565b838311620002925760405162461bcd60e51b815260206004820152602760248201527f4f70656e696e672074696d65206973206e6f74206265666f726520636c6f73696044820152666e672074696d6560c81b606482015260840162000086565b808211156200031a5760405162461bcd60e51b815260206004820152604760248201527f4d696e696d756d20636f6e747269627574696f6e206d757374206265206c657360448201527f73207468616e206f7220657175616c20746f206d6178696d756d20636f6e747260648201526634b13aba34b7b760c91b608482015260a40162000086565b6001600160a01b038616620003725760405162461bcd60e51b815260206004820181905260248201527f546f6b656e2077616c6c657420697320746865207a65726f2061646472657373604482015260640162000086565b600680546001600160a01b0319166001600160a01b039790971696909617909555600a55600b9390935560079190915560085560095550620004ac915050565b600580546001600160a01b038381166001600160a01b0319831681179093556040519116919082907f8be0079c531659141344cd1fd0a4f28419497f9722a3daafe3b4186f6b6457e090600090a35050565b6001600160a01b03811681146200041a57600080fd5b50565b60008060008060008060008060006101208a8c0312156200043d57600080fd5b8951985060208a0151620004518162000404565b60408b0151909850620004648162000404565b60608b0151909750620004778162000404565b8096505060808a0151945060a08a0151935060c08a0151925060e08a015191506101008a015190509295985092959850929598565b61100180620004bc6000396000f3fe6080604052600436106101395760003560e01c8063937e09b1116100ab578063bff99c6c1161006f578063bff99c6c14610300578063db1a6eaa1461031e578063dba3e70414610340578063ec8ac4d814610360578063f2fde38b1461036e578063fc0c546a1461038e5761014e565b8063937e09b11461028c5780639c2fcd45146102a1578063a27aebbc146102b6578063b7a8807c146102d6578063bf583903146102eb5761014e565b80634b6753bc116100fd5780634b6753bc146101dd5780634f935945146101f2578063521eb273146102075780635cc0c9a714610239578063715018a6146102595780638da5cb5b1461026e5761014e565b80631515bc2b146101575780632c4e722e1461017f578063355274ea1461019e5780634042b66f146101b357806347535d7b146101c85761014e565b3661014e5761014c336103ac565b6103ac565b005b61014c336103ac565b34801561016357600080fd5b5060095442115b60405190151581526020015b60405180910390f35b34801561018b57600080fd5b506003545b604051908152602001610176565b3480156101aa57600080fd5b50600754610190565b3480156101bf57600080fd5b50600454610190565b3480156101d457600080fd5b5061016a61049e565b3480156101e957600080fd5b50600954610190565b3480156101fe57600080fd5b5061016a6104b9565b34801561021357600080fd5b506002546001600160a01b03165b6040516001600160a01b039091168152602001610176565b34801561024557600080fd5b5061014c610254366004610e51565b6104ce565b34801561026557600080fd5b5061014c6104fd565b34801561027a57600080fd5b506005546001600160a01b0316610221565b34801561029857600080fd5b50600a54610190565b3480156102ad57600080fd5b50600b54610190565b3480156102c257600080fd5b5061014c6102d1366004610e51565b610533565b3480156102e257600080fd5b50600854610190565b3480156102f757600080fd5b50610190610569565b34801561030c57600080fd5b506006546001600160a01b0316610221565b34801561032a57600080fd5b50336000908152600c6020526040902054610190565b34801561034c57600080fd5b5061014c61035b366004610e51565b61068f565b61014c610147366004610e6a565b34801561037a57600080fd5b5061014c610389366004610e6a565b6106be565b34801561039a57600080fd5b506001546001600160a01b0316610221565b600260005414156104045760405162461bcd60e51b815260206004820152601f60248201527f5265656e7472616e637947756172643a207265656e7472616e742063616c6c0060448201526064015b60405180910390fd5b6002600055346104148282610756565b600061041f82610888565b60045490915061042f90836108a5565b60045561043c83826108b8565b60408051838152602081018390526001600160a01b0385169133917f6faf93231a456e552dbc9961f58d9713ee4f2e69d15f1975b050ef0911053a7b910160405180910390a361048c83836108c6565b6104946108f0565b5050600160005550565b600060085442101580156104b457506009544211155b905090565b60006007546104c760045490565b1015905090565b6005546001600160a01b031633146104f85760405162461bcd60e51b81526004016103fb90610e93565b600b55565b6005546001600160a01b031633146105275760405162461bcd60e51b81526004016103fb90610e93565b6105316000610929565b565b6005546001600160a01b0316331461055d5760405162461bcd60e51b81526004016103fb90610e93565b6105668161097b565b50565b60006104b46105806001546001600160a01b031690565b6006546040516370a0823160e01b81526001600160a01b0391821660048201529116906370a082319060240160206040518083038186803b1580156105c457600080fd5b505afa1580156105d8573d6000803e3d6000fd5b505050506040513d601f19601f820116820180604052508101906105fc9190610ec8565b6001546001600160a01b0316600654604051636eb1769f60e11b81526001600160a01b03918216600482015230602482015291169063dd62ed3e9060440160206040518083038186803b15801561065257600080fd5b505afa158015610666573d6000803e3d6000fd5b505050506040513d601f19601f8201168201806040525081019061068a9190610ec8565b610a77565b6005546001600160a01b031633146106b95760405162461bcd60e51b81526004016103fb90610e93565b600a55565b6005546001600160a01b031633146106e85760405162461bcd60e51b81526004016103fb90610e93565b6001600160a01b03811661074d5760405162461bcd60e51b815260206004820152602660248201527f4f776e61626c653a206e6577206f776e657220697320746865207a65726f206160448201526564647265737360d01b60648201526084016103fb565b61056681610929565b61075e61049e565b61079f5760405162461bcd60e51b815260206004820152601260248201527121b937bbb239b0b632903737ba1037b832b760711b60448201526064016103fb565b6107a98282610a8d565b6007546107bf826107b960045490565b906108a5565b11156107fc5760405162461bcd60e51b815260206004820152600c60248201526b10d85c08195e18d95959195960a21b60448201526064016103fb565b60006108088383610b43565b9050600a54811015801561081e5750600b548111155b6108835760405162461bcd60e51b815260206004820152603060248201527f436f6e747269627574696f6e206d757374206265206265747765656e206d696e60448201526f696d756d20616e64206d6178696d756d60801b60648201526084016103fb565b505050565b600061089f60035483610b7090919063ffffffff16565b92915050565b60006108b18284610ef7565b9392505050565b6108c28282610b7c565b5050565b6108d08282610b43565b6001600160a01b039092166000908152600c602052604090209190915550565b6002546040516001600160a01b03909116903480156108fc02916000818181858888f19350505050158015610566573d6000803e3d6000fd5b600580546001600160a01b038381166001600160a01b0319831681179093556040519116919082907f8be0079c531659141344cd1fd0a4f28419497f9722a3daafe3b4186f6b6457e090600090a35050565b6009544211156109cd5760405162461bcd60e51b815260206004820152601860248201527f43726f776473616c6520616c726561647920636c6f736564000000000000000060448201526064016103fb565b6009548111610a365760405162461bcd60e51b815260206004820152602f60248201527f4e657720636c6f73696e672074696d65206973206265666f726520637572726560448201526e6e7420636c6f73696e672074696d6560881b60648201526084016103fb565b60095460408051918252602082018390527f46711e222f558a07afd26e5e71b48ecb0a8b2cdcd40faeb1323e05e2c76a2f32910160405180910390a1600955565b6000818310610a8657816108b1565b5090919050565b6001600160a01b038216610af65760405162461bcd60e51b815260206004820152602a60248201527f43726f776473616c653a2062656e656669636961727920697320746865207a65604482015269726f206164647265737360b01b60648201526084016103fb565b806108c25760405162461bcd60e51b815260206004820152601960248201527f43726f776473616c653a20776569416d6f756e7420697320300000000000000060448201526064016103fb565b6001600160a01b0382166000908152600c602052604081205481610b6782856108a5565b95945050505050565b60006108b18284610f0f565b6006546108c2906001600160a01b03168383610ba06001546001600160a01b031690565b604080516001600160a01b038681166024830152858116604483015260648083018690528351808403909101815260849092019092526020810180516001600160e01b03166323b872dd60e01b179052911693929190610c01908590610c07565b50505050565b6000610c5c826040518060400160405280602081526020017f5361666545524332303a206c6f772d6c6576656c2063616c6c206661696c6564815250856001600160a01b0316610cd99092919063ffffffff16565b8051909150156108835780806020019051810190610c7a9190610f2e565b6108835760405162461bcd60e51b815260206004820152602a60248201527f5361666545524332303a204552433230206f7065726174696f6e20646964206e6044820152691bdd081cdd58d8d9595960b21b60648201526084016103fb565b6060610ce88484600085610cf0565b949350505050565b606082471015610d515760405162461bcd60e51b815260206004820152602660248201527f416464726573733a20696e73756666696369656e742062616c616e636520666f6044820152651c8818d85b1b60d21b60648201526084016103fb565b843b610d9f5760405162461bcd60e51b815260206004820152601d60248201527f416464726573733a2063616c6c20746f206e6f6e2d636f6e747261637400000060448201526064016103fb565b600080866001600160a01b03168587604051610dbb9190610f7c565b60006040518083038185875af1925050503d8060008114610df8576040519150601f19603f3d011682016040523d82523d6000602084013e610dfd565b606091505b5091509150610e0d828286610e18565b979650505050505050565b60608315610e275750816108b1565b825115610e375782518084602001fd5b8160405162461bcd60e51b81526004016103fb9190610f98565b600060208284031215610e6357600080fd5b5035919050565b600060208284031215610e7c57600080fd5b81356001600160a01b03811681146108b157600080fd5b6020808252818101527f4f776e61626c653a2063616c6c6572206973206e6f7420746865206f776e6572604082015260600190565b600060208284031215610eda57600080fd5b5051919050565b634e487b7160e01b600052601160045260246000fd5b60008219821115610f0a57610f0a610ee1565b500190565b6000816000190483118215151615610f2957610f29610ee1565b500290565b600060208284031215610f4057600080fd5b815180151581146108b157600080fd5b60005b83811015610f6b578181015183820152602001610f53565b83811115610c015750506000910152565b60008251610f8e818460208701610f50565b9190910192915050565b6020815260008251806020840152610fb7816040850160208701610f50565b601f01601f1916919091016040019291505056fea2646970667358221220260f9a3568f4a991ca36da72fc055df35770ddf549d217137121e78d2c9a277864736f6c63430008090033",
  "immutableReferences": {},
  "source": "// SPDX-License-Identifier: MIT\npragma solidity  ^0.8.0;\n\nimport \"@openzeppelin/contracts/utils/math/SafeMath.sol\";\nimport \"@openzeppelin/contracts/utils/math/Math.sol\";\nimport \"@openzeppelin/contracts/access/Ownable.sol\";\nimport \"@openzeppelin/contracts/token/ERC20/IERC20.sol\";\nimport \"@openzeppelin/contracts/token/ERC20/utils/SafeERC20.sol\";\nimport \"./crowdsale/Crowdsale.sol\";\n\ncontract PublicSale is Crowdsale, Ownable {\n    using SafeMath for uint256;\n    using SafeERC20 for IERC20;\n\n    // The Token wallet\n    address private _tokenWallet;\n\n    // Cap\n    uint256 private _cap; // the cap for the crowdsale in wei\n\n    // Timed\n    uint256 private _openingTime; // the opening time of the crowdsale\n    uint256 private _closingTime; // the closing time of the crowdsale\n\n    // Investment Boundary\n    uint256 private _minimumContribution; // minimum contribution in wei\n    uint256 private _maximumContribution; // maximum contribution in wei\n    mapping(address => uint256) private contributions; // mapping of address to contribution in wei\n\n    /**\n     * Event for crowdsale extending\n     * @param newClosingTime new closing time\n     * @param prevClosingTime old closing time\n     */\n    event TimedCrowdsaleExtended(uint256 prevClosingTime, uint256 newClosingTime);\n\n    /**\n     * @dev Reverts if not in crowdsale time range.\n     */\n    modifier onlyWhileOpen {\n        require(isOpen(), \"Crowdsale not open\");\n        _;\n    }\n\n    constructor(\n        uint256 rate,            // rate, in TKNbits\n        address payable wallet,  // wallet to send Ether\n        IERC20 token,            // the token\n        address theTokenWallet, // The wallet to send the tokens from\n        uint256 theCap,             // total cap, in wei\n        uint256 theOpeningTime,     // opening time in unix epoch seconds\n        uint256 theClosingTime,      // closing time in unix epoch seconds\n        uint256 theMinimumContribution, // minimum contribution in wei\n        uint256 theMaximumContribution // maximum contribution in wei\n    )\n        Crowdsale(rate, wallet, token)\n    {\n        require(theCap > 0, \"Cap is 0\");\n        // solhint-disable-next-line not-rely-on-time\n        require(theOpeningTime >= block.timestamp, \"Opening time is before current time\");\n        // solhint-disable-next-line max-line-length\n        require(theClosingTime > theOpeningTime, \"Opening time is not before closing time\");\n        // solhint-disable-next-line max-line-length\n        require(theMinimumContribution <= theMaximumContribution, \"Minimum contribution must be less than or equal to maximum contribution\");\n        require(theTokenWallet != address(0), \"Token wallet is the zero address\");\n        _tokenWallet = theTokenWallet;\n        _minimumContribution = theMinimumContribution;\n        _maximumContribution = theMaximumContribution;\n        _cap = theCap;\n        _openingTime = theOpeningTime;\n        _closingTime = theClosingTime;\n    }\n\n    //Timed\n\n    /**\n     * @dev Returns the opening time of the crowdsale.\n     * @return the crowdsale opening time.\n     */\n    function openingTime() public view returns (uint256) {\n        return _openingTime;\n    }\n\n    /**\n     * @dev Returns the crowdsale closing time.\n     * @return the crowdsale closing time.\n     */\n    function closingTime() public view returns (uint256) {\n        return _closingTime;\n    }\n\n    /**\n     * @dev Returns true if the crowdsale is open.\n     * @return true if the crowdsale is open, false otherwise.\n     */\n    function isOpen() public view returns (bool) {\n        // solhint-disable-next-line not-rely-on-time\n        return block.timestamp >= _openingTime && block.timestamp <= _closingTime;\n    }\n\n     /**\n     * @dev Checks whether the period in which the crowdsale is open has already elapsed.\n     * @return Whether crowdsale period has elapsed\n     */\n    function hasClosed() public view returns (bool) {\n        // solhint-disable-next-line not-rely-on-time\n        return block.timestamp > _closingTime;\n    }\n\n    /**\n     * @dev Extends the time of the crowdsale.\n     * @param newClosingTime The new closing time.\n     */\n    function extendTime(uint256 newClosingTime) public onlyOwner {\n        _extendTime(newClosingTime);\n    }\n\n    //Cappped\n\n    /**\n     * @dev Returns the cap of the crowdsale.\n     * @return the cap of the crowdsale.\n     */\n    function cap() public view returns (uint256) {\n        return _cap;\n    }\n\n    /**\n     * @dev Checks whether the cap has been reached.\n     * @return Whether the cap was reached\n     */\n    function capReached() public view returns (bool) {\n        return weiRaised() >= _cap;\n    }\n\n    // TOKEN WALLET\n\n    /**\n     * @return the address of the wallet that will hold the tokens.\n     */\n    function tokenWallet() public view returns (address) {\n        return _tokenWallet;\n    }\n\n    /**\n     * @dev Checks the amount of tokens left in the allowance.\n     * @return Amount of tokens left in the allowance\n     */\n    function remainingTokens() public view returns (uint256) {\n        return Math.min(token().balanceOf(_tokenWallet), token().allowance(_tokenWallet, address(this)));\n    }\n\n    // Investment Boundary\n\n    /**\n     * @dev Gets the minimum contribution in wei\n     * @return The minimum contribution in wei\n     */\n    function minimumContribution() public view returns (uint256) {\n        return _minimumContribution;\n    }\n\n    /**\n     * @dev Gets the maximum contribution in wei\n     * @return The maximum contribution in wei\n     */\n    function maximumContribution() public view returns (uint256) {\n        return _maximumContribution;\n    }\n\n    /**\n     * @dev Sets the minimum contribution.\n     * @param theMinimumContribution The minimum contribution in wei.\n     */\n    function setMinimumContribution(uint256 theMinimumContribution) public onlyOwner {\n        _minimumContribution = theMinimumContribution;\n    }\n\n    /**\n     * @dev Sets the maximum contribution.\n     * @param theMaximumContribution The maximum contribution in wei.\n     */\n    function setMaximumContribution(uint256 theMaximumContribution) public onlyOwner {\n        _maximumContribution = theMaximumContribution;\n    }\n\n     /**\n     * @dev Get the amount contributed by a user\n     */\n\n    function contributedAmount () public view returns (uint256) {\n        return contributions[msg.sender];\n    }\n\n    /**\n     * @dev Extend parent behavior requiring purchase to respect the funding cap.\n     * @param beneficiary Token purchaser\n     * @param weiAmount Amount of wei contributed\n     */\n    function _preValidatePurchase(address beneficiary, uint256 weiAmount) internal override onlyWhileOpen view {\n        super._preValidatePurchase(beneficiary, weiAmount);\n        require(weiRaised().add(weiAmount) <= _cap, \"Cap exceeded\");\n        uint256 _totalContibutorContribution = _getTotalContibutorContribution(beneficiary, weiAmount);\n        // solhint-disable-next-line max-line-length\n        require(_totalContibutorContribution >= _minimumContribution && _totalContibutorContribution <= _maximumContribution, \"Contribution must be between minimum and maximum\");\n    }\n\n    /**\n     * @dev Extend current user contributions\n     * @param beneficiary Address receiving the tokens\n     * @param weiAmount Value in wei involved in the purchase\n     */\n    function _updatePurchasingState(address beneficiary, uint256 weiAmount) override internal {\n        contributions[beneficiary] = _getTotalContibutorContribution(beneficiary, weiAmount);\n    }\n\n    /**\n     * @dev Extend parent behavior to reset user contributions\n     * @param beneficiary Address receiving the tokens\n     * @param weiAmount Value in wei involved in the purchase\n     */\n    function _getTotalContibutorContribution(address beneficiary, uint256 weiAmount) internal  view returns (uint256) {\n        uint256 _existingContribution = contributions[beneficiary];\n        uint256 _totalContibutorContribution = _existingContribution.add(weiAmount);\n        return _totalContibutorContribution;\n    }\n\n     /**\n     * @dev Source of tokens. Override this method to modify the way in which the crowdsale ultimately gets and sends\n     * its tokens.\n     * Transfer tokens to the user Token vesting contract\n     * @param beneficiary Address performing the token purchase\n     * @param tokenAmount Number of tokens to be emitted\n     */\n    function _deliverTokens(address beneficiary, uint256 tokenAmount) internal override(Crowdsale) {\n        token().safeTransferFrom(_tokenWallet, beneficiary, tokenAmount);\n    }\n\n    /**\n     * @dev Extend crowdsale.\n     * @param newClosingTime Crowdsale closing time\n     */\n    function _extendTime(uint256 newClosingTime) internal {\n        require(!hasClosed(), \"Crowdsale already closed\");\n        // solhint-disable-next-line max-line-length\n        require(newClosingTime > _closingTime, \"New closing time is before current closing time\");\n        emit TimedCrowdsaleExtended(_closingTime, newClosingTime);\n        _closingTime = newClosingTime;\n    }\n}",
  "sourcePath": "/home/light/relsify-token/contracts/PublicSale.sol",
  "compiler": {
    "name": "solc",
    "version": "0.8.9+commit.e5eed63a.Emscripten.clang"
  },
  "schemaVersion": "3.4.3",
  "updatedAt": "2021-11-20T17:30:02.042Z",
  "devdoc": {
    "events": {
      "TimedCrowdsaleExtended(uint256,uint256)": {
        "params": {
          "newClosingTime": "new closing time",
          "prevClosingTime": "old closing time"
        }
      }
    },
    "kind": "dev",
    "methods": {
      "buyTokens(address)": {
        "details": "low level token purchase ***DO NOT OVERRIDE*** This function has a non-reentrancy guard, so it shouldn't be called by another `nonReentrant` function.",
        "params": {
          "beneficiary": "Recipient of the token purchase"
        }
      },
      "cap()": {
        "details": "Returns the cap of the crowdsale.",
        "returns": {
          "_0": "the cap of the crowdsale."
        }
      },
      "capReached()": {
        "details": "Checks whether the cap has been reached.",
        "returns": {
          "_0": "Whether the cap was reached"
        }
      },
      "closingTime()": {
        "details": "Returns the crowdsale closing time.",
        "returns": {
          "_0": "the crowdsale closing time."
        }
      },
      "contributedAmount()": {
        "details": "Get the amount contributed by a user"
      },
      "extendTime(uint256)": {
        "details": "Extends the time of the crowdsale.",
        "params": {
          "newClosingTime": "The new closing time."
        }
      },
      "hasClosed()": {
        "details": "Checks whether the period in which the crowdsale is open has already elapsed.",
        "returns": {
          "_0": "Whether crowdsale period has elapsed"
        }
      },
      "isOpen()": {
        "details": "Returns true if the crowdsale is open.",
        "returns": {
          "_0": "true if the crowdsale is open, false otherwise."
        }
      },
      "maximumContribution()": {
        "details": "Gets the maximum contribution in wei",
        "returns": {
          "_0": "The maximum contribution in wei"
        }
      },
      "minimumContribution()": {
        "details": "Gets the minimum contribution in wei",
        "returns": {
          "_0": "The minimum contribution in wei"
        }
      },
      "openingTime()": {
        "details": "Returns the opening time of the crowdsale.",
        "returns": {
          "_0": "the crowdsale opening time."
        }
      },
      "owner()": {
        "details": "Returns the address of the current owner."
      },
      "rate()": {
        "returns": {
          "_0": "the number of token units a buyer gets per wei."
        }
      },
      "remainingTokens()": {
        "details": "Checks the amount of tokens left in the allowance.",
        "returns": {
          "_0": "Amount of tokens left in the allowance"
        }
      },
      "renounceOwnership()": {
        "details": "Leaves the contract without owner. It will not be possible to call `onlyOwner` functions anymore. Can only be called by the current owner. NOTE: Renouncing ownership will leave the contract without an owner, thereby removing any functionality that is only available to the owner."
      },
      "setMaximumContribution(uint256)": {
        "details": "Sets the maximum contribution.",
        "params": {
          "theMaximumContribution": "The maximum contribution in wei."
        }
      },
      "setMinimumContribution(uint256)": {
        "details": "Sets the minimum contribution.",
        "params": {
          "theMinimumContribution": "The minimum contribution in wei."
        }
      },
      "token()": {
        "returns": {
          "_0": "the token being sold."
        }
      },
      "tokenWallet()": {
        "returns": {
          "_0": "the address of the wallet that will hold the tokens."
        }
      },
      "transferOwnership(address)": {
        "details": "Transfers ownership of the contract to a new account (`newOwner`). Can only be called by the current owner."
      },
      "wallet()": {
        "returns": {
          "_0": "the address where funds are collected."
        }
      },
      "weiRaised()": {
        "returns": {
          "_0": "the amount of wei raised."
        }
      }
    },
    "version": 1
  },
  "userdoc": {
    "events": {
      "TimedCrowdsaleExtended(uint256,uint256)": {
        "notice": "Event for crowdsale extending"
      },
      "TokensPurchased(address,address,uint256,uint256)": {
        "notice": "Event for token purchase logging"
      }
    },
    "kind": "user",
    "methods": {},
    "version": 1
  }
}