{
  "contractName": "PublicSale",
  "abi": [
    {
      "inputs": [
        {
          "internalType": "uint256",
          "name": "rate",
          "type": "uint256"
        },
        {
          "internalType": "address payable",
          "name": "wallet",
          "type": "address"
        },
        {
          "internalType": "contract IERC20",
          "name": "token",
          "type": "address"
        },
        {
          "internalType": "uint256",
          "name": "theCap",
          "type": "uint256"
        },
        {
          "internalType": "uint256",
          "name": "theOpeningTime",
          "type": "uint256"
        },
        {
          "internalType": "uint256",
          "name": "theClosingTime",
          "type": "uint256"
        },
        {
          "internalType": "uint256",
          "name": "theMinimumContribution",
          "type": "uint256"
        },
        {
          "internalType": "uint256",
          "name": "theMaximumContribution",
          "type": "uint256"
        }
      ],
      "stateMutability": "nonpayable",
      "type": "constructor"
    },
    {
      "anonymous": false,
      "inputs": [
        {
          "indexed": true,
          "internalType": "address",
          "name": "previousOwner",
          "type": "address"
        },
        {
          "indexed": true,
          "internalType": "address",
          "name": "newOwner",
          "type": "address"
        }
      ],
      "name": "OwnershipTransferred",
      "type": "event"
    },
    {
      "anonymous": false,
      "inputs": [
        {
          "indexed": false,
          "internalType": "uint256",
          "name": "prevClosingTime",
          "type": "uint256"
        },
        {
          "indexed": false,
          "internalType": "uint256",
          "name": "newClosingTime",
          "type": "uint256"
        }
      ],
      "name": "TimedCrowdsaleExtended",
      "type": "event"
    },
    {
      "anonymous": false,
      "inputs": [
        {
          "indexed": true,
          "internalType": "address",
          "name": "purchaser",
          "type": "address"
        },
        {
          "indexed": true,
          "internalType": "address",
          "name": "beneficiary",
          "type": "address"
        },
        {
          "indexed": false,
          "internalType": "uint256",
          "name": "value",
          "type": "uint256"
        },
        {
          "indexed": false,
          "internalType": "uint256",
          "name": "amount",
          "type": "uint256"
        }
      ],
      "name": "TokensPurchased",
      "type": "event"
    },
    {
      "stateMutability": "payable",
      "type": "fallback",
      "payable": true
    },
    {
      "inputs": [
        {
          "internalType": "address",
          "name": "beneficiary",
          "type": "address"
        }
      ],
      "name": "buyTokens",
      "outputs": [],
      "stateMutability": "payable",
      "type": "function",
      "payable": true
    },
    {
      "inputs": [],
      "name": "owner",
      "outputs": [
        {
          "internalType": "address",
          "name": "",
          "type": "address"
        }
      ],
      "stateMutability": "view",
      "type": "function",
      "constant": true
    },
    {
      "inputs": [],
      "name": "rate",
      "outputs": [
        {
          "internalType": "uint256",
          "name": "",
          "type": "uint256"
        }
      ],
      "stateMutability": "view",
      "type": "function",
      "constant": true
    },
    {
      "inputs": [],
      "name": "renounceOwnership",
      "outputs": [],
      "stateMutability": "nonpayable",
      "type": "function"
    },
    {
      "inputs": [],
      "name": "token",
      "outputs": [
        {
          "internalType": "contract IERC20",
          "name": "",
          "type": "address"
        }
      ],
      "stateMutability": "view",
      "type": "function",
      "constant": true
    },
    {
      "inputs": [
        {
          "internalType": "address",
          "name": "newOwner",
          "type": "address"
        }
      ],
      "name": "transferOwnership",
      "outputs": [],
      "stateMutability": "nonpayable",
      "type": "function"
    },
    {
      "inputs": [],
      "name": "wallet",
      "outputs": [
        {
          "internalType": "address payable",
          "name": "",
          "type": "address"
        }
      ],
      "stateMutability": "view",
      "type": "function",
      "constant": true
    },
    {
      "inputs": [],
      "name": "weiRaised",
      "outputs": [
        {
          "internalType": "uint256",
          "name": "",
          "type": "uint256"
        }
      ],
      "stateMutability": "view",
      "type": "function",
      "constant": true
    },
    {
      "stateMutability": "payable",
      "type": "receive",
      "payable": true
    },
    {
      "inputs": [],
      "name": "openingTime",
      "outputs": [
        {
          "internalType": "uint256",
          "name": "",
          "type": "uint256"
        }
      ],
      "stateMutability": "view",
      "type": "function",
      "constant": true
    },
    {
      "inputs": [],
      "name": "closingTime",
      "outputs": [
        {
          "internalType": "uint256",
          "name": "",
          "type": "uint256"
        }
      ],
      "stateMutability": "view",
      "type": "function",
      "constant": true
    },
    {
      "inputs": [],
      "name": "isOpen",
      "outputs": [
        {
          "internalType": "bool",
          "name": "",
          "type": "bool"
        }
      ],
      "stateMutability": "view",
      "type": "function",
      "constant": true
    },
    {
      "inputs": [],
      "name": "hasClosed",
      "outputs": [
        {
          "internalType": "bool",
          "name": "",
          "type": "bool"
        }
      ],
      "stateMutability": "view",
      "type": "function",
      "constant": true
    },
    {
      "inputs": [
        {
          "internalType": "uint256",
          "name": "newClosingTime",
          "type": "uint256"
        }
      ],
      "name": "extendTime",
      "outputs": [],
      "stateMutability": "nonpayable",
      "type": "function"
    },
    {
      "inputs": [],
      "name": "cap",
      "outputs": [
        {
          "internalType": "uint256",
          "name": "",
          "type": "uint256"
        }
      ],
      "stateMutability": "view",
      "type": "function",
      "constant": true
    },
    {
      "inputs": [],
      "name": "capReached",
      "outputs": [
        {
          "internalType": "bool",
          "name": "",
          "type": "bool"
        }
      ],
      "stateMutability": "view",
      "type": "function",
      "constant": true
    },
    {
      "inputs": [
        {
          "internalType": "uint256",
          "name": "minimumContribution",
          "type": "uint256"
        }
      ],
      "name": "setMinimumContribution",
      "outputs": [],
      "stateMutability": "nonpayable",
      "type": "function"
    },
    {
      "inputs": [
        {
          "internalType": "uint256",
          "name": "maximumContribution",
          "type": "uint256"
        }
      ],
      "name": "setMaximumContribution",
      "outputs": [],
      "stateMutability": "nonpayable",
      "type": "function"
    },
    {
      "inputs": [],
      "name": "contributedAmount",
      "outputs": [
        {
          "internalType": "uint256",
          "name": "",
          "type": "uint256"
        }
      ],
      "stateMutability": "view",
      "type": "function",
      "constant": true
    }
  ],
  "bytecode": "0x60806040523480156200001157600080fd5b506040516200127b3803806200127b8339810160408190526200003491620003c7565b6001600055878787826200008f5760405162461bcd60e51b815260206004820152601460248201527f43726f776473616c653a2072617465206973203000000000000000000000000060448201526064015b60405180910390fd5b6001600160a01b038216620000f55760405162461bcd60e51b815260206004820152602560248201527f43726f776473616c653a2077616c6c657420697320746865207a65726f206164604482015264647265737360d81b606482015260840162000086565b6001600160a01b038116620001595760405162461bcd60e51b8152602060048201526024808201527f43726f776473616c653a20746f6b656e20697320746865207a65726f206164646044820152637265737360e01b606482015260840162000086565b600392909255600280546001600160a01b039283166001600160a01b0319918216179091556001805492909316911617905562000196336200035c565b60008511620001e85760405162461bcd60e51b815260206004820152601960248201527f43617070656443726f776473616c653a20636170206973203000000000000000604482015260640162000086565b428410156200024f5760405162461bcd60e51b815260206004820152603360248201526000805160206200125b83398151915260448201527f6265666f72652063757272656e742074696d6500000000000000000000000000606482015260840162000086565b838311620002b55760405162461bcd60e51b815260206004820152603760248201526000805160206200125b83398151915260448201527f6e6f74206265666f726520636c6f73696e672074696d65000000000000000000606482015260840162000086565b808211156200033d5760405162461bcd60e51b815260206004820152604760248201527f4d696e696d756d20636f6e747269627574696f6e206d757374206265206c657360448201527f73207468616e206f7220657175616c20746f206d6178696d756d20636f6e747260648201526634b13aba34b7b760c91b608482015260a40162000086565b600991909155600a55600692909255600755600855506200043f915050565b600580546001600160a01b038381166001600160a01b0319831681179093556040519116919082907f8be0079c531659141344cd1fd0a4f28419497f9722a3daafe3b4186f6b6457e090600090a35050565b6001600160a01b0381168114620003c457600080fd5b50565b600080600080600080600080610100898b031215620003e557600080fd5b885197506020890151620003f981620003ae565b60408a01519097506200040c81620003ae565b60608a015160808b015160a08c015160c08d015160e0909d01519b9e9a9d50929b919a9099929850909650945092505050565b610e0c806200044f6000396000f3fe60806040526004361061010d5760003560e01c8063715018a611610095578063db1a6eaa11610064578063db1a6eaa14610295578063dba3e704146102b7578063ec8ac4d8146102d7578063f2fde38b146102e5578063fc0c546a1461030557610122565b8063715018a61461022d5780638da5cb5b14610242578063a27aebbc14610260578063b7a8807c1461028057610122565b806347535d7b116100dc57806347535d7b1461019c5780634b6753bc146101b15780634f935945146101c6578063521eb273146101db5780635cc0c9a71461020d57610122565b80631515bc2b1461012b5780632c4e722e14610153578063355274ea146101725780634042b66f1461018757610122565b366101225761012033610323565b610323565b005b61012033610323565b34801561013757600080fd5b5060085442115b60405190151581526020015b60405180910390f35b34801561015f57600080fd5b506003545b60405190815260200161014a565b34801561017e57600080fd5b50600654610164565b34801561019357600080fd5b50600454610164565b3480156101a857600080fd5b5061013e610415565b3480156101bd57600080fd5b50600854610164565b3480156101d257600080fd5b5061013e610430565b3480156101e757600080fd5b506002546001600160a01b03165b6040516001600160a01b03909116815260200161014a565b34801561021957600080fd5b50610120610228366004610c71565b610445565b34801561023957600080fd5b50610120610474565b34801561024e57600080fd5b506005546001600160a01b03166101f5565b34801561026c57600080fd5b5061012061027b366004610c71565b6104aa565b34801561028c57600080fd5b50600754610164565b3480156102a157600080fd5b50336000908152600b6020526040902054610164565b3480156102c357600080fd5b506101206102d2366004610c71565b6104e0565b61012061011b366004610c8a565b3480156102f157600080fd5b50610120610300366004610c8a565b61050f565b34801561031157600080fd5b506001546001600160a01b03166101f5565b6002600054141561037b5760405162461bcd60e51b815260206004820152601f60248201527f5265656e7472616e637947756172643a207265656e7472616e742063616c6c0060448201526064015b60405180910390fd5b60026000553461038b82826105a7565b6000610396826106f5565b6004549091506103a69083610712565b6004556103b38382610725565b60408051838152602081018390526001600160a01b0385169133917f6faf93231a456e552dbc9961f58d9713ee4f2e69d15f1975b050ef0911053a7b910160405180910390a36104038383610733565b61040b61075d565b5050600160005550565b6000600754421015801561042b57506008544211155b905090565b600060065461043e60045490565b1015905090565b6005546001600160a01b0316331461046f5760405162461bcd60e51b815260040161037290610cb3565b600a55565b6005546001600160a01b0316331461049e5760405162461bcd60e51b815260040161037290610cb3565b6104a86000610796565b565b6005546001600160a01b031633146104d45760405162461bcd60e51b815260040161037290610cb3565b6104dd816107e8565b50565b6005546001600160a01b0316331461050a5760405162461bcd60e51b815260040161037290610cb3565b600955565b6005546001600160a01b031633146105395760405162461bcd60e51b815260040161037290610cb3565b6001600160a01b03811661059e5760405162461bcd60e51b815260206004820152602660248201527f4f776e61626c653a206e6577206f776e657220697320746865207a65726f206160448201526564647265737360d01b6064820152608401610372565b6104dd81610796565b6105af610415565b6105fb5760405162461bcd60e51b815260206004820152601860248201527f54696d656443726f776473616c653a206e6f74206f70656e00000000000000006044820152606401610372565b61060582826108f2565b60065461061b8261061560045490565b90610712565b11156106695760405162461bcd60e51b815260206004820152601d60248201527f43617070656443726f776473616c653a206361702065786365656465640000006044820152606401610372565b600061067583836109a8565b9050600954811015801561068b5750600a548111155b6106f05760405162461bcd60e51b815260206004820152603060248201527f436f6e747269627574696f6e206d757374206265206265747765656e206d696e60448201526f696d756d20616e64206d6178696d756d60801b6064820152608401610372565b505050565b600061070c600354836109d590919063ffffffff16565b92915050565b600061071e8284610cfe565b9392505050565b61072f82826109e1565b5050565b61073d82826109a8565b6001600160a01b039092166000908152600b602052604090209190915550565b6002546040516001600160a01b03909116903480156108fc02916000818181858888f193505050501580156104dd573d6000803e3d6000fd5b600580546001600160a01b038381166001600160a01b0319831681179093556040519116919082907f8be0079c531659141344cd1fd0a4f28419497f9722a3daafe3b4186f6b6457e090600090a35050565b60085442111561083a5760405162461bcd60e51b815260206004820152601e60248201527f54696d656443726f776473616c653a20616c726561647920636c6f73656400006044820152606401610372565b60085481116108b15760405162461bcd60e51b815260206004820152603f60248201527f54696d656443726f776473616c653a206e657720636c6f73696e672074696d6560448201527f206973206265666f72652063757272656e7420636c6f73696e672074696d65006064820152608401610372565b60085460408051918252602082018390527f46711e222f558a07afd26e5e71b48ecb0a8b2cdcd40faeb1323e05e2c76a2f32910160405180910390a1600855565b6001600160a01b03821661095b5760405162461bcd60e51b815260206004820152602a60248201527f43726f776473616c653a2062656e656669636961727920697320746865207a65604482015269726f206164647265737360b01b6064820152608401610372565b8061072f5760405162461bcd60e51b815260206004820152601960248201527f43726f776473616c653a20776569416d6f756e742069732030000000000000006044820152606401610372565b6001600160a01b0382166000908152600b6020526040812054816109cc8285610712565b95945050505050565b600061071e8284610d16565b600154604080516001600160a01b03858116602483015260448083018690528351808403909101815260649092018352602080830180516001600160e01b031663a9059cbb60e01b17905283518085019094528084527f5361666545524332303a206c6f772d6c6576656c2063616c6c206661696c65649084015261072f931691859185916106f0918591600090610a7c9084908490610af9565b8051909150156106f05780806020019051810190610a9a9190610d35565b6106f05760405162461bcd60e51b815260206004820152602a60248201527f5361666545524332303a204552433230206f7065726174696f6e20646964206e6044820152691bdd081cdd58d8d9595960b21b6064820152608401610372565b6060610b088484600085610b10565b949350505050565b606082471015610b715760405162461bcd60e51b815260206004820152602660248201527f416464726573733a20696e73756666696369656e742062616c616e636520666f6044820152651c8818d85b1b60d21b6064820152608401610372565b843b610bbf5760405162461bcd60e51b815260206004820152601d60248201527f416464726573733a2063616c6c20746f206e6f6e2d636f6e74726163740000006044820152606401610372565b600080866001600160a01b03168587604051610bdb9190610d87565b60006040518083038185875af1925050503d8060008114610c18576040519150601f19603f3d011682016040523d82523d6000602084013e610c1d565b606091505b5091509150610c2d828286610c38565b979650505050505050565b60608315610c4757508161071e565b825115610c575782518084602001fd5b8160405162461bcd60e51b81526004016103729190610da3565b600060208284031215610c8357600080fd5b5035919050565b600060208284031215610c9c57600080fd5b81356001600160a01b038116811461071e57600080fd5b6020808252818101527f4f776e61626c653a2063616c6c6572206973206e6f7420746865206f776e6572604082015260600190565b634e487b7160e01b600052601160045260246000fd5b60008219821115610d1157610d11610ce8565b500190565b6000816000190483118215151615610d3057610d30610ce8565b500290565b600060208284031215610d4757600080fd5b8151801515811461071e57600080fd5b60005b83811015610d72578181015183820152602001610d5a565b83811115610d81576000848401525b50505050565b60008251610d99818460208701610d57565b9190910192915050565b6020815260008251806020840152610dc2816040850160208701610d57565b601f01601f1916919091016040019291505056fea2646970667358221220ccaa4d5513f9dc1c3760660eb656a01d418670c7f608bc4080d0e9a189cac76e64736f6c6343000809003354696d656443726f776473616c653a206f70656e696e672074696d6520697320",
  "immutableReferences": {},
  "source": "// SPDX-License-Identifier: MIT\npragma solidity  ^0.8.0;\n\nimport \"@openzeppelin/contracts/utils/math/SafeMath.sol\";\nimport \"@openzeppelin/contracts/access/Ownable.sol\";\nimport \"@openzeppelin/contracts/token/ERC20/IERC20.sol\";\nimport \"./crowdsale/Crowdsale.sol\";\n\ncontract PublicSale is Crowdsale, Ownable {\n    using SafeMath for uint256;\n\n    // Cap\n    uint256 private _cap; // the cap for the crowdsale in wei\n\n    // Timed\n    uint256 private _openingTime; // the opening time of the crowdsale\n    uint256 private _closingTime; // the closing time of the crowdsale\n\n    // Investment Boundary\n    uint256 private _minimumContribution; // minimum contribution in wei\n    uint256 private _maximumContribution; // maximum contribution in wei\n    mapping(address => uint256) private contributions; // mapping of address to contribution in wei\n\n    /**\n     * Event for crowdsale extending\n     * @param newClosingTime new closing time\n     * @param prevClosingTime old closing time\n     */\n    event TimedCrowdsaleExtended(uint256 prevClosingTime, uint256 newClosingTime);\n\n    /**\n     * @dev Reverts if not in crowdsale time range.\n     */\n    modifier onlyWhileOpen {\n        require(isOpen(), \"TimedCrowdsale: not open\");\n        _;\n    }\n\n    constructor(\n        uint256 rate,            // rate, in TKNbits\n        address payable wallet,  // wallet to send Ether\n        IERC20 token,            // the token\n        uint256 theCap,             // total cap, in wei\n        uint256 theOpeningTime,     // opening time in unix epoch seconds\n        uint256 theClosingTime,      // closing time in unix epoch seconds\n        uint256 theMinimumContribution, // minimum contribution in wei\n        uint256 theMaximumContribution // maximum contribution in wei\n    )\n        Crowdsale(rate, wallet, token)\n    {\n        require(theCap > 0, \"CappedCrowdsale: cap is 0\");\n        // solhint-disable-next-line not-rely-on-time\n        require(theOpeningTime >= block.timestamp, \"TimedCrowdsale: opening time is before current time\");\n        // solhint-disable-next-line max-line-length\n        require(theClosingTime > theOpeningTime, \"TimedCrowdsale: opening time is not before closing time\");\n        // solhint-disable-next-line max-line-length\n        require(theMinimumContribution <= theMaximumContribution, \"Minimum contribution must be less than or equal to maximum contribution\");\n        _minimumContribution = theMinimumContribution;\n        _maximumContribution = theMaximumContribution;\n        _cap = theCap;\n        _openingTime = theOpeningTime;\n        _closingTime = theClosingTime;\n    }\n\n    //Timed\n\n    /**\n     * @dev Returns the opening time of the crowdsale.\n     * @return the crowdsale opening time.\n     */\n    function openingTime() public view returns (uint256) {\n        return _openingTime;\n    }\n\n    /**\n     * @dev Returns the crowdsale closing time.\n     * @return the crowdsale closing time.\n     */\n    function closingTime() public view returns (uint256) {\n        return _closingTime;\n    }\n\n    /**\n     * @dev Returns true if the crowdsale is open.\n     * @return true if the crowdsale is open, false otherwise.\n     */\n    function isOpen() public view returns (bool) {\n        // solhint-disable-next-line not-rely-on-time\n        return block.timestamp >= _openingTime && block.timestamp <= _closingTime;\n    }\n\n     /**\n     * @dev Checks whether the period in which the crowdsale is open has already elapsed.\n     * @return Whether crowdsale period has elapsed\n     */\n    function hasClosed() public view returns (bool) {\n        // solhint-disable-next-line not-rely-on-time\n        return block.timestamp > _closingTime;\n    }\n\n    /**\n     * @dev Extends the time of the crowdsale.\n     * @param newClosingTime The new closing time.\n     */\n    function extendTime(uint256 newClosingTime) public onlyOwner {\n        _extendTime(newClosingTime);\n    }\n\n    //Cappped\n\n    /**\n     * @dev Returns the cap of the crowdsale.\n     * @return the cap of the crowdsale.\n     */\n    function cap() public view returns (uint256) {\n        return _cap;\n    }\n\n    /**\n     * @dev Checks whether the cap has been reached.\n     * @return Whether the cap was reached\n     */\n    function capReached() public view returns (bool) {\n        return weiRaised() >= _cap;\n    }\n\n    // Investment Boundary\n\n    /**\n     * @dev Sets the minimum contribution.\n     * @param minimumContribution The minimum contribution in wei.\n     */\n    function setMinimumContribution(uint256 minimumContribution) public onlyOwner {\n        _minimumContribution = minimumContribution;\n    }\n\n    /**\n     * @dev Sets the maximum contribution.\n     * @param maximumContribution The maximum contribution in wei.\n     */\n    function setMaximumContribution(uint256 maximumContribution) public onlyOwner {\n        _maximumContribution = maximumContribution;\n    }\n\n    /**\n     * @dev Extend parent behavior requiring purchase to respect the funding cap.\n     * @param beneficiary Token purchaser\n     * @param weiAmount Amount of wei contributed\n     */\n    function _preValidatePurchase(address beneficiary, uint256 weiAmount) internal override onlyWhileOpen view {\n        super._preValidatePurchase(beneficiary, weiAmount);\n        require(weiRaised().add(weiAmount) <= _cap, \"CappedCrowdsale: cap exceeded\");\n        uint256 _totalContibutorContribution = _getTotalContibutorContribution(beneficiary, weiAmount);\n        // solhint-disable-next-line max-line-length\n        require(_totalContibutorContribution >= _minimumContribution && _totalContibutorContribution <= _maximumContribution, \"Contribution must be between minimum and maximum\");\n    }\n\n    /**\n     * @dev Extend current user contributions\n     * @param beneficiary Address receiving the tokens\n     * @param weiAmount Value in wei involved in the purchase\n     */\n    function _updatePurchasingState(address beneficiary, uint256 weiAmount) override internal {\n        contributions[beneficiary] = _getTotalContibutorContribution(beneficiary, weiAmount);\n    }\n\n    /**\n     * @dev Extend parent behavior to reset user contributions\n     * @param beneficiary Address receiving the tokens\n     * @param weiAmount Value in wei involved in the purchase\n     */\n    function _getTotalContibutorContribution(address beneficiary, uint256 weiAmount) internal  view returns (uint256) {\n        uint256 _existingContribution = contributions[beneficiary];\n        uint256 _totalContibutorContribution = _existingContribution.add(weiAmount);\n        return _totalContibutorContribution;\n    }\n\n    /**\n     * @dev Get the amount contributed by a user\n     */\n\n    function contributedAmount () public view returns (uint256) {\n        return contributions[msg.sender];\n    }\n\n    /**\n     * @dev Extend crowdsale.\n     * @param newClosingTime Crowdsale closing time\n     */\n    function _extendTime(uint256 newClosingTime) internal {\n        require(!hasClosed(), \"TimedCrowdsale: already closed\");\n        // solhint-disable-next-line max-line-length\n        require(newClosingTime > _closingTime, \"TimedCrowdsale: new closing time is before current closing time\");\n\n        emit TimedCrowdsaleExtended(_closingTime, newClosingTime);\n        _closingTime = newClosingTime;\n    }\n}",
  "sourcePath": "/home/light/relsify-token/contracts/PublicSale.sol",
  "compiler": {
    "name": "solc",
    "version": "0.8.9+commit.e5eed63a.Emscripten.clang"
  },
  "schemaVersion": "3.4.3",
  "updatedAt": "2021-11-18T15:35:17.951Z",
  "networkType": "ethereum",
  "devdoc": {
    "events": {
      "TimedCrowdsaleExtended(uint256,uint256)": {
        "params": {
          "newClosingTime": "new closing time",
          "prevClosingTime": "old closing time"
        }
      }
    },
    "kind": "dev",
    "methods": {
      "buyTokens(address)": {
        "details": "low level token purchase ***DO NOT OVERRIDE*** This function has a non-reentrancy guard, so it shouldn't be called by another `nonReentrant` function.",
        "params": {
          "beneficiary": "Recipient of the token purchase"
        }
      },
      "cap()": {
        "details": "Returns the cap of the crowdsale.",
        "returns": {
          "_0": "the cap of the crowdsale."
        }
      },
      "capReached()": {
        "details": "Checks whether the cap has been reached.",
        "returns": {
          "_0": "Whether the cap was reached"
        }
      },
      "closingTime()": {
        "details": "Returns the crowdsale closing time.",
        "returns": {
          "_0": "the crowdsale closing time."
        }
      },
      "contributedAmount()": {
        "details": "Get the amount contributed by a user"
      },
      "extendTime(uint256)": {
        "details": "Extends the time of the crowdsale.",
        "params": {
          "newClosingTime": "The new closing time."
        }
      },
      "hasClosed()": {
        "details": "Checks whether the period in which the crowdsale is open has already elapsed.",
        "returns": {
          "_0": "Whether crowdsale period has elapsed"
        }
      },
      "isOpen()": {
        "details": "Returns true if the crowdsale is open.",
        "returns": {
          "_0": "true if the crowdsale is open, false otherwise."
        }
      },
      "openingTime()": {
        "details": "Returns the opening time of the crowdsale.",
        "returns": {
          "_0": "the crowdsale opening time."
        }
      },
      "owner()": {
        "details": "Returns the address of the current owner."
      },
      "rate()": {
        "returns": {
          "_0": "the number of token units a buyer gets per wei."
        }
      },
      "renounceOwnership()": {
        "details": "Leaves the contract without owner. It will not be possible to call `onlyOwner` functions anymore. Can only be called by the current owner. NOTE: Renouncing ownership will leave the contract without an owner, thereby removing any functionality that is only available to the owner."
      },
      "setMaximumContribution(uint256)": {
        "details": "Sets the maximum contribution.",
        "params": {
          "maximumContribution": "The maximum contribution in wei."
        }
      },
      "setMinimumContribution(uint256)": {
        "details": "Sets the minimum contribution.",
        "params": {
          "minimumContribution": "The minimum contribution in wei."
        }
      },
      "token()": {
        "returns": {
          "_0": "the token being sold."
        }
      },
      "transferOwnership(address)": {
        "details": "Transfers ownership of the contract to a new account (`newOwner`). Can only be called by the current owner."
      },
      "wallet()": {
        "returns": {
          "_0": "the address where funds are collected."
        }
      },
      "weiRaised()": {
        "returns": {
          "_0": "the amount of wei raised."
        }
      }
    },
    "version": 1
  },
  "userdoc": {
    "events": {
      "TimedCrowdsaleExtended(uint256,uint256)": {
        "notice": "Event for crowdsale extending"
      },
      "TokensPurchased(address,address,uint256,uint256)": {
        "notice": "Event for token purchase logging"
      }
    },
    "kind": "user",
    "methods": {},
    "version": 1
  }
}