{
  "contractName": "PublicSale",
  "abi": [
    {
      "inputs": [
        {
          "internalType": "uint256",
          "name": "rate",
          "type": "uint256"
        },
        {
          "internalType": "address payable",
          "name": "wallet",
          "type": "address"
        },
        {
          "internalType": "contract IERC20",
          "name": "token",
          "type": "address"
        },
        {
          "internalType": "address",
          "name": "theTokenWallet",
          "type": "address"
        },
        {
          "internalType": "uint256",
          "name": "theCap",
          "type": "uint256"
        },
        {
          "internalType": "uint256",
          "name": "theOpeningTime",
          "type": "uint256"
        },
        {
          "internalType": "uint256",
          "name": "theClosingTime",
          "type": "uint256"
        },
        {
          "internalType": "uint256",
          "name": "theMinimumContribution",
          "type": "uint256"
        },
        {
          "internalType": "uint256",
          "name": "theMaximumContribution",
          "type": "uint256"
        }
      ],
      "stateMutability": "nonpayable",
      "type": "constructor"
    },
    {
      "anonymous": false,
      "inputs": [
        {
          "indexed": true,
          "internalType": "address",
          "name": "previousOwner",
          "type": "address"
        },
        {
          "indexed": true,
          "internalType": "address",
          "name": "newOwner",
          "type": "address"
        }
      ],
      "name": "OwnershipTransferred",
      "type": "event"
    },
    {
      "anonymous": false,
      "inputs": [
        {
          "indexed": false,
          "internalType": "uint256",
          "name": "prevClosingTime",
          "type": "uint256"
        },
        {
          "indexed": false,
          "internalType": "uint256",
          "name": "newClosingTime",
          "type": "uint256"
        }
      ],
      "name": "TimedCrowdsaleExtended",
      "type": "event"
    },
    {
      "anonymous": false,
      "inputs": [
        {
          "indexed": true,
          "internalType": "address",
          "name": "purchaser",
          "type": "address"
        },
        {
          "indexed": true,
          "internalType": "address",
          "name": "beneficiary",
          "type": "address"
        },
        {
          "indexed": false,
          "internalType": "uint256",
          "name": "value",
          "type": "uint256"
        },
        {
          "indexed": false,
          "internalType": "uint256",
          "name": "amount",
          "type": "uint256"
        }
      ],
      "name": "TokensPurchased",
      "type": "event"
    },
    {
      "stateMutability": "payable",
      "type": "fallback"
    },
    {
      "inputs": [
        {
          "internalType": "address",
          "name": "beneficiary",
          "type": "address"
        }
      ],
      "name": "buyTokens",
      "outputs": [],
      "stateMutability": "payable",
      "type": "function"
    },
    {
      "inputs": [],
      "name": "owner",
      "outputs": [
        {
          "internalType": "address",
          "name": "",
          "type": "address"
        }
      ],
      "stateMutability": "view",
      "type": "function"
    },
    {
      "inputs": [],
      "name": "rate",
      "outputs": [
        {
          "internalType": "uint256",
          "name": "",
          "type": "uint256"
        }
      ],
      "stateMutability": "view",
      "type": "function"
    },
    {
      "inputs": [],
      "name": "renounceOwnership",
      "outputs": [],
      "stateMutability": "nonpayable",
      "type": "function"
    },
    {
      "inputs": [],
      "name": "token",
      "outputs": [
        {
          "internalType": "contract IERC20",
          "name": "",
          "type": "address"
        }
      ],
      "stateMutability": "view",
      "type": "function"
    },
    {
      "inputs": [
        {
          "internalType": "address",
          "name": "newOwner",
          "type": "address"
        }
      ],
      "name": "transferOwnership",
      "outputs": [],
      "stateMutability": "nonpayable",
      "type": "function"
    },
    {
      "inputs": [],
      "name": "wallet",
      "outputs": [
        {
          "internalType": "address payable",
          "name": "",
          "type": "address"
        }
      ],
      "stateMutability": "view",
      "type": "function"
    },
    {
      "inputs": [],
      "name": "weiRaised",
      "outputs": [
        {
          "internalType": "uint256",
          "name": "",
          "type": "uint256"
        }
      ],
      "stateMutability": "view",
      "type": "function"
    },
    {
      "stateMutability": "payable",
      "type": "receive"
    },
    {
      "inputs": [],
      "name": "openingTime",
      "outputs": [
        {
          "internalType": "uint256",
          "name": "",
          "type": "uint256"
        }
      ],
      "stateMutability": "view",
      "type": "function"
    },
    {
      "inputs": [],
      "name": "closingTime",
      "outputs": [
        {
          "internalType": "uint256",
          "name": "",
          "type": "uint256"
        }
      ],
      "stateMutability": "view",
      "type": "function"
    },
    {
      "inputs": [],
      "name": "isOpen",
      "outputs": [
        {
          "internalType": "bool",
          "name": "",
          "type": "bool"
        }
      ],
      "stateMutability": "view",
      "type": "function"
    },
    {
      "inputs": [],
      "name": "hasClosed",
      "outputs": [
        {
          "internalType": "bool",
          "name": "",
          "type": "bool"
        }
      ],
      "stateMutability": "view",
      "type": "function"
    },
    {
      "inputs": [
        {
          "internalType": "uint256",
          "name": "newClosingTime",
          "type": "uint256"
        }
      ],
      "name": "extendTime",
      "outputs": [],
      "stateMutability": "nonpayable",
      "type": "function"
    },
    {
      "inputs": [],
      "name": "cap",
      "outputs": [
        {
          "internalType": "uint256",
          "name": "",
          "type": "uint256"
        }
      ],
      "stateMutability": "view",
      "type": "function"
    },
    {
      "inputs": [],
      "name": "capReached",
      "outputs": [
        {
          "internalType": "bool",
          "name": "",
          "type": "bool"
        }
      ],
      "stateMutability": "view",
      "type": "function"
    },
    {
      "inputs": [],
      "name": "tokenWallet",
      "outputs": [
        {
          "internalType": "address",
          "name": "",
          "type": "address"
        }
      ],
      "stateMutability": "view",
      "type": "function"
    },
    {
      "inputs": [],
      "name": "remainingTokens",
      "outputs": [
        {
          "internalType": "uint256",
          "name": "",
          "type": "uint256"
        }
      ],
      "stateMutability": "view",
      "type": "function"
    },
    {
      "inputs": [
        {
          "internalType": "uint256",
          "name": "minimumContribution",
          "type": "uint256"
        }
      ],
      "name": "setMinimumContribution",
      "outputs": [],
      "stateMutability": "nonpayable",
      "type": "function"
    },
    {
      "inputs": [
        {
          "internalType": "uint256",
          "name": "maximumContribution",
          "type": "uint256"
        }
      ],
      "name": "setMaximumContribution",
      "outputs": [],
      "stateMutability": "nonpayable",
      "type": "function"
    },
    {
      "inputs": [],
      "name": "contributedAmount",
      "outputs": [
        {
          "internalType": "uint256",
          "name": "",
          "type": "uint256"
        }
      ],
      "stateMutability": "view",
      "type": "function"
    }
  ],
  "bytecode": "0x60806040523480156200001157600080fd5b506040516200151038038062001510833981016040819052620000349162000466565b6001600055888888826200008f5760405162461bcd60e51b815260206004820152601460248201527f43726f776473616c653a2072617465206973203000000000000000000000000060448201526064015b60405180910390fd5b6001600160a01b038216620000f55760405162461bcd60e51b815260206004820152602560248201527f43726f776473616c653a2077616c6c657420697320746865207a65726f206164604482015264647265737360d81b606482015260840162000086565b6001600160a01b038116620001595760405162461bcd60e51b8152602060048201526024808201527f43726f776473616c653a20746f6b656e20697320746865207a65726f206164646044820152637265737360e01b606482015260840162000086565b600392909255600280546001600160a01b039283166001600160a01b031991821617909155600180549290931691161790556200019633620003fb565b60008511620001e85760405162461bcd60e51b815260206004820152601960248201527f43617070656443726f776473616c653a20636170206973203000000000000000604482015260640162000086565b428410156200024f5760405162461bcd60e51b81526020600482015260336024820152600080516020620014f083398151915260448201527f6265666f72652063757272656e742074696d6500000000000000000000000000606482015260840162000086565b838311620002b55760405162461bcd60e51b81526020600482015260376024820152600080516020620014f083398151915260448201527f6e6f74206265666f726520636c6f73696e672074696d65000000000000000000606482015260840162000086565b808211156200033d5760405162461bcd60e51b815260206004820152604760248201527f4d696e696d756d20636f6e747269627574696f6e206d757374206265206c657360448201527f73207468616e206f7220657175616c20746f206d6178696d756d20636f6e747260648201526634b13aba34b7b760c91b608482015260a40162000086565b6001600160a01b038616620003bb5760405162461bcd60e51b815260206004820152603460248201527f416c6c6f77616e636543726f776473616c653a20746f6b656e2077616c6c657460448201527f20697320746865207a65726f2061646472657373000000000000000000000000606482015260840162000086565b600680546001600160a01b0319166001600160a01b039790971696909617909555600a55600b9390935560079190915560085560095550620004f5915050565b600580546001600160a01b038381166001600160a01b0319831681179093556040519116919082907f8be0079c531659141344cd1fd0a4f28419497f9722a3daafe3b4186f6b6457e090600090a35050565b6001600160a01b03811681146200046357600080fd5b50565b60008060008060008060008060006101208a8c0312156200048657600080fd5b8951985060208a01516200049a816200044d565b60408b0151909850620004ad816200044d565b60608b0151909750620004c0816200044d565b8096505060808a0151945060a08a0151935060c08a0151925060e08a015191506101008a015190509295985092959850929598565b610feb80620005056000396000f3fe6080604052600436106101235760003560e01c80638da5cb5b116100a0578063db1a6eaa11610064578063db1a6eaa146102de578063dba3e70414610300578063ec8ac4d814610320578063f2fde38b1461032e578063fc0c546a1461034e57610138565b80638da5cb5b14610258578063a27aebbc14610276578063b7a8807c14610296578063bf583903146102ab578063bff99c6c146102c057610138565b80634b6753bc116100e75780634b6753bc146101c75780634f935945146101dc578063521eb273146101f15780635cc0c9a714610223578063715018a61461024357610138565b80631515bc2b146101415780632c4e722e14610169578063355274ea146101885780634042b66f1461019d57806347535d7b146101b257610138565b36610138576101363361036c565b61036c565b005b6101363361036c565b34801561014d57600080fd5b5060095442115b60405190151581526020015b60405180910390f35b34801561017557600080fd5b506003545b604051908152602001610160565b34801561019457600080fd5b5060075461017a565b3480156101a957600080fd5b5060045461017a565b3480156101be57600080fd5b5061015461045e565b3480156101d357600080fd5b5060095461017a565b3480156101e857600080fd5b50610154610479565b3480156101fd57600080fd5b506002546001600160a01b03165b6040516001600160a01b039091168152602001610160565b34801561022f57600080fd5b5061013661023e366004610e3b565b61048e565b34801561024f57600080fd5b506101366104bd565b34801561026457600080fd5b506005546001600160a01b031661020b565b34801561028257600080fd5b50610136610291366004610e3b565b6104f3565b3480156102a257600080fd5b5060085461017a565b3480156102b757600080fd5b5061017a610529565b3480156102cc57600080fd5b506006546001600160a01b031661020b565b3480156102ea57600080fd5b50336000908152600c602052604090205461017a565b34801561030c57600080fd5b5061013661031b366004610e3b565b61064f565b610136610131366004610e54565b34801561033a57600080fd5b50610136610349366004610e54565b61067e565b34801561035a57600080fd5b506001546001600160a01b031661020b565b600260005414156103c45760405162461bcd60e51b815260206004820152601f60248201527f5265656e7472616e637947756172643a207265656e7472616e742063616c6c0060448201526064015b60405180910390fd5b6002600055346103d48282610716565b60006103df82610864565b6004549091506103ef9083610881565b6004556103fc8382610894565b60408051838152602081018390526001600160a01b0385169133917f6faf93231a456e552dbc9961f58d9713ee4f2e69d15f1975b050ef0911053a7b910160405180910390a361044c83836108a2565b6104546108cc565b5050600160005550565b6000600854421015801561047457506009544211155b905090565b600060075461048760045490565b1015905090565b6005546001600160a01b031633146104b85760405162461bcd60e51b81526004016103bb90610e7d565b600b55565b6005546001600160a01b031633146104e75760405162461bcd60e51b81526004016103bb90610e7d565b6104f16000610905565b565b6005546001600160a01b0316331461051d5760405162461bcd60e51b81526004016103bb90610e7d565b61052681610957565b50565b60006104746105406001546001600160a01b031690565b6006546040516370a0823160e01b81526001600160a01b0391821660048201529116906370a082319060240160206040518083038186803b15801561058457600080fd5b505afa158015610598573d6000803e3d6000fd5b505050506040513d601f19601f820116820180604052508101906105bc9190610eb2565b6001546001600160a01b0316600654604051636eb1769f60e11b81526001600160a01b03918216600482015230602482015291169063dd62ed3e9060440160206040518083038186803b15801561061257600080fd5b505afa158015610626573d6000803e3d6000fd5b505050506040513d601f19601f8201168201806040525081019061064a9190610eb2565b610a61565b6005546001600160a01b031633146106795760405162461bcd60e51b81526004016103bb90610e7d565b600a55565b6005546001600160a01b031633146106a85760405162461bcd60e51b81526004016103bb90610e7d565b6001600160a01b03811661070d5760405162461bcd60e51b815260206004820152602660248201527f4f776e61626c653a206e6577206f776e657220697320746865207a65726f206160448201526564647265737360d01b60648201526084016103bb565b61052681610905565b61071e61045e565b61076a5760405162461bcd60e51b815260206004820152601860248201527f54696d656443726f776473616c653a206e6f74206f70656e000000000000000060448201526064016103bb565b6107748282610a77565b60075461078a8261078460045490565b90610881565b11156107d85760405162461bcd60e51b815260206004820152601d60248201527f43617070656443726f776473616c653a2063617020657863656564656400000060448201526064016103bb565b60006107e48383610b2d565b9050600a5481101580156107fa5750600b548111155b61085f5760405162461bcd60e51b815260206004820152603060248201527f436f6e747269627574696f6e206d757374206265206265747765656e206d696e60448201526f696d756d20616e64206d6178696d756d60801b60648201526084016103bb565b505050565b600061087b60035483610b5a90919063ffffffff16565b92915050565b600061088d8284610ee1565b9392505050565b61089e8282610b66565b5050565b6108ac8282610b2d565b6001600160a01b039092166000908152600c602052604090209190915550565b6002546040516001600160a01b03909116903480156108fc02916000818181858888f19350505050158015610526573d6000803e3d6000fd5b600580546001600160a01b038381166001600160a01b0319831681179093556040519116919082907f8be0079c531659141344cd1fd0a4f28419497f9722a3daafe3b4186f6b6457e090600090a35050565b6009544211156109a95760405162461bcd60e51b815260206004820152601e60248201527f54696d656443726f776473616c653a20616c726561647920636c6f736564000060448201526064016103bb565b6009548111610a205760405162461bcd60e51b815260206004820152603f60248201527f54696d656443726f776473616c653a206e657720636c6f73696e672074696d6560448201527f206973206265666f72652063757272656e7420636c6f73696e672074696d650060648201526084016103bb565b60095460408051918252602082018390527f46711e222f558a07afd26e5e71b48ecb0a8b2cdcd40faeb1323e05e2c76a2f32910160405180910390a1600955565b6000818310610a70578161088d565b5090919050565b6001600160a01b038216610ae05760405162461bcd60e51b815260206004820152602a60248201527f43726f776473616c653a2062656e656669636961727920697320746865207a65604482015269726f206164647265737360b01b60648201526084016103bb565b8061089e5760405162461bcd60e51b815260206004820152601960248201527f43726f776473616c653a20776569416d6f756e7420697320300000000000000060448201526064016103bb565b6001600160a01b0382166000908152600c602052604081205481610b518285610881565b95945050505050565b600061088d8284610ef9565b60065461089e906001600160a01b03168383610b8a6001546001600160a01b031690565b604080516001600160a01b038681166024830152858116604483015260648083018690528351808403909101815260849092019092526020810180516001600160e01b03166323b872dd60e01b179052911693929190610beb908590610bf1565b50505050565b6000610c46826040518060400160405280602081526020017f5361666545524332303a206c6f772d6c6576656c2063616c6c206661696c6564815250856001600160a01b0316610cc39092919063ffffffff16565b80519091501561085f5780806020019051810190610c649190610f18565b61085f5760405162461bcd60e51b815260206004820152602a60248201527f5361666545524332303a204552433230206f7065726174696f6e20646964206e6044820152691bdd081cdd58d8d9595960b21b60648201526084016103bb565b6060610cd28484600085610cda565b949350505050565b606082471015610d3b5760405162461bcd60e51b815260206004820152602660248201527f416464726573733a20696e73756666696369656e742062616c616e636520666f6044820152651c8818d85b1b60d21b60648201526084016103bb565b843b610d895760405162461bcd60e51b815260206004820152601d60248201527f416464726573733a2063616c6c20746f206e6f6e2d636f6e747261637400000060448201526064016103bb565b600080866001600160a01b03168587604051610da59190610f66565b60006040518083038185875af1925050503d8060008114610de2576040519150601f19603f3d011682016040523d82523d6000602084013e610de7565b606091505b5091509150610df7828286610e02565b979650505050505050565b60608315610e1157508161088d565b825115610e215782518084602001fd5b8160405162461bcd60e51b81526004016103bb9190610f82565b600060208284031215610e4d57600080fd5b5035919050565b600060208284031215610e6657600080fd5b81356001600160a01b038116811461088d57600080fd5b6020808252818101527f4f776e61626c653a2063616c6c6572206973206e6f7420746865206f776e6572604082015260600190565b600060208284031215610ec457600080fd5b5051919050565b634e487b7160e01b600052601160045260246000fd5b60008219821115610ef457610ef4610ecb565b500190565b6000816000190483118215151615610f1357610f13610ecb565b500290565b600060208284031215610f2a57600080fd5b8151801515811461088d57600080fd5b60005b83811015610f55578181015183820152602001610f3d565b83811115610beb5750506000910152565b60008251610f78818460208701610f3a565b9190910192915050565b6020815260008251806020840152610fa1816040850160208701610f3a565b601f01601f1916919091016040019291505056fea264697066735822122059aae779fa87cd48d0fc300bb87d9c497ada7ad70d24d422d9bc199e476995f064736f6c6343000809003354696d656443726f776473616c653a206f70656e696e672074696d6520697320",
  "immutableReferences": {},
  "source": "// SPDX-License-Identifier: MIT\npragma solidity  ^0.8.0;\n\nimport \"@openzeppelin/contracts/utils/math/SafeMath.sol\";\nimport \"@openzeppelin/contracts/utils/math/Math.sol\";\nimport \"@openzeppelin/contracts/access/Ownable.sol\";\nimport \"@openzeppelin/contracts/token/ERC20/IERC20.sol\";\nimport \"@openzeppelin/contracts/token/ERC20/utils/SafeERC20.sol\";\nimport \"./crowdsale/Crowdsale.sol\";\n\ncontract PublicSale is Crowdsale, Ownable {\n    using SafeMath for uint256;\n    using SafeERC20 for IERC20;\n\n    // The Token wallet\n    address private _tokenWallet;\n\n    // Cap\n    uint256 private _cap; // the cap for the crowdsale in wei\n\n    // Timed\n    uint256 private _openingTime; // the opening time of the crowdsale\n    uint256 private _closingTime; // the closing time of the crowdsale\n\n    // Investment Boundary\n    uint256 private _minimumContribution; // minimum contribution in wei\n    uint256 private _maximumContribution; // maximum contribution in wei\n    mapping(address => uint256) private contributions; // mapping of address to contribution in wei\n\n    /**\n     * Event for crowdsale extending\n     * @param newClosingTime new closing time\n     * @param prevClosingTime old closing time\n     */\n    event TimedCrowdsaleExtended(uint256 prevClosingTime, uint256 newClosingTime);\n\n    /**\n     * @dev Reverts if not in crowdsale time range.\n     */\n    modifier onlyWhileOpen {\n        require(isOpen(), \"TimedCrowdsale: not open\");\n        _;\n    }\n\n    constructor(\n        uint256 rate,            // rate, in TKNbits\n        address payable wallet,  // wallet to send Ether\n        IERC20 token,            // the token\n        address theTokenWallet, // The wallet to send the tokens from\n        uint256 theCap,             // total cap, in wei\n        uint256 theOpeningTime,     // opening time in unix epoch seconds\n        uint256 theClosingTime,      // closing time in unix epoch seconds\n        uint256 theMinimumContribution, // minimum contribution in wei\n        uint256 theMaximumContribution // maximum contribution in wei\n    )\n        Crowdsale(rate, wallet, token)\n    {\n        require(theCap > 0, \"CappedCrowdsale: cap is 0\");\n        // solhint-disable-next-line not-rely-on-time\n        require(theOpeningTime >= block.timestamp, \"TimedCrowdsale: opening time is before current time\");\n        // solhint-disable-next-line max-line-length\n        require(theClosingTime > theOpeningTime, \"TimedCrowdsale: opening time is not before closing time\");\n        // solhint-disable-next-line max-line-length\n        require(theMinimumContribution <= theMaximumContribution, \"Minimum contribution must be less than or equal to maximum contribution\");\n        require(theTokenWallet != address(0), \"AllowanceCrowdsale: token wallet is the zero address\");\n        _tokenWallet = theTokenWallet;\n        _minimumContribution = theMinimumContribution;\n        _maximumContribution = theMaximumContribution;\n        _cap = theCap;\n        _openingTime = theOpeningTime;\n        _closingTime = theClosingTime;\n    }\n\n    //Timed\n\n    /**\n     * @dev Returns the opening time of the crowdsale.\n     * @return the crowdsale opening time.\n     */\n    function openingTime() public view returns (uint256) {\n        return _openingTime;\n    }\n\n    /**\n     * @dev Returns the crowdsale closing time.\n     * @return the crowdsale closing time.\n     */\n    function closingTime() public view returns (uint256) {\n        return _closingTime;\n    }\n\n    /**\n     * @dev Returns true if the crowdsale is open.\n     * @return true if the crowdsale is open, false otherwise.\n     */\n    function isOpen() public view returns (bool) {\n        // solhint-disable-next-line not-rely-on-time\n        return block.timestamp >= _openingTime && block.timestamp <= _closingTime;\n    }\n\n     /**\n     * @dev Checks whether the period in which the crowdsale is open has already elapsed.\n     * @return Whether crowdsale period has elapsed\n     */\n    function hasClosed() public view returns (bool) {\n        // solhint-disable-next-line not-rely-on-time\n        return block.timestamp > _closingTime;\n    }\n\n    /**\n     * @dev Extends the time of the crowdsale.\n     * @param newClosingTime The new closing time.\n     */\n    function extendTime(uint256 newClosingTime) public onlyOwner {\n        _extendTime(newClosingTime);\n    }\n\n    //Cappped\n\n    /**\n     * @dev Returns the cap of the crowdsale.\n     * @return the cap of the crowdsale.\n     */\n    function cap() public view returns (uint256) {\n        return _cap;\n    }\n\n    /**\n     * @dev Checks whether the cap has been reached.\n     * @return Whether the cap was reached\n     */\n    function capReached() public view returns (bool) {\n        return weiRaised() >= _cap;\n    }\n\n    // TOKEN WALLET\n\n    /**\n     * @return the address of the wallet that will hold the tokens.\n     */\n    function tokenWallet() public view returns (address) {\n        return _tokenWallet;\n    }\n\n    /**\n     * @dev Checks the amount of tokens left in the allowance.\n     * @return Amount of tokens left in the allowance\n     */\n    function remainingTokens() public view returns (uint256) {\n        return Math.min(token().balanceOf(_tokenWallet), token().allowance(_tokenWallet, address(this)));\n    }\n\n    // Investment Boundary\n\n    /**\n     * @dev Sets the minimum contribution.\n     * @param minimumContribution The minimum contribution in wei.\n     */\n    function setMinimumContribution(uint256 minimumContribution) public onlyOwner {\n        _minimumContribution = minimumContribution;\n    }\n\n    /**\n     * @dev Sets the maximum contribution.\n     * @param maximumContribution The maximum contribution in wei.\n     */\n    function setMaximumContribution(uint256 maximumContribution) public onlyOwner {\n        _maximumContribution = maximumContribution;\n    }\n\n     /**\n     * @dev Get the amount contributed by a user\n     */\n\n    function contributedAmount () public view returns (uint256) {\n        return contributions[msg.sender];\n    }\n\n    /**\n     * @dev Extend parent behavior requiring purchase to respect the funding cap.\n     * @param beneficiary Token purchaser\n     * @param weiAmount Amount of wei contributed\n     */\n    function _preValidatePurchase(address beneficiary, uint256 weiAmount) internal override onlyWhileOpen view {\n        super._preValidatePurchase(beneficiary, weiAmount);\n        require(weiRaised().add(weiAmount) <= _cap, \"CappedCrowdsale: cap exceeded\");\n        uint256 _totalContibutorContribution = _getTotalContibutorContribution(beneficiary, weiAmount);\n        // solhint-disable-next-line max-line-length\n        require(_totalContibutorContribution >= _minimumContribution && _totalContibutorContribution <= _maximumContribution, \"Contribution must be between minimum and maximum\");\n    }\n\n    /**\n     * @dev Extend current user contributions\n     * @param beneficiary Address receiving the tokens\n     * @param weiAmount Value in wei involved in the purchase\n     */\n    function _updatePurchasingState(address beneficiary, uint256 weiAmount) override internal {\n        contributions[beneficiary] = _getTotalContibutorContribution(beneficiary, weiAmount);\n    }\n\n    /**\n     * @dev Extend parent behavior to reset user contributions\n     * @param beneficiary Address receiving the tokens\n     * @param weiAmount Value in wei involved in the purchase\n     */\n    function _getTotalContibutorContribution(address beneficiary, uint256 weiAmount) internal  view returns (uint256) {\n        uint256 _existingContribution = contributions[beneficiary];\n        uint256 _totalContibutorContribution = _existingContribution.add(weiAmount);\n        return _totalContibutorContribution;\n    }\n\n     /**\n     * @dev Source of tokens. Override this method to modify the way in which the crowdsale ultimately gets and sends\n     * its tokens.\n     * Transfer tokens to the user Token vesting contract\n     * @param beneficiary Address performing the token purchase\n     * @param tokenAmount Number of tokens to be emitted\n     */\n    function _deliverTokens(address beneficiary, uint256 tokenAmount) internal override(Crowdsale) {\n        token().safeTransferFrom(_tokenWallet, beneficiary, tokenAmount);\n    }\n\n    /**\n     * @dev Extend crowdsale.\n     * @param newClosingTime Crowdsale closing time\n     */\n    function _extendTime(uint256 newClosingTime) internal {\n        require(!hasClosed(), \"TimedCrowdsale: already closed\");\n        // solhint-disable-next-line max-line-length\n        require(newClosingTime > _closingTime, \"TimedCrowdsale: new closing time is before current closing time\");\n\n        emit TimedCrowdsaleExtended(_closingTime, newClosingTime);\n        _closingTime = newClosingTime;\n    }\n}",
  "sourcePath": "/home/light/relsify-token/contracts/PublicSale.sol",
  "compiler": {
    "name": "solc",
    "version": "0.8.9+commit.e5eed63a.Emscripten.clang"
  },
  "schemaVersion": "3.4.3",
  "updatedAt": "2021-11-19T11:23:51.858Z",
  "devdoc": {
    "events": {
      "TimedCrowdsaleExtended(uint256,uint256)": {
        "params": {
          "newClosingTime": "new closing time",
          "prevClosingTime": "old closing time"
        }
      }
    },
    "kind": "dev",
    "methods": {
      "buyTokens(address)": {
        "details": "low level token purchase ***DO NOT OVERRIDE*** This function has a non-reentrancy guard, so it shouldn't be called by another `nonReentrant` function.",
        "params": {
          "beneficiary": "Recipient of the token purchase"
        }
      },
      "cap()": {
        "details": "Returns the cap of the crowdsale.",
        "returns": {
          "_0": "the cap of the crowdsale."
        }
      },
      "capReached()": {
        "details": "Checks whether the cap has been reached.",
        "returns": {
          "_0": "Whether the cap was reached"
        }
      },
      "closingTime()": {
        "details": "Returns the crowdsale closing time.",
        "returns": {
          "_0": "the crowdsale closing time."
        }
      },
      "contributedAmount()": {
        "details": "Get the amount contributed by a user"
      },
      "extendTime(uint256)": {
        "details": "Extends the time of the crowdsale.",
        "params": {
          "newClosingTime": "The new closing time."
        }
      },
      "hasClosed()": {
        "details": "Checks whether the period in which the crowdsale is open has already elapsed.",
        "returns": {
          "_0": "Whether crowdsale period has elapsed"
        }
      },
      "isOpen()": {
        "details": "Returns true if the crowdsale is open.",
        "returns": {
          "_0": "true if the crowdsale is open, false otherwise."
        }
      },
      "openingTime()": {
        "details": "Returns the opening time of the crowdsale.",
        "returns": {
          "_0": "the crowdsale opening time."
        }
      },
      "owner()": {
        "details": "Returns the address of the current owner."
      },
      "rate()": {
        "returns": {
          "_0": "the number of token units a buyer gets per wei."
        }
      },
      "remainingTokens()": {
        "details": "Checks the amount of tokens left in the allowance.",
        "returns": {
          "_0": "Amount of tokens left in the allowance"
        }
      },
      "renounceOwnership()": {
        "details": "Leaves the contract without owner. It will not be possible to call `onlyOwner` functions anymore. Can only be called by the current owner. NOTE: Renouncing ownership will leave the contract without an owner, thereby removing any functionality that is only available to the owner."
      },
      "setMaximumContribution(uint256)": {
        "details": "Sets the maximum contribution.",
        "params": {
          "maximumContribution": "The maximum contribution in wei."
        }
      },
      "setMinimumContribution(uint256)": {
        "details": "Sets the minimum contribution.",
        "params": {
          "minimumContribution": "The minimum contribution in wei."
        }
      },
      "token()": {
        "returns": {
          "_0": "the token being sold."
        }
      },
      "tokenWallet()": {
        "returns": {
          "_0": "the address of the wallet that will hold the tokens."
        }
      },
      "transferOwnership(address)": {
        "details": "Transfers ownership of the contract to a new account (`newOwner`). Can only be called by the current owner."
      },
      "wallet()": {
        "returns": {
          "_0": "the address where funds are collected."
        }
      },
      "weiRaised()": {
        "returns": {
          "_0": "the amount of wei raised."
        }
      }
    },
    "version": 1
  },
  "userdoc": {
    "events": {
      "TimedCrowdsaleExtended(uint256,uint256)": {
        "notice": "Event for crowdsale extending"
      },
      "TokensPurchased(address,address,uint256,uint256)": {
        "notice": "Event for token purchase logging"
      }
    },
    "kind": "user",
    "methods": {},
    "version": 1
  }
}