{
  "contractName": "RelsifyToken",
  "abi": [
    {
      "inputs": [],
      "stateMutability": "nonpayable",
      "type": "constructor"
    },
    {
      "anonymous": false,
      "inputs": [
        {
          "indexed": true,
          "internalType": "address",
          "name": "addr",
          "type": "address"
        }
      ],
      "name": "AddressFrozen",
      "type": "event"
    },
    {
      "anonymous": false,
      "inputs": [
        {
          "indexed": true,
          "internalType": "address",
          "name": "addr",
          "type": "address"
        }
      ],
      "name": "AddressUnfrozen",
      "type": "event"
    },
    {
      "anonymous": false,
      "inputs": [
        {
          "indexed": true,
          "internalType": "address",
          "name": "owner",
          "type": "address"
        },
        {
          "indexed": true,
          "internalType": "address",
          "name": "spender",
          "type": "address"
        },
        {
          "indexed": false,
          "internalType": "uint256",
          "name": "value",
          "type": "uint256"
        }
      ],
      "name": "Approval",
      "type": "event"
    },
    {
      "anonymous": false,
      "inputs": [
        {
          "indexed": false,
          "internalType": "address",
          "name": "account",
          "type": "address"
        }
      ],
      "name": "Paused",
      "type": "event"
    },
    {
      "anonymous": false,
      "inputs": [
        {
          "indexed": true,
          "internalType": "bytes32",
          "name": "role",
          "type": "bytes32"
        },
        {
          "indexed": true,
          "internalType": "bytes32",
          "name": "previousAdminRole",
          "type": "bytes32"
        },
        {
          "indexed": true,
          "internalType": "bytes32",
          "name": "newAdminRole",
          "type": "bytes32"
        }
      ],
      "name": "RoleAdminChanged",
      "type": "event"
    },
    {
      "anonymous": false,
      "inputs": [
        {
          "indexed": true,
          "internalType": "bytes32",
          "name": "role",
          "type": "bytes32"
        },
        {
          "indexed": true,
          "internalType": "address",
          "name": "account",
          "type": "address"
        },
        {
          "indexed": true,
          "internalType": "address",
          "name": "sender",
          "type": "address"
        }
      ],
      "name": "RoleGranted",
      "type": "event"
    },
    {
      "anonymous": false,
      "inputs": [
        {
          "indexed": true,
          "internalType": "bytes32",
          "name": "role",
          "type": "bytes32"
        },
        {
          "indexed": true,
          "internalType": "address",
          "name": "account",
          "type": "address"
        },
        {
          "indexed": true,
          "internalType": "address",
          "name": "sender",
          "type": "address"
        }
      ],
      "name": "RoleRevoked",
      "type": "event"
    },
    {
      "anonymous": false,
      "inputs": [
        {
          "indexed": true,
          "internalType": "address",
          "name": "from",
          "type": "address"
        },
        {
          "indexed": true,
          "internalType": "address",
          "name": "to",
          "type": "address"
        },
        {
          "indexed": false,
          "internalType": "uint256",
          "name": "value",
          "type": "uint256"
        }
      ],
      "name": "Transfer",
      "type": "event"
    },
    {
      "anonymous": false,
      "inputs": [
        {
          "indexed": false,
          "internalType": "address",
          "name": "account",
          "type": "address"
        }
      ],
      "name": "Unpaused",
      "type": "event"
    },
    {
      "inputs": [],
      "name": "ASSET_PROTECT_ROLE",
      "outputs": [
        {
          "internalType": "bytes32",
          "name": "",
          "type": "bytes32"
        }
      ],
      "stateMutability": "view",
      "type": "function"
    },
    {
      "inputs": [],
      "name": "DEFAULT_ADMIN_ROLE",
      "outputs": [
        {
          "internalType": "bytes32",
          "name": "",
          "type": "bytes32"
        }
      ],
      "stateMutability": "view",
      "type": "function"
    },
    {
      "inputs": [],
      "name": "MINTER_ROLE",
      "outputs": [
        {
          "internalType": "bytes32",
          "name": "",
          "type": "bytes32"
        }
      ],
      "stateMutability": "view",
      "type": "function"
    },
    {
      "inputs": [],
      "name": "PAUSER_ROLE",
      "outputs": [
        {
          "internalType": "bytes32",
          "name": "",
          "type": "bytes32"
        }
      ],
      "stateMutability": "view",
      "type": "function"
    },
    {
      "inputs": [
        {
          "internalType": "address",
          "name": "owner",
          "type": "address"
        },
        {
          "internalType": "address",
          "name": "spender",
          "type": "address"
        }
      ],
      "name": "allowance",
      "outputs": [
        {
          "internalType": "uint256",
          "name": "",
          "type": "uint256"
        }
      ],
      "stateMutability": "view",
      "type": "function"
    },
    {
      "inputs": [
        {
          "internalType": "address",
          "name": "account",
          "type": "address"
        }
      ],
      "name": "balanceOf",
      "outputs": [
        {
          "internalType": "uint256",
          "name": "",
          "type": "uint256"
        }
      ],
      "stateMutability": "view",
      "type": "function"
    },
    {
      "inputs": [
        {
          "internalType": "uint256",
          "name": "amount",
          "type": "uint256"
        }
      ],
      "name": "burn",
      "outputs": [],
      "stateMutability": "nonpayable",
      "type": "function"
    },
    {
      "inputs": [
        {
          "internalType": "address",
          "name": "account",
          "type": "address"
        },
        {
          "internalType": "uint256",
          "name": "amount",
          "type": "uint256"
        }
      ],
      "name": "burnFrom",
      "outputs": [],
      "stateMutability": "nonpayable",
      "type": "function"
    },
    {
      "inputs": [],
      "name": "decimals",
      "outputs": [
        {
          "internalType": "uint8",
          "name": "",
          "type": "uint8"
        }
      ],
      "stateMutability": "view",
      "type": "function"
    },
    {
      "inputs": [
        {
          "internalType": "address",
          "name": "spender",
          "type": "address"
        },
        {
          "internalType": "uint256",
          "name": "subtractedValue",
          "type": "uint256"
        }
      ],
      "name": "decreaseAllowance",
      "outputs": [
        {
          "internalType": "bool",
          "name": "",
          "type": "bool"
        }
      ],
      "stateMutability": "nonpayable",
      "type": "function"
    },
    {
      "inputs": [
        {
          "internalType": "bytes32",
          "name": "role",
          "type": "bytes32"
        }
      ],
      "name": "getRoleAdmin",
      "outputs": [
        {
          "internalType": "bytes32",
          "name": "",
          "type": "bytes32"
        }
      ],
      "stateMutability": "view",
      "type": "function"
    },
    {
      "inputs": [
        {
          "internalType": "bytes32",
          "name": "role",
          "type": "bytes32"
        },
        {
          "internalType": "address",
          "name": "account",
          "type": "address"
        }
      ],
      "name": "grantRole",
      "outputs": [],
      "stateMutability": "nonpayable",
      "type": "function"
    },
    {
      "inputs": [
        {
          "internalType": "bytes32",
          "name": "role",
          "type": "bytes32"
        },
        {
          "internalType": "address",
          "name": "account",
          "type": "address"
        }
      ],
      "name": "hasRole",
      "outputs": [
        {
          "internalType": "bool",
          "name": "",
          "type": "bool"
        }
      ],
      "stateMutability": "view",
      "type": "function"
    },
    {
      "inputs": [
        {
          "internalType": "address",
          "name": "spender",
          "type": "address"
        },
        {
          "internalType": "uint256",
          "name": "addedValue",
          "type": "uint256"
        }
      ],
      "name": "increaseAllowance",
      "outputs": [
        {
          "internalType": "bool",
          "name": "",
          "type": "bool"
        }
      ],
      "stateMutability": "nonpayable",
      "type": "function"
    },
    {
      "inputs": [],
      "name": "name",
      "outputs": [
        {
          "internalType": "string",
          "name": "",
          "type": "string"
        }
      ],
      "stateMutability": "view",
      "type": "function"
    },
    {
      "inputs": [],
      "name": "paused",
      "outputs": [
        {
          "internalType": "bool",
          "name": "",
          "type": "bool"
        }
      ],
      "stateMutability": "view",
      "type": "function"
    },
    {
      "inputs": [
        {
          "internalType": "bytes32",
          "name": "role",
          "type": "bytes32"
        },
        {
          "internalType": "address",
          "name": "account",
          "type": "address"
        }
      ],
      "name": "renounceRole",
      "outputs": [],
      "stateMutability": "nonpayable",
      "type": "function"
    },
    {
      "inputs": [
        {
          "internalType": "bytes32",
          "name": "role",
          "type": "bytes32"
        },
        {
          "internalType": "address",
          "name": "account",
          "type": "address"
        }
      ],
      "name": "revokeRole",
      "outputs": [],
      "stateMutability": "nonpayable",
      "type": "function"
    },
    {
      "inputs": [
        {
          "internalType": "bytes4",
          "name": "interfaceId",
          "type": "bytes4"
        }
      ],
      "name": "supportsInterface",
      "outputs": [
        {
          "internalType": "bool",
          "name": "",
          "type": "bool"
        }
      ],
      "stateMutability": "view",
      "type": "function"
    },
    {
      "inputs": [],
      "name": "symbol",
      "outputs": [
        {
          "internalType": "string",
          "name": "",
          "type": "string"
        }
      ],
      "stateMutability": "view",
      "type": "function"
    },
    {
      "inputs": [],
      "name": "totalSupply",
      "outputs": [
        {
          "internalType": "uint256",
          "name": "",
          "type": "uint256"
        }
      ],
      "stateMutability": "view",
      "type": "function"
    },
    {
      "inputs": [
        {
          "internalType": "address",
          "name": "recipient",
          "type": "address"
        },
        {
          "internalType": "uint256",
          "name": "amount",
          "type": "uint256"
        }
      ],
      "name": "transfer",
      "outputs": [
        {
          "internalType": "bool",
          "name": "",
          "type": "bool"
        }
      ],
      "stateMutability": "nonpayable",
      "type": "function"
    },
    {
      "inputs": [
        {
          "internalType": "address",
          "name": "sender",
          "type": "address"
        },
        {
          "internalType": "address",
          "name": "recipient",
          "type": "address"
        },
        {
          "internalType": "uint256",
          "name": "amount",
          "type": "uint256"
        }
      ],
      "name": "transferFrom",
      "outputs": [
        {
          "internalType": "bool",
          "name": "",
          "type": "bool"
        }
      ],
      "stateMutability": "nonpayable",
      "type": "function"
    },
    {
      "inputs": [],
      "name": "cap",
      "outputs": [
        {
          "internalType": "uint256",
          "name": "",
          "type": "uint256"
        }
      ],
      "stateMutability": "view",
      "type": "function"
    },
    {
      "inputs": [],
      "name": "pause",
      "outputs": [],
      "stateMutability": "nonpayable",
      "type": "function"
    },
    {
      "inputs": [],
      "name": "unpause",
      "outputs": [],
      "stateMutability": "nonpayable",
      "type": "function"
    },
    {
      "inputs": [
        {
          "internalType": "address",
          "name": "_addr",
          "type": "address"
        }
      ],
      "name": "freeze",
      "outputs": [],
      "stateMutability": "nonpayable",
      "type": "function"
    },
    {
      "inputs": [
        {
          "internalType": "address",
          "name": "_addr",
          "type": "address"
        }
      ],
      "name": "unfreeze",
      "outputs": [],
      "stateMutability": "nonpayable",
      "type": "function"
    },
    {
      "inputs": [
        {
          "internalType": "address",
          "name": "_addr",
          "type": "address"
        }
      ],
      "name": "isFrozen",
      "outputs": [
        {
          "internalType": "bool",
          "name": "",
          "type": "bool"
        }
      ],
      "stateMutability": "view",
      "type": "function"
    },
    {
      "inputs": [
        {
          "internalType": "address",
          "name": "spender",
          "type": "address"
        },
        {
          "internalType": "uint256",
          "name": "amount",
          "type": "uint256"
        }
      ],
      "name": "approve",
      "outputs": [
        {
          "internalType": "bool",
          "name": "",
          "type": "bool"
        }
      ],
      "stateMutability": "nonpayable",
      "type": "function"
    },
    {
      "inputs": [
        {
          "internalType": "address",
          "name": "to",
          "type": "address"
        },
        {
          "internalType": "uint256",
          "name": "amount",
          "type": "uint256"
        }
      ],
      "name": "mint",
      "outputs": [],
      "stateMutability": "nonpayable",
      "type": "function"
    }
  ],
  "bytecode": "0x60a06040523480156200001157600080fd5b50604080518082018252600c81526b2932b639b4b33caa37b5b2b760a11b60208083019182528351808501909452600484526352454c5360e01b908401528151919291620000629160039162000402565b5080516200007890600490602084019062000402565b50506005805460ff19169055506200009260003362000166565b620000be7f65d7a28e3265b37a6474929f336521b332c1681b933f6cb9f3376673440d862a3362000166565b620000e733620000d16012600a620005bb565b620000e190630bebc200620005d3565b62000176565b620000f56012600a620005bb565b62000105906314dc9380620005d3565b608052620001347f9f2df0fed2c77648de5860a4cc508cd0818c85b8b8a1ab4ceeef8d981c8956a63362000166565b620001607f1a1dc0ef5e031e08e708f8d7d65cb21b5b632cdc821aafe9c088669fd76a8bfc3362000166565b6200064d565b6200017282826200026d565b5050565b6001600160a01b038216620001d25760405162461bcd60e51b815260206004820152601f60248201527f45524332303a206d696e7420746f20746865207a65726f20616464726573730060448201526064015b60405180910390fd5b620001e060008383620002f7565b8060026000828254620001f49190620005f5565b90915550506001600160a01b0382166000908152602081905260408120805483929062000223908490620005f5565b90915550506040518181526001600160a01b038316906000907fddf252ad1be2c89b69c2b068fc378daa952ba7f163c4a11628f55a4df523b3ef9060200160405180910390a35050565b620002798282620003d5565b620001725760008281526006602090815260408083206001600160a01b03851684529091529020805460ff19166001179055620002b33390565b6001600160a01b0316816001600160a01b0316837f2f8788117e7eff1d82e926ec794901d17c78024a50270940304540a733656f0d60405160405180910390a45050565b60055460ff16156200033f5760405162461bcd60e51b815260206004820152601060248201526f14185d5cd8589b194e881c185d5cd95960821b6044820152606401620001c9565b6001600160a01b03821660009081526007602052604090205460ff161580156200037957503360009081526007602052604090205460ff16155b620003b85760405162461bcd60e51b815260206004820152600e60248201526d20b2323932b9b990333937bd32b760911b6044820152606401620001c9565b620003d0838383620003d060201b620006f31760201c565b505050565b60008281526006602090815260408083206001600160a01b038516845290915290205460ff165b92915050565b828054620004109062000610565b90600052602060002090601f0160209004810192826200043457600085556200047f565b82601f106200044f57805160ff19168380011785556200047f565b828001600101855582156200047f579182015b828111156200047f57825182559160200191906001019062000462565b506200048d92915062000491565b5090565b5b808211156200048d576000815560010162000492565b634e487b7160e01b600052601160045260246000fd5b600181815b80851115620004ff578160001904821115620004e357620004e3620004a8565b80851615620004f157918102915b93841c9390800290620004c3565b509250929050565b6000826200051857506001620003fc565b816200052757506000620003fc565b81600181146200054057600281146200054b576200056b565b6001915050620003fc565b60ff8411156200055f576200055f620004a8565b50506001821b620003fc565b5060208310610133831016604e8410600b841016171562000590575081810a620003fc565b6200059c8383620004be565b8060001904821115620005b357620005b3620004a8565b029392505050565b6000620005cc60ff84168362000507565b9392505050565b6000816000190483118215151615620005f057620005f0620004a8565b500290565b600082198211156200060b576200060b620004a8565b500190565b600181811c908216806200062557607f821691505b602082108114156200064757634e487b7160e01b600052602260045260246000fd5b50919050565b60805161193a62000670600039600081816102a8015261081e015261193a6000f3fe608060405234801561001057600080fd5b50600436106101e55760003560e01c80635c975abb1161010f578063a217fddf116100a2578063d547741f11610071578063d547741f1461042c578063dd62ed3e1461043f578063e583983614610478578063e63ab1e9146104a457600080fd5b8063a217fddf146103d7578063a457c2d7146103df578063a9059cbb146103f2578063d53913931461040557600080fd5b80638456cb59116100de5780638456cb59146103a15780638d1fdf2f146103a957806391d14854146103bc57806395d89b41146103cf57600080fd5b80635c975abb146103335780635de1d1531461033e57806370a082311461036557806379cc67901461038e57600080fd5b8063313ce567116101875780633f4ba83a116101565780633f4ba83a146102f257806340c10f19146102fa57806342966c681461030d57806345c8b1a61461032057600080fd5b8063313ce56714610297578063355274ea146102a657806336568abe146102cc57806339509351146102df57600080fd5b806318160ddd116101c357806318160ddd1461023a57806323b872dd1461024c578063248a9ca31461025f5780632f2ff15d1461028257600080fd5b806301ffc9a7146101ea57806306fdde0314610212578063095ea7b314610227575b600080fd5b6101fd6101f8366004611618565b6104cb565b60405190151581526020015b60405180910390f35b61021a610502565b604051610209919061166e565b6101fd6102353660046116bd565b610594565b6002545b604051908152602001610209565b6101fd61025a3660046116e7565b610623565b61023e61026d366004611723565b60009081526006602052604090206001015490565b61029561029036600461173c565b6106cd565b005b60405160128152602001610209565b7f000000000000000000000000000000000000000000000000000000000000000061023e565b6102956102da36600461173c565b6106f8565b6101fd6102ed3660046116bd565b610776565b6102956107bb565b6102956103083660046116bd565b6107f1565b61029561031b366004611723565b610898565b61029561032e366004611768565b6108a2565b60055460ff166101fd565b61023e7f1a1dc0ef5e031e08e708f8d7d65cb21b5b632cdc821aafe9c088669fd76a8bfc81565b61023e610373366004611768565b6001600160a01b031660009081526020819052604090205490565b61029561039c3660046116bd565b61097f565b610295610a00565b6102956103b7366004611768565b610a33565b6101fd6103ca36600461173c565b610b0d565b61021a610b38565b61023e600081565b6101fd6103ed3660046116bd565b610b47565b6101fd6104003660046116bd565b610bd6565b61023e7f9f2df0fed2c77648de5860a4cc508cd0818c85b8b8a1ab4ceeef8d981c8956a681565b61029561043a36600461173c565b610be3565b61023e61044d366004611783565b6001600160a01b03918216600090815260016020908152604080832093909416825291909152205490565b6101fd610486366004611768565b6001600160a01b031660009081526007602052604090205460ff1690565b61023e7f65d7a28e3265b37a6474929f336521b332c1681b933f6cb9f3376673440d862a81565b60006001600160e01b03198216637965db0b60e01b14806104fc57506301ffc9a760e01b6001600160e01b03198316145b92915050565b606060038054610511906117ad565b80601f016020809104026020016040519081016040528092919081815260200182805461053d906117ad565b801561058a5780601f1061055f5761010080835404028352916020019161058a565b820191906000526020600020905b81548152906001019060200180831161056d57829003601f168201915b5050505050905090565b6001600160a01b03821660009081526007602052604081205460ff161580156105cd57503360009081526007602052604090205460ff16155b61060f5760405162461bcd60e51b815260206004820152600e60248201526d20b2323932b9b990333937bd32b760911b60448201526064015b60405180910390fd5b6106198383610c09565b5060019392505050565b6000610630848484610c16565b6001600160a01b0384166000908152600160209081526040808320338452909152902054828110156106b55760405162461bcd60e51b815260206004820152602860248201527f45524332303a207472616e7366657220616d6f756e74206578636565647320616044820152676c6c6f77616e636560c01b6064820152608401610606565b6106c28533858403610df1565b506001949350505050565b6000828152600660205260409020600101546106e98133610f15565b6106f38383610f79565b505050565b6001600160a01b03811633146107685760405162461bcd60e51b815260206004820152602f60248201527f416363657373436f6e74726f6c3a2063616e206f6e6c792072656e6f756e636560448201526e103937b632b9903337b91039b2b63360891b6064820152608401610606565b6107728282610fff565b5050565b3360008181526001602090815260408083206001600160a01b038716845290915281205490916107b29185906107ad9086906117fe565b610df1565b50600192915050565b7f65d7a28e3265b37a6474929f336521b332c1681b933f6cb9f3376673440d862a6107e68133610f15565b6107ee611066565b50565b7f9f2df0fed2c77648de5860a4cc508cd0818c85b8b8a1ab4ceeef8d981c8956a661081c8133610f15565b7f00000000000000000000000000000000000000000000000000000000000000008261084760025490565b61085191906117fe565b111561088e5760405162461bcd60e51b815260206004820152600c60248201526b10d85c08195e18d95959195960a21b6044820152606401610606565b6106f383836110f9565b6107ee33826111e4565b7f1a1dc0ef5e031e08e708f8d7d65cb21b5b632cdc821aafe9c088669fd76a8bfc6108cd8133610f15565b6001600160a01b03821660009081526007602052604090205460ff166109355760405162461bcd60e51b815260206004820152601860248201527f4164647265737320616c726561647920756e66726f7a656e00000000000000006044820152606401610606565b6001600160a01b038216600081815260076020526040808220805460ff19169055517fc3776b472ebf54114339eec9e4dc924e7ce307a97f5c1ee72b6d474e6e5e8b7c9190a25050565b600061098b833361044d565b9050818110156109e95760405162461bcd60e51b8152602060048201526024808201527f45524332303a206275726e20616d6f756e74206578636565647320616c6c6f77604482015263616e636560e01b6064820152608401610606565b6109f68333848403610df1565b6106f383836111e4565b7f65d7a28e3265b37a6474929f336521b332c1681b933f6cb9f3376673440d862a610a2b8133610f15565b6107ee61133e565b7f1a1dc0ef5e031e08e708f8d7d65cb21b5b632cdc821aafe9c088669fd76a8bfc610a5e8133610f15565b6001600160a01b03821660009081526007602052604090205460ff1615610ac05760405162461bcd60e51b815260206004820152601660248201527520b2323932b9b99030b63932b0b23c90333937bd32b760511b6044820152606401610606565b6001600160a01b038216600081815260076020526040808220805460ff19166001179055517f90811a8edd3b3c17eeaefffc17f639cc69145d41a359c9843994dc25382036909190a25050565b60009182526006602090815260408084206001600160a01b0393909316845291905290205460ff1690565b606060048054610511906117ad565b3360009081526001602090815260408083206001600160a01b038616845290915281205482811015610bc95760405162461bcd60e51b815260206004820152602560248201527f45524332303a2064656372656173656420616c6c6f77616e63652062656c6f77604482015264207a65726f60d81b6064820152608401610606565b6106193385858403610df1565b60006107b2338484610c16565b600082815260066020526040902060010154610bff8133610f15565b6106f38383610fff565b60006107b2338484610df1565b6001600160a01b038316610c7a5760405162461bcd60e51b815260206004820152602560248201527f45524332303a207472616e736665722066726f6d20746865207a65726f206164604482015264647265737360d81b6064820152608401610606565b6001600160a01b038216610cdc5760405162461bcd60e51b815260206004820152602360248201527f45524332303a207472616e7366657220746f20746865207a65726f206164647260448201526265737360e81b6064820152608401610606565b610ce78383836113b9565b6001600160a01b03831660009081526020819052604090205481811015610d5f5760405162461bcd60e51b815260206004820152602660248201527f45524332303a207472616e7366657220616d6f756e7420657863656564732062604482015265616c616e636560d01b6064820152608401610606565b6001600160a01b03808516600090815260208190526040808220858503905591851681529081208054849290610d969084906117fe565b92505081905550826001600160a01b0316846001600160a01b03167fddf252ad1be2c89b69c2b068fc378daa952ba7f163c4a11628f55a4df523b3ef84604051610de291815260200190565b60405180910390a35b50505050565b6001600160a01b038316610e535760405162461bcd60e51b8152602060048201526024808201527f45524332303a20617070726f76652066726f6d20746865207a65726f206164646044820152637265737360e01b6064820152608401610606565b6001600160a01b038216610eb45760405162461bcd60e51b815260206004820152602260248201527f45524332303a20617070726f766520746f20746865207a65726f206164647265604482015261737360f01b6064820152608401610606565b6001600160a01b0383811660008181526001602090815260408083209487168084529482529182902085905590518481527f8c5be1e5ebec7d5bd14f71427d1e84f3dd0314c0f7b2291e5b200ac8c7c3b925910160405180910390a3505050565b610f1f8282610b0d565b61077257610f37816001600160a01b03166014611475565b610f42836020611475565b604051602001610f53929190611816565b60408051601f198184030181529082905262461bcd60e51b82526106069160040161166e565b610f838282610b0d565b6107725760008281526006602090815260408083206001600160a01b03851684529091529020805460ff19166001179055610fbb3390565b6001600160a01b0316816001600160a01b0316837f2f8788117e7eff1d82e926ec794901d17c78024a50270940304540a733656f0d60405160405180910390a45050565b6110098282610b0d565b156107725760008281526006602090815260408083206001600160a01b0385168085529252808320805460ff1916905551339285917ff6391f5c32d9c69d2a47ea670b442974b53935d1edc7fd64eb21e047a839171b9190a45050565b60055460ff166110af5760405162461bcd60e51b815260206004820152601460248201527314185d5cd8589b194e881b9bdd081c185d5cd95960621b6044820152606401610606565b6005805460ff191690557f5db9ee0a495bf2e6ff9c91a7834c1ba4fdd244a5e8aa4e537bd38aeae4b073aa335b6040516001600160a01b03909116815260200160405180910390a1565b6001600160a01b03821661114f5760405162461bcd60e51b815260206004820152601f60248201527f45524332303a206d696e7420746f20746865207a65726f2061646472657373006044820152606401610606565b61115b600083836113b9565b806002600082825461116d91906117fe565b90915550506001600160a01b0382166000908152602081905260408120805483929061119a9084906117fe565b90915550506040518181526001600160a01b038316906000907fddf252ad1be2c89b69c2b068fc378daa952ba7f163c4a11628f55a4df523b3ef9060200160405180910390a35050565b6001600160a01b0382166112445760405162461bcd60e51b815260206004820152602160248201527f45524332303a206275726e2066726f6d20746865207a65726f206164647265736044820152607360f81b6064820152608401610606565b611250826000836113b9565b6001600160a01b038216600090815260208190526040902054818110156112c45760405162461bcd60e51b815260206004820152602260248201527f45524332303a206275726e20616d6f756e7420657863656564732062616c616e604482015261636560f01b6064820152608401610606565b6001600160a01b03831660009081526020819052604081208383039055600280548492906112f390849061188b565b90915550506040518281526000906001600160a01b038516907fddf252ad1be2c89b69c2b068fc378daa952ba7f163c4a11628f55a4df523b3ef9060200160405180910390a3505050565b60055460ff16156113845760405162461bcd60e51b815260206004820152601060248201526f14185d5cd8589b194e881c185d5cd95960821b6044820152606401610606565b6005805460ff191660011790557f62e78cea01bee320cd4e420270b5ea74000d11b0c9f74754ebdbfc544b05a2586110dc3390565b60055460ff16156113ff5760405162461bcd60e51b815260206004820152601060248201526f14185d5cd8589b194e881c185d5cd95960821b6044820152606401610606565b6001600160a01b03821660009081526007602052604090205460ff1615801561143857503360009081526007602052604090205460ff16155b6106f35760405162461bcd60e51b815260206004820152600e60248201526d20b2323932b9b990333937bd32b760911b6044820152606401610606565b606060006114848360026118a2565b61148f9060026117fe565b67ffffffffffffffff8111156114a7576114a76118c1565b6040519080825280601f01601f1916602001820160405280156114d1576020820181803683370190505b509050600360fc1b816000815181106114ec576114ec6118d7565b60200101906001600160f81b031916908160001a905350600f60fb1b8160018151811061151b5761151b6118d7565b60200101906001600160f81b031916908160001a905350600061153f8460026118a2565b61154a9060016117fe565b90505b60018111156115c2576f181899199a1a9b1b9c1cb0b131b232b360811b85600f166010811061157e5761157e6118d7565b1a60f81b828281518110611594576115946118d7565b60200101906001600160f81b031916908160001a90535060049490941c936115bb816118ed565b905061154d565b5083156116115760405162461bcd60e51b815260206004820181905260248201527f537472696e67733a20686578206c656e67746820696e73756666696369656e746044820152606401610606565b9392505050565b60006020828403121561162a57600080fd5b81356001600160e01b03198116811461161157600080fd5b60005b8381101561165d578181015183820152602001611645565b83811115610deb5750506000910152565b602081526000825180602084015261168d816040850160208701611642565b601f01601f19169190910160400192915050565b80356001600160a01b03811681146116b857600080fd5b919050565b600080604083850312156116d057600080fd5b6116d9836116a1565b946020939093013593505050565b6000806000606084860312156116fc57600080fd5b611705846116a1565b9250611713602085016116a1565b9150604084013590509250925092565b60006020828403121561173557600080fd5b5035919050565b6000806040838503121561174f57600080fd5b8235915061175f602084016116a1565b90509250929050565b60006020828403121561177a57600080fd5b611611826116a1565b6000806040838503121561179657600080fd5b61179f836116a1565b915061175f602084016116a1565b600181811c908216806117c157607f821691505b602082108114156117e257634e487b7160e01b600052602260045260246000fd5b50919050565b634e487b7160e01b600052601160045260246000fd5b60008219821115611811576118116117e8565b500190565b7f416363657373436f6e74726f6c3a206163636f756e742000000000000000000081526000835161184e816017850160208801611642565b7001034b99036b4b9b9b4b733903937b6329607d1b601791840191820152835161187f816028840160208801611642565b01602801949350505050565b60008282101561189d5761189d6117e8565b500390565b60008160001904831182151516156118bc576118bc6117e8565b500290565b634e487b7160e01b600052604160045260246000fd5b634e487b7160e01b600052603260045260246000fd5b6000816118fc576118fc6117e8565b50600019019056fea26469706673582212208db56c3ba42ad8b888655b0e200fe4bec52d420b55cf9041cb1e6a44bc270a1d64736f6c63430008090033",
  "immutableReferences": {
    "1475": [
      {
        "length": 32,
        "start": 680
      },
      {
        "length": 32,
        "start": 2078
      }
    ]
  },
  "source": "// SPDX-License-Identifier: MIT\npragma solidity  ^0.8.0;\n\nimport \"@openzeppelin/contracts/token/ERC20/ERC20.sol\";\nimport \"@openzeppelin/contracts/token/ERC20/extensions/ERC20Burnable.sol\";\nimport \"@openzeppelin/contracts/security/Pausable.sol\";\nimport \"@openzeppelin/contracts/access/AccessControl.sol\";\n\n/// @custom:security-contact security@relsify.com\ncontract RelsifyToken is ERC20, ERC20Burnable, Pausable, AccessControl {\n    // TOKEN MANAGEMENT ROLES\n    bytes32 public constant PAUSER_ROLE = keccak256(\"PAUSER_ROLE\");\n    bytes32 public constant MINTER_ROLE = keccak256(\"MINTER_ROLE\");\n    bytes32 public constant ASSET_PROTECT_ROLE = keccak256(\"ASSET_PROTECT_ROLE\");\n\n    // CAP\n    uint256 private immutable _cap;\n\n    // ASSET PROTECTION DATA\n    mapping(address => bool) internal frozen;\n\n    // ASSET PROTECTION EVENTS\n    event AddressFrozen(address indexed addr);\n    event AddressUnfrozen(address indexed addr);\n\n    constructor() ERC20(\"RelsifyToken\", \"RELS\") {\n        _setupRole(DEFAULT_ADMIN_ROLE, msg.sender);\n        _setupRole(PAUSER_ROLE, msg.sender);\n        _mint(msg.sender, 200000000 * 10 ** decimals());\n        _cap = 350000000 * 10 ** decimals();\n        _setupRole(MINTER_ROLE, msg.sender);\n        _setupRole(ASSET_PROTECT_ROLE, msg.sender);\n    }\n\n    //CAP\n\n    /**\n     * @dev Returns the cap on the token's total supply.\n     */\n    function cap() public view virtual returns (uint256) {\n        return _cap;\n    }\n\n    // PAUSE / UNPAUSE\n\n    function pause() public onlyRole(PAUSER_ROLE) {\n        _pause();\n    }\n\n    function unpause() public onlyRole(PAUSER_ROLE) {\n        _unpause();\n    }\n\n   /**\n     * @dev Freezes an address balance from being transferred.\n     * @param _addr The new address to freeze.\n     */\n    function freeze(address _addr) public onlyRole(ASSET_PROTECT_ROLE) {\n        require(!frozen[_addr], \"Address already frozen\");\n        frozen[_addr] = true;\n        emit AddressFrozen(_addr);\n    }\n\n    /**\n     * @dev Unfreezes an address balance allowing transfer.\n     * @param _addr The new address to unfreeze.\n     */\n    function unfreeze(address _addr) public onlyRole(ASSET_PROTECT_ROLE) {\n        require(frozen[_addr], \"Address already unfrozen\");\n        frozen[_addr] = false;\n        emit AddressUnfrozen(_addr);\n    }\n\n    /**\n    * @dev Gets whether the address is currently frozen.\n    * @param _addr The address to check if frozen.\n    * @return A bool representing whether the given address is frozen.\n    */\n    function isFrozen(address _addr) public view returns (bool) {\n        return frozen[_addr];\n    }\n\n    function approve(address spender, uint256 amount) public override returns (bool) {\n        require(!frozen[spender] && !frozen[msg.sender], \"Address frozen\");\n        super.approve(spender, amount);\n        return true;\n    }\n\n    function mint(address to, uint256 amount) public onlyRole(MINTER_ROLE) {\n        require(totalSupply() + amount <= cap(), \"Cap exceeded\");\n        _mint(to, amount);\n    }\n\n    function _beforeTokenTransfer(address from, address to, uint256 amount)\n        internal\n        whenNotPaused\n        override\n    {\n        require(!frozen[to] && !frozen[msg.sender], \"Address frozen\");\n        super._beforeTokenTransfer(from, to, amount);\n    }\n}",
  "sourcePath": "/home/light/relsify-token/contracts/RelsifyToken.sol",
  "compiler": {
    "name": "solc",
    "version": "0.8.9+commit.e5eed63a.Emscripten.clang"
  },
  "schemaVersion": "3.4.3",
  "updatedAt": "2021-11-19T15:22:58.848Z",
  "devdoc": {
    "custom:security-contact": "security@relsify.com",
    "kind": "dev",
    "methods": {
      "allowance(address,address)": {
        "details": "See {IERC20-allowance}."
      },
      "approve(address,uint256)": {
        "details": "See {IERC20-approve}. Requirements: - `spender` cannot be the zero address."
      },
      "balanceOf(address)": {
        "details": "See {IERC20-balanceOf}."
      },
      "burn(uint256)": {
        "details": "Destroys `amount` tokens from the caller. See {ERC20-_burn}."
      },
      "burnFrom(address,uint256)": {
        "details": "Destroys `amount` tokens from `account`, deducting from the caller's allowance. See {ERC20-_burn} and {ERC20-allowance}. Requirements: - the caller must have allowance for ``accounts``'s tokens of at least `amount`."
      },
      "cap()": {
        "details": "Returns the cap on the token's total supply."
      },
      "decimals()": {
        "details": "Returns the number of decimals used to get its user representation. For example, if `decimals` equals `2`, a balance of `505` tokens should be displayed to a user as `5.05` (`505 / 10 ** 2`). Tokens usually opt for a value of 18, imitating the relationship between Ether and Wei. This is the value {ERC20} uses, unless this function is overridden; NOTE: This information is only used for _display_ purposes: it in no way affects any of the arithmetic of the contract, including {IERC20-balanceOf} and {IERC20-transfer}."
      },
      "decreaseAllowance(address,uint256)": {
        "details": "Atomically decreases the allowance granted to `spender` by the caller. This is an alternative to {approve} that can be used as a mitigation for problems described in {IERC20-approve}. Emits an {Approval} event indicating the updated allowance. Requirements: - `spender` cannot be the zero address. - `spender` must have allowance for the caller of at least `subtractedValue`."
      },
      "freeze(address)": {
        "details": "Freezes an address balance from being transferred.",
        "params": {
          "_addr": "The new address to freeze."
        }
      },
      "getRoleAdmin(bytes32)": {
        "details": "Returns the admin role that controls `role`. See {grantRole} and {revokeRole}. To change a role's admin, use {_setRoleAdmin}."
      },
      "grantRole(bytes32,address)": {
        "details": "Grants `role` to `account`. If `account` had not been already granted `role`, emits a {RoleGranted} event. Requirements: - the caller must have ``role``'s admin role."
      },
      "hasRole(bytes32,address)": {
        "details": "Returns `true` if `account` has been granted `role`."
      },
      "increaseAllowance(address,uint256)": {
        "details": "Atomically increases the allowance granted to `spender` by the caller. This is an alternative to {approve} that can be used as a mitigation for problems described in {IERC20-approve}. Emits an {Approval} event indicating the updated allowance. Requirements: - `spender` cannot be the zero address."
      },
      "isFrozen(address)": {
        "details": "Gets whether the address is currently frozen.",
        "params": {
          "_addr": "The address to check if frozen."
        },
        "returns": {
          "_0": "A bool representing whether the given address is frozen."
        }
      },
      "name()": {
        "details": "Returns the name of the token."
      },
      "paused()": {
        "details": "Returns true if the contract is paused, and false otherwise."
      },
      "renounceRole(bytes32,address)": {
        "details": "Revokes `role` from the calling account. Roles are often managed via {grantRole} and {revokeRole}: this function's purpose is to provide a mechanism for accounts to lose their privileges if they are compromised (such as when a trusted device is misplaced). If the calling account had been granted `role`, emits a {RoleRevoked} event. Requirements: - the caller must be `account`."
      },
      "revokeRole(bytes32,address)": {
        "details": "Revokes `role` from `account`. If `account` had been granted `role`, emits a {RoleRevoked} event. Requirements: - the caller must have ``role``'s admin role."
      },
      "supportsInterface(bytes4)": {
        "details": "See {IERC165-supportsInterface}."
      },
      "symbol()": {
        "details": "Returns the symbol of the token, usually a shorter version of the name."
      },
      "totalSupply()": {
        "details": "See {IERC20-totalSupply}."
      },
      "transfer(address,uint256)": {
        "details": "See {IERC20-transfer}. Requirements: - `recipient` cannot be the zero address. - the caller must have a balance of at least `amount`."
      },
      "transferFrom(address,address,uint256)": {
        "details": "See {IERC20-transferFrom}. Emits an {Approval} event indicating the updated allowance. This is not required by the EIP. See the note at the beginning of {ERC20}. Requirements: - `sender` and `recipient` cannot be the zero address. - `sender` must have a balance of at least `amount`. - the caller must have allowance for ``sender``'s tokens of at least `amount`."
      },
      "unfreeze(address)": {
        "details": "Unfreezes an address balance allowing transfer.",
        "params": {
          "_addr": "The new address to unfreeze."
        }
      }
    },
    "version": 1
  },
  "userdoc": {
    "kind": "user",
    "methods": {},
    "version": 1
  }
}