{
  "contractName": "TokenVesting",
  "abi": [
    {
      "inputs": [
        {
          "internalType": "address",
          "name": "theBeneficiary",
          "type": "address"
        },
        {
          "internalType": "uint256",
          "name": "startTime",
          "type": "uint256"
        },
        {
          "internalType": "uint256",
          "name": "cliffDuration",
          "type": "uint256"
        },
        {
          "internalType": "uint256",
          "name": "durationOfVesting",
          "type": "uint256"
        },
        {
          "internalType": "bool",
          "name": "isRevocable",
          "type": "bool"
        }
      ],
      "stateMutability": "nonpayable",
      "type": "constructor"
    },
    {
      "anonymous": false,
      "inputs": [
        {
          "indexed": true,
          "internalType": "address",
          "name": "previousOwner",
          "type": "address"
        },
        {
          "indexed": true,
          "internalType": "address",
          "name": "newOwner",
          "type": "address"
        }
      ],
      "name": "OwnershipTransferred",
      "type": "event"
    },
    {
      "anonymous": false,
      "inputs": [
        {
          "indexed": false,
          "internalType": "address",
          "name": "token",
          "type": "address"
        }
      ],
      "name": "TokenVestingRevoked",
      "type": "event"
    },
    {
      "anonymous": false,
      "inputs": [
        {
          "indexed": false,
          "internalType": "address",
          "name": "token",
          "type": "address"
        },
        {
          "indexed": false,
          "internalType": "uint256",
          "name": "amount",
          "type": "uint256"
        }
      ],
      "name": "TokensReleased",
      "type": "event"
    },
    {
      "inputs": [],
      "name": "owner",
      "outputs": [
        {
          "internalType": "address",
          "name": "",
          "type": "address"
        }
      ],
      "stateMutability": "view",
      "type": "function"
    },
    {
      "inputs": [],
      "name": "renounceOwnership",
      "outputs": [],
      "stateMutability": "nonpayable",
      "type": "function"
    },
    {
      "inputs": [
        {
          "internalType": "address",
          "name": "newOwner",
          "type": "address"
        }
      ],
      "name": "transferOwnership",
      "outputs": [],
      "stateMutability": "nonpayable",
      "type": "function"
    },
    {
      "inputs": [],
      "name": "beneficiary",
      "outputs": [
        {
          "internalType": "address",
          "name": "",
          "type": "address"
        }
      ],
      "stateMutability": "view",
      "type": "function"
    },
    {
      "inputs": [],
      "name": "cliff",
      "outputs": [
        {
          "internalType": "uint256",
          "name": "",
          "type": "uint256"
        }
      ],
      "stateMutability": "view",
      "type": "function"
    },
    {
      "inputs": [],
      "name": "start",
      "outputs": [
        {
          "internalType": "uint256",
          "name": "",
          "type": "uint256"
        }
      ],
      "stateMutability": "view",
      "type": "function"
    },
    {
      "inputs": [],
      "name": "duration",
      "outputs": [
        {
          "internalType": "uint256",
          "name": "",
          "type": "uint256"
        }
      ],
      "stateMutability": "view",
      "type": "function"
    },
    {
      "inputs": [],
      "name": "revocable",
      "outputs": [
        {
          "internalType": "bool",
          "name": "",
          "type": "bool"
        }
      ],
      "stateMutability": "view",
      "type": "function"
    },
    {
      "inputs": [
        {
          "internalType": "address",
          "name": "token",
          "type": "address"
        }
      ],
      "name": "released",
      "outputs": [
        {
          "internalType": "uint256",
          "name": "",
          "type": "uint256"
        }
      ],
      "stateMutability": "view",
      "type": "function"
    },
    {
      "inputs": [
        {
          "internalType": "address",
          "name": "token",
          "type": "address"
        }
      ],
      "name": "revoked",
      "outputs": [
        {
          "internalType": "bool",
          "name": "",
          "type": "bool"
        }
      ],
      "stateMutability": "view",
      "type": "function"
    },
    {
      "inputs": [
        {
          "internalType": "contract IERC20",
          "name": "token",
          "type": "address"
        }
      ],
      "name": "release",
      "outputs": [],
      "stateMutability": "nonpayable",
      "type": "function"
    },
    {
      "inputs": [
        {
          "internalType": "contract IERC20",
          "name": "token",
          "type": "address"
        }
      ],
      "name": "revoke",
      "outputs": [],
      "stateMutability": "nonpayable",
      "type": "function"
    },
    {
      "inputs": [
        {
          "internalType": "contract IERC20",
          "name": "token",
          "type": "address"
        }
      ],
      "name": "releasableAmount",
      "outputs": [
        {
          "internalType": "uint256",
          "name": "",
          "type": "uint256"
        }
      ],
      "stateMutability": "view",
      "type": "function"
    },
    {
      "inputs": [
        {
          "internalType": "contract IERC20",
          "name": "token",
          "type": "address"
        }
      ],
      "name": "vestedAmount",
      "outputs": [
        {
          "internalType": "uint256",
          "name": "",
          "type": "uint256"
        }
      ],
      "stateMutability": "view",
      "type": "function"
    }
  ],
  "bytecode": "0x60806040523480156200001157600080fd5b5060405162000f5338038062000f538339810160408190526200003491620002a6565b6200003f3362000241565b6001600160a01b038516620000b15760405162461bcd60e51b815260206004820152602d60248201527f546f6b656e56657374696e673a2062656e65666963696172792069732074686560448201526c207a65726f206164647265737360981b60648201526084015b60405180910390fd5b81831115620001175760405162461bcd60e51b815260206004820152602b60248201527f546f6b656e56657374696e673a20636c696666206973206c6f6e67657220746860448201526a30b710323ab930ba34b7b760a91b6064820152608401620000a8565b60008211620001695760405162461bcd60e51b815260206004820152601b60248201527f546f6b656e56657374696e673a206475726174696f6e206973203000000000006044820152606401620000a8565b426200018483866200029160201b620006181790919060201c565b11620001eb5760405162461bcd60e51b815260206004820152602f60248201527f546f6b656e56657374696e673a2066696e616c2074696d65206973206265666f60448201526e72652063757272656e742074696d6560881b6064820152608401620000a8565b600180546001600160a01b0319166001600160a01b0387161790556005805460ff1916821515179055600482905562000231848462000291602090811b6200061817901c565b6002555050506003555062000339565b600080546001600160a01b038381166001600160a01b0319831681178455604051919092169283917f8be0079c531659141344cd1fd0a4f28419497f9722a3daafe3b4186f6b6457e09190a35050565b60006200029f828462000312565b9392505050565b600080600080600060a08688031215620002bf57600080fd5b85516001600160a01b0381168114620002d757600080fd5b80955050602086015193506040860151925060608601519150608086015180151581146200030457600080fd5b809150509295509295909350565b600082198211156200033457634e487b7160e01b600052601160045260246000fd5b500190565b610c0a80620003496000396000f3fe608060405234801561001057600080fd5b50600436106100ea5760003560e01c806374a8f1031161008c5780639852595c116100665780639852595c146101b1578063be9a6555146101da578063f2fde38b146101e2578063fa01dc06146101f557600080fd5b806374a8f10314610176578063872a7810146101895780638da5cb5b146101a057600080fd5b806319165587116100c85780631916558714610121578063384711cc1461013657806338af3eed14610149578063715018a61461016e57600080fd5b80630fb5a6b4146100ef57806313d033c0146101065780631726cbc81461010e575b600080fd5b6004545b6040519081526020015b60405180910390f35b6002546100f3565b6100f361011c366004610a42565b610221565b61013461012f366004610a42565b610232565b005b6100f3610144366004610a42565b610329565b6001546001600160a01b03165b6040516001600160a01b0390911681526020016100fd565b610134610334565b610134610184366004610a42565b61036a565b60055460ff165b60405190151581526020016100fd565b6000546001600160a01b0316610156565b6100f36101bf366004610a42565b6001600160a01b031660009081526006602052604090205490565b6003546100f3565b6101346101f0366004610a42565b61057d565b610190610203366004610a42565b6001600160a01b031660009081526007602052604090205460ff1690565b600061022c8261062b565b92915050565b600061023d8261062b565b9050600081116102945760405162461bcd60e51b815260206004820152601f60248201527f546f6b656e56657374696e673a206e6f20746f6b656e7320617265206475650060448201526064015b60405180910390fd5b6001600160a01b0382166000908152600660205260409020546102b79082610618565b6001600160a01b038084166000818152600660205260409020929092556001546102e392911683610657565b604080516001600160a01b0384168152602081018390527fc7798891864187665ac6dd119286e44ec13f014527aeeb2b8eb3fd413df93179910160405180910390a15050565b600061022c826106ae565b6000546001600160a01b0316331461035e5760405162461bcd60e51b815260040161028b90610a5f565b61036860006107dc565b565b6000546001600160a01b031633146103945760405162461bcd60e51b815260040161028b90610a5f565b60055460ff166103e65760405162461bcd60e51b815260206004820152601b60248201527f546f6b656e56657374696e673a2063616e6e6f74207265766f6b650000000000604482015260640161028b565b6001600160a01b03811660009081526007602052604090205460ff161561045b5760405162461bcd60e51b815260206004820152602360248201527f546f6b656e56657374696e673a20746f6b656e20616c7265616479207265766f6044820152621ad95960ea1b606482015260840161028b565b6040516370a0823160e01b81523060048201526000906001600160a01b038316906370a082319060240160206040518083038186803b15801561049d57600080fd5b505afa1580156104b1573d6000803e3d6000fd5b505050506040513d601f19601f820116820180604052508101906104d59190610a94565b905060006104e28361062b565b905060006104f0838361082c565b6001600160a01b0385166000908152600760205260409020805460ff19166001179055905061053b61052a6000546001600160a01b031690565b6001600160a01b0386169083610657565b6040516001600160a01b03851681527f39983c6d4d174a7aee564f449d4a5c3c7ac9649d72b7793c56901183996f8af69060200160405180910390a150505050565b6000546001600160a01b031633146105a75760405162461bcd60e51b815260040161028b90610a5f565b6001600160a01b03811661060c5760405162461bcd60e51b815260206004820152602660248201527f4f776e61626c653a206e6577206f776e657220697320746865207a65726f206160448201526564647265737360d01b606482015260840161028b565b610615816107dc565b50565b60006106248284610ac3565b9392505050565b6001600160a01b03811660009081526006602052604081205461022c90610651846106ae565b9061082c565b604080516001600160a01b038416602482015260448082018490528251808303909101815260649091019091526020810180516001600160e01b031663a9059cbb60e01b1790526106a9908490610838565b505050565b6040516370a0823160e01b815230600482015260009081906001600160a01b038416906370a082319060240160206040518083038186803b1580156106f257600080fd5b505afa158015610706573d6000803e3d6000fd5b505050506040513d601f19601f8201168201806040525081019061072a9190610a94565b6001600160a01b03841660009081526006602052604081205491925090610752908390610618565b9050600254421015610768575060009392505050565b60045460035461077791610618565b4210158061079d57506001600160a01b03841660009081526007602052604090205460ff165b156107a9579392505050565b6107d46004546107ce6107c76003544261082c90919063ffffffff16565b849061090a565b90610916565b949350505050565b600080546001600160a01b038381166001600160a01b0319831681178455604051919092169283917f8be0079c531659141344cd1fd0a4f28419497f9722a3daafe3b4186f6b6457e09190a35050565b60006106248284610adb565b600061088d826040518060400160405280602081526020017f5361666545524332303a206c6f772d6c6576656c2063616c6c206661696c6564815250856001600160a01b03166109229092919063ffffffff16565b8051909150156106a957808060200190518101906108ab9190610af2565b6106a95760405162461bcd60e51b815260206004820152602a60248201527f5361666545524332303a204552433230206f7065726174696f6e20646964206e6044820152691bdd081cdd58d8d9595960b21b606482015260840161028b565b60006106248284610b14565b60006106248284610b33565b60606107d4848460008585843b61097b5760405162461bcd60e51b815260206004820152601d60248201527f416464726573733a2063616c6c20746f206e6f6e2d636f6e7472616374000000604482015260640161028b565b600080866001600160a01b031685876040516109979190610b85565b60006040518083038185875af1925050503d80600081146109d4576040519150601f19603f3d011682016040523d82523d6000602084013e6109d9565b606091505b50915091506109e98282866109f4565b979650505050505050565b60608315610a03575081610624565b825115610a135782518084602001fd5b8160405162461bcd60e51b815260040161028b9190610ba1565b6001600160a01b038116811461061557600080fd5b600060208284031215610a5457600080fd5b813561062481610a2d565b6020808252818101527f4f776e61626c653a2063616c6c6572206973206e6f7420746865206f776e6572604082015260600190565b600060208284031215610aa657600080fd5b5051919050565b634e487b7160e01b600052601160045260246000fd5b60008219821115610ad657610ad6610aad565b500190565b600082821015610aed57610aed610aad565b500390565b600060208284031215610b0457600080fd5b8151801515811461062457600080fd5b6000816000190483118215151615610b2e57610b2e610aad565b500290565b600082610b5057634e487b7160e01b600052601260045260246000fd5b500490565b60005b83811015610b70578181015183820152602001610b58565b83811115610b7f576000848401525b50505050565b60008251610b97818460208701610b55565b9190910192915050565b6020815260008251806020840152610bc0816040850160208701610b55565b601f01601f1916919091016040019291505056fea2646970667358221220d5b41951608377c5c176efe2110f546c3e7cb46be084ac4922fd0713a2543b2964736f6c63430008090033",
  "immutableReferences": {},
  "source": "// SPDX-License-Identifier: MIT\npragma solidity  ^0.8.0;\n\nimport \"@openzeppelin/contracts/utils/math/SafeMath.sol\";\nimport \"@openzeppelin/contracts/token/ERC20/utils/SafeERC20.sol\";\nimport \"@openzeppelin/contracts/access/Ownable.sol\";\n\n/**\n * @title TokenVesting\n * @dev A token holder contract that can release its token balance gradually like a\n * typical vesting scheme, with a cliff and vesting period. Optionally revocable by the\n * owner.\n */\ncontract TokenVesting is Ownable {\n    // The vesting schedule is time-based (i.e. using block timestamps as opposed to e.g. block numbers), and is\n    // therefore sensitive to timestamp manipulation (which is something miners can do, to a certain degree). Therefore,\n    // it is recommended to avoid using short time durations (less than a minute). Typical vesting schemes, with a\n    // cliff period of a year and a duration of four years, are safe to use.\n    // solhint-disable not-rely-on-time\n\n    using SafeMath for uint256;\n    using SafeERC20 for IERC20;\n\n    event TokensReleased(address token, uint256 amount);\n    event TokenVestingRevoked(address token);\n\n    // beneficiary of tokens after they are released\n    address private _beneficiary;\n\n    // Durations and timestamps are expressed in UNIX time, the same units as block.timestamp.\n    uint256 private _cliff;\n    uint256 private _start;\n    uint256 private _duration;\n\n    bool private _revocable;\n\n    mapping (address => uint256) private _released;\n    mapping (address => bool) private _revoked;\n\n    /**\n     * @dev Creates a vesting contract that vests its balance of any ERC20 token to the\n     * beneficiary, gradually in a linear fashion until start + duration. By then all\n     * of the balance will have vested.\n     * @param theBeneficiary address of the beneficiary to whom vested tokens are transferred\n     * @param cliffDuration duration in seconds of the cliff in which tokens will begin to vest\n     * @param startTime the time (as Unix time) at which point vesting starts\n     * @param durationOfVesting duration in seconds of the period in which the tokens will vest\n     * @param isRevocable whether the vesting is revocable or not\n     */\n    constructor (address theBeneficiary, uint256 startTime, uint256 cliffDuration, uint256 durationOfVesting, bool isRevocable) {\n        require(theBeneficiary != address(0), \"TokenVesting: beneficiary is the zero address\");\n        // solhint-disable-next-line max-line-length\n        require(cliffDuration <= durationOfVesting, \"TokenVesting: cliff is longer than duration\");\n        require(durationOfVesting > 0, \"TokenVesting: duration is 0\");\n        // solhint-disable-next-line max-line-length\n        require(startTime.add(durationOfVesting) > block.timestamp, \"TokenVesting: final time is before current time\");\n\n        _beneficiary = theBeneficiary;\n        _revocable = isRevocable;\n        _duration = durationOfVesting;\n        _cliff = startTime.add(cliffDuration);\n        _start = startTime;\n    }\n\n    /**\n     * @return the beneficiary of the tokens.\n     */\n    function beneficiary() public view returns (address) {\n        return _beneficiary;\n    }\n\n    /**\n     * @return the cliff time of the token vesting.\n     */\n    function cliff() public view returns (uint256) {\n        return _cliff;\n    }\n\n    /**\n     * @return the start time of the token vesting.\n     */\n    function start() public view returns (uint256) {\n        return _start;\n    }\n\n    /**\n     * @return the duration of the token vesting.\n     */\n    function duration() public view returns (uint256) {\n        return _duration;\n    }\n\n    /**\n     * @return true if the vesting is revocable.\n     */\n    function revocable() public view returns (bool) {\n        return _revocable;\n    }\n\n    /**\n     * @return the amount of the token released.\n     */\n    function released(address token) public view returns (uint256) {\n        return _released[token];\n    }\n\n    /**\n     * @return true if the token is revoked.\n     */\n    function revoked(address token) public view returns (bool) {\n        return _revoked[token];\n    }\n\n    /**\n     * @notice Transfers vested tokens to beneficiary.\n     * @param token ERC20 token which is being vested\n     */\n    function release(IERC20 token) public {\n        uint256 unreleased = _releasableAmount(token);\n\n        require(unreleased > 0, \"TokenVesting: no tokens are due\");\n\n        _released[address(token)] = _released[address(token)].add(unreleased);\n\n        token.safeTransfer(_beneficiary, unreleased);\n\n        emit TokensReleased(address(token), unreleased);\n    }\n\n    /**\n     * @notice Allows the owner to revoke the vesting. Tokens already vested\n     * remain in the contract, the rest are returned to the owner.\n     * @param token ERC20 token which is being vested\n     */\n    function revoke(IERC20 token) public onlyOwner {\n        require(_revocable, \"TokenVesting: cannot revoke\");\n        require(!_revoked[address(token)], \"TokenVesting: token already revoked\");\n\n        uint256 balance = token.balanceOf(address(this));\n\n        uint256 unreleased = _releasableAmount(token);\n        uint256 refund = balance.sub(unreleased);\n\n        _revoked[address(token)] = true;\n\n        token.safeTransfer(owner(), refund);\n\n        emit TokenVestingRevoked(address(token));\n    }\n\n    /**\n     * @notice Returns the amount of tokens that can be released.\n     * @param token ERC20 token which is being vested\n     * @return the amount of tokens that can be released\n     */\n    function releasableAmount(IERC20 token) public view returns (uint256) {\n        return _releasableAmount(token);\n    }\n    \n    /**\n     * @notice Returns the amount of tokens that can be released.\n     * @param token ERC20 token which is being vested\n     * @return the amount of tokens that can be released\n     */\n    function vestedAmount(IERC20 token) public view returns (uint256) {\n        return _vestedAmount(token);\n    }\n\n    /**\n     * @dev Calculates the amount that has already vested but hasn't been released yet.\n     * @param token ERC20 token which is being vested\n     */\n    function _releasableAmount(IERC20 token) private view returns (uint256) {\n        return _vestedAmount(token).sub(_released[address(token)]);\n    }\n\n    /**\n     * @dev Calculates the amount that has already vested.\n     * @param token ERC20 token which is being vested\n     */\n    function _vestedAmount(IERC20 token) private view returns (uint256) {\n        uint256 currentBalance = token.balanceOf(address(this));\n        uint256 totalBalance = currentBalance.add(_released[address(token)]);\n\n        if (block.timestamp < _cliff) {\n            return 0;\n        } else if (block.timestamp >= _start.add(_duration) || _revoked[address(token)]) {\n            return totalBalance;\n        } else {\n            return totalBalance.mul(block.timestamp.sub(_start)).div(_duration);\n        }\n    }\n}\n",
  "sourcePath": "/home/light/relsify-token/contracts/utils/TokenVesting.sol",
  "compiler": {
    "name": "solc",
    "version": "0.8.9+commit.e5eed63a.Emscripten.clang"
  },
  "schemaVersion": "3.4.3",
  "updatedAt": "2021-11-18T11:03:14.291Z",
  "devdoc": {
    "details": "A token holder contract that can release its token balance gradually like a typical vesting scheme, with a cliff and vesting period. Optionally revocable by the owner.",
    "kind": "dev",
    "methods": {
      "beneficiary()": {
        "returns": {
          "_0": "the beneficiary of the tokens."
        }
      },
      "cliff()": {
        "returns": {
          "_0": "the cliff time of the token vesting."
        }
      },
      "constructor": {
        "details": "Creates a vesting contract that vests its balance of any ERC20 token to the beneficiary, gradually in a linear fashion until start + duration. By then all of the balance will have vested.",
        "params": {
          "cliffDuration": "duration in seconds of the cliff in which tokens will begin to vest",
          "durationOfVesting": "duration in seconds of the period in which the tokens will vest",
          "isRevocable": "whether the vesting is revocable or not",
          "startTime": "the time (as Unix time) at which point vesting starts",
          "theBeneficiary": "address of the beneficiary to whom vested tokens are transferred"
        }
      },
      "duration()": {
        "returns": {
          "_0": "the duration of the token vesting."
        }
      },
      "owner()": {
        "details": "Returns the address of the current owner."
      },
      "releasableAmount(address)": {
        "params": {
          "token": "ERC20 token which is being vested"
        },
        "returns": {
          "_0": "the amount of tokens that can be released"
        }
      },
      "release(address)": {
        "params": {
          "token": "ERC20 token which is being vested"
        }
      },
      "released(address)": {
        "returns": {
          "_0": "the amount of the token released."
        }
      },
      "renounceOwnership()": {
        "details": "Leaves the contract without owner. It will not be possible to call `onlyOwner` functions anymore. Can only be called by the current owner. NOTE: Renouncing ownership will leave the contract without an owner, thereby removing any functionality that is only available to the owner."
      },
      "revocable()": {
        "returns": {
          "_0": "true if the vesting is revocable."
        }
      },
      "revoke(address)": {
        "params": {
          "token": "ERC20 token which is being vested"
        }
      },
      "revoked(address)": {
        "returns": {
          "_0": "true if the token is revoked."
        }
      },
      "start()": {
        "returns": {
          "_0": "the start time of the token vesting."
        }
      },
      "transferOwnership(address)": {
        "details": "Transfers ownership of the contract to a new account (`newOwner`). Can only be called by the current owner."
      },
      "vestedAmount(address)": {
        "params": {
          "token": "ERC20 token which is being vested"
        },
        "returns": {
          "_0": "the amount of tokens that can be released"
        }
      }
    },
    "title": "TokenVesting",
    "version": 1
  },
  "userdoc": {
    "kind": "user",
    "methods": {
      "releasableAmount(address)": {
        "notice": "Returns the amount of tokens that can be released."
      },
      "release(address)": {
        "notice": "Transfers vested tokens to beneficiary."
      },
      "revoke(address)": {
        "notice": "Allows the owner to revoke the vesting. Tokens already vested remain in the contract, the rest are returned to the owner."
      },
      "vestedAmount(address)": {
        "notice": "Returns the amount of tokens that can be released."
      }
    },
    "version": 1
  }
}